:0200000480007A
:10000000370100801301C117E70001000100000063
:1000100000000000000000000000000000000000E0
:10002000232E11FE232C51FE232A61FE232871FE6C
:100030002326A1FE2324B1FE2322C1FE2320D1FECC
:10004000232EE1FC232CF1FC232A01FD232811FDA2
:100050002326C1FD2324D1FD2322E1FD2320F1FD30
:100060003971732F2034AD4F630EFF058D4F630937
:10007000FF019D4F63F1EF09B70F008063E1EF03CC
:10008000B77F0080938F8F8C23A0EF01732F1034E4
:10009000B77F0080938FCF8C23A0EF0171A8B77F2B
:1000A0000080938F0F8D23A0EF01732F1034B77F43
:1000B0000080938F4F8D23A0EF0197400000E780D1
:1000C00000B99DA8B77F0080938F0F8C23A0EF010C
:1000D000732F1034B77F0080938F4F8C23A0EF01D4
:1000E00097400000E78060D22AD6732F1034110F9A
:1000F00073101F3491A0B77F0080938F0F8C23A0C3
:10010000EF01732F1034B77F0080938F4F8C23A0A3
:10011000EF01370F01F0130F0F00930FA002232000
:10012000FF01930F20042320FF01370F0080130FDE
:10013000CF1773101F3409A0F250E2525253C2532A
:100140003255A255125682567247E2475248C2486B
:10015000324EA24E124F824F21617300203005654E
:1001600001150F5005706DFD8280411106C622C435
:1001700073000000B24022444101828017B10000A8
:1001800013014155178500001305C5E79785000049
:10019000938505146306B500232005001105DDBF16
:1001A00017750000130585D27111977500009385AE
:1001B000E5D16308B500144111052AC082960245B5
:1001C000EDB7110197500000E78040C901A0000081
:1001D000000000000000000000000000000000001F
:0201E00000001D
:1001E400130605001305000093F61500638406004A
:1001F4003305C50093D5150013161600E39605FEC6
:10020400678000006340050663C605061386050083
:10021400930505001305F0FF630C06029306100016
:10022400637AB6006358C00013161600939616003E
:10023400E36AB6FE1305000063E6C500B385C54056
:100244003365D50093D6160013561600E39606FEC2
:100254006780000093820000EFF05FFB13850500C8
:10026400678002003305A04063D80500B305B040A1
:100274006FF0DFF9B305B04093820000EFF01FF98F
:100284003305A040678002009382000063CA050022
:10029400634C0500EFF09FF71385050067800200AB
:1002A400B305B040E35805FE3305A040EFF01FF658
:0802B4003305B0406780020031
:1002BC00011122CE00102326A4FEB70705F0938768
:1002CC0087049C438327C4FEFD172326F4FE832753
:0C02DC00C4FEE5F7010072440561828059
:1002E800797122D60018232EA4FC232CB4FCB7075E
:1002F80005F0938707049843B70705F09387070429
:100308001377D70F98C3032784FD8D4763FBE70650
:100318008327C4FD83C737002304F4FE8327C4FD65
:1003280083C72700A304F4FE8327C4FD83C71700EF
:100338002305F4FE8327C4FD83C70700A305F4FE45
:10034800130784FEB70705F09387C704184398C3BB
:10035800B70705F0938707051307000298C3010044
:10036800B70705F0938707059C43FDFB8327C4FD6A
:100378009107232EF4FC832784FDF117232CF4FC2A
:10038800A1A08327C4FD13871700232EE4FC83C78D
:100398000700A307F4FEB70705F09387C7040347D0
:1003A800F4FE98C3B70705F093870705214798C35C
:1003B8000100B70705F0938707059C43FDFB8327DA
:1003C80084FDFD17232CF4FC832784FD8DFF010099
:0603D800325445618280F1
:1003DE00797122D60018232EA4FC232CB4FCB70767
:1003EE0005F09387C7041307F00F98C3032784FD06
:1003FE008D4763F6E708B70705F0938707051307E0
:10040E00000298C30100B70705F0938707059C43C8
:10041E00FDFBB70705F01387C7049307C4FE184307
:10042E0098C38327C4FD13871700232EE4FC0347CC
:10043E00F4FE2380E7008327C4FD13871700232EC5
:10044E00E4FC0347E4FE2380E7008327C4FD138703
:10045E001700232EE4FC0347D4FE2380E7008327F6
:10046E00C4FD13871700232EE4FC0347C4FE23802C
:10047E00E700832784FDF117232CF4FC91A0B70726
:10048E0005F093870705214798C30100B70705F0CC
:10049E00938707059C43FDFBB70705F09387C704B9
:1004AE0094438327C4FD13871700232EE4FC13F710
:1004BE00F60F2380E700832784FDFD17232CF4FC21
:0E04CE00832784FD85F701003254456182804A
:1004DC00011106CE22CC0010B16793870735232675
:1004EC00F4FE0DA89307B4FE85453E8597000000E9
:1004FC00E78060EE0347B4FE9307F00F6300F7024A
:10050C00294597000000E780E0DA8327C4FEFD1739
:10051C002326F4FE8327C4FEF1F711A001008327E4
:10052C00C4FEB337F00093F7F70F3E85F2406244F8
:04053C000561828053
:10054000011106CE22CC0010B70705F093870704EF
:100550009843B70705F0938707041367870098C38C
:100560009307F4FE85453E8597000000E78060E72D
:0A0570000100F24062440561828040
:10057A00011106CE22CC0010B70705F093870704B5
:10058A009843B70705F0938707041377770F98C343
:10059A009307F4FE85453E8597000000E780C0E397
:1005AA0097000000E78020F3AA8799C3854731A006
:1005BA0097000000E78060F881473E85F240624478
:0405CA0005618280C5
:1005CE00797106D622D40018232EA4FC232CB4FC59
:1005DE00E1679387076A2326F4FE0DA8930784FE2E
:1005EE0085453E8597000000E780C0DE034784FE08
:1005FE009307F00F6310F702054597000000E780A0
:10060E0040CB8327C4FEFD172326F4FE8327C4FEAA
:10061E00F1F711A00100034784FE9307E00F630476
:10062E00F700814715A0832584FD0325C4FD97009F
:10063E000000E78020DA930784FE89453E85970007
:10064E000000E78020D985473E85B250225445618F
:02065E00828098
:10066000797106D622D40018AA87232CB4FCA30FD4
:10067000F4FC8307F4FD63DA07028347F4FD93F784
:10068000F707A30FF4FC81451305700397000000E2
:10069000E78040FDAA87A307F4FE0347F4FE8547E1
:1006A00063F5E7008347F4FEEDA80347F4FDB14787
:1006B000630FF70097000000E780C0E89700000094
:1006C000E780E0EBAA8781E79307F00FD9A883477B
:1006D000F4FD93E7070493F7F70F2304F4FE832751
:1006E00084FDE18393F7F70FA304F4FE832784FDD1
:1006F000C18393F7F70F2305F4FE832784FDA183BD
:1007000093F7F70FA305F4FE832784FD93F7F70F04
:100710002306F4FE8547A307F4FE8347F4FD89E72B
:10072000930750F9A307F4FE0347F4FDA1476316AE
:10073000F700930770F8A307F4FE8347F4FEA306BF
:10074000F4FE930784FE99453E8597000000E780FC
:10075000E0B90347F4FDB147631AF7009307E4FEDD
:1007600085453E8597000000E780A0C7A947A307FD
:10077000F4FE9307E4FE85453E8597000000E78080
:1007800040C68347E4FEE207E18763DA0700834758
:10079000F4FEFD17A307F4FE8347F4FEF9FB83473D
:0C07A000E4FE3E85B25022544561828088
:1007AC00011122CE0010AA87A307F4FE8347F4FEA2
:1007BC0099C3854729A0B777008083C787EB3E850F
:0607CC0072440561828009
:1007D200797106D622D40018AA87A30FF4FC8347A6
:1007E200F4FD99C38D4799A4896713850771970012
:1007F2000000E780C0ACB70705F093874704984331
:10080200B70705F0938747041367870098C3B707B4
:1008120005F0938707049843B70705F09387070409
:100822001367870098C3B70705F093874704984377
:10083200B70705F0938747041367470098C3B707C4
:1008420005F0938707049843B70705F093870704D9
:100852001377B70F98C3B70705F0938747049843F8
:10086200B70705F0938747041367270098C3A94782
:10087200A307F4FE31A8930704FE85453E85970041
:100882000000E780E0B58347F4FEFD17A307F4FEFE
:100892008347F4FEEDF3230704FE814501459700EB
:1008A2000000E78000DCAA873E8785476316F714BD
:1008B2009305A01A214597000000E78080DAAA87F5
:1008C2003E8785476313F70A930704FE91453E85E9
:1008D20097000000E780C0B0034724FE8547631DF0
:1008E200F710034734FE9307A00A6317F710930724
:1008F200803E2324F4FE35A0B70500401305900A7C
:1009020097000000E780E0D5AA8785C31305803EE3
:1009120097000000E780A09A832784FEFD17232416
:10092200F4FE832784FEE9FB11A00100832784FEE5
:10093200E1C781451305A00397000000E78060D25C
:10094200AA87DDEB930704FE91453E8597000000E0
:10095200E78000A9834704FE93F7070499C3B147D0
:1009620011A091472307F4FE41A881451305900A7F
:1009720097000000E780E0CEAA873E87854763EABA
:10098200E70089472307F4FE930790FAA306F4FED3
:1009920039A085472307F4FE8547A306F4FE930793
:1009A200803E2324F4FE35A08347D4FE81453E8554
:1009B20097000000E780E0CAAA8785C31305803E3E
:1009C20097000000E780A08F832784FEFD17232471
:1009D200F4FE832784FEE9FB11A00100832784FE35
:1009E20091CB93050020414597000000E78060C746
:1009F200AA8799C3230704FEB78700800347E4FE52
:100A02002384E7008347E4FE93B7170093F7F70FB9
:100A1200A303F4FEB7770080034774FE238CE7EA52
:100A220097000000E780E0B1834774FE3E85B25034
:060A3200225445618280A0
:100A3800797106D622D40018AA87232CB4FC232A5D
:100A4800C4FC2328D4FCA30FF4FC832744FD2326ED
:100A5800F4FE8347F4FD3E8597000000E780C0D48C
:100A6800AA87858B99C38D4745A0B787008083C720
:100A78008700A18B91E78327C4FEA6072326F4FEEF
:100A8800032704FD854763F4E700C94711A0C5475C
:100A9800A305F4FE8347B4FE8325C4FE3E85970074
:100AA8000000E780A0BBAA87B1E7930500200325D3
:100AB80084FD97000000E78040B1AA8785C383279B
:100AC80084FD93870720232CF4FC832704FDFD175E
:100AD8002328F4FC832704FDE9FB11A00100034748
:100AE800B4FEC9476318F7008145314597000000F7
:100AF800E780C0B697000000E78040A4832704FD84
:100B0800B337F00093F7F70F3E85B2502254456192
:020B18008280D9
:100B1A00797122D60018232EA4FC8327C4FD8507E9
:100B2A0083C707002317F4FE8357E4FEA20713972F
:100B3A00070141878327C4FD83C70700C207C1870E
:100B4A00D98FC207C1872317F4FE8357E4FE3E8577
:060B5A0032544561828067
:100B6000797122D60018232EA4FC8327C4FD8D079B
:100B700083C707002326F4FE8327C4FEA2070327AA
:100B8000C4FD090703470700D98F2326F4FE8327F6
:100B9000C4FEA2070327C4FD050703470700D98F3A
:100BA0002326F4FE8327C4FEA2070327C4FD0347C0
:100BB0000700D98F2326F4FE8327C4FE3E853254D6
:040BC0004561828089
:100BC400797122D60018232EA4FC232CB4FC232AEA
:100BD400C4FC8327C4FD2326F4FE832784FD232439
:100BE400F4FE832744FD8DCB032784FE930717006F
:100BF4002324F4FE8327C4FE938617002326D4FE01
:100C0400034707002380E700832744FDFD17232AB9
:100C1400F4FC832744FDE9FB0100325445618280E2
:100C2400797122D60018232EA4FC232CB4FC232A89
:100C3400C4FC8327C4FD2326F4FE8327C4FE138744
:100C440017002326E4FE032784FD1377F70F238080
:100C5400E700832744FDFD17232AF4FC832744FD82
:0A0C6400E9FF01003254456182806F
:100C6E00797122D60018232EA4FC232CB4FC232A3F
:100C7E00C4FC8327C4FD2326F4FE832784FD23248E
:100C8E00F4FE232204FE8327C4FE138717002326B7
:100C9E00E4FE83C70700BE86832784FE13871700F2
:100CAE002324E4FE83C70700B387F6402322F4FE15
:100CBE00832744FDFD17232AF4FC832744FD81C7B7
:100CCE00832744FEE9D3832744FE3E853254456193
:020CDE00828012
:100CE000011122CE00102326A4FE2324B4FE31A03D
:100CF0008327C4FE85072326F4FE8327C4FE83C70B
:100D0000070091CB8327C4FE83C707003E87832754
:100D100084FEE39FE7FC8327C4FE83C707003E856C
:060D2000724405618280AF
:100D2600011122CE0010AA87A307F4FE930710082C
:100D36000347F4FE6368F7029307F0090347F4FEDE
:100D460063E4E700854705A09307000E0347F4FE1A
:100D5600636AF7009307C00F0347F4FE63E4E700F6
:0E0D6600854711A081473E8572440561828059
:100D7400011122CE0010AA87A307F4FE93070004F2
:100D84000347F4FE6364F7049307E0070347F4FEA4
:100D940063E4E700854725A8930700080347F4FEAA
:100DA400636AF7009307C00F0347F4FE63E4E700A8
:100DB400854731A801478347F4FE63E9E70001470B
:100DC4008347F4FE6364F700854711A081473E859D
:060DD400724405618280FB
:100DDA00797106D622D40018232EA4FC232CB4FC45
:100DEA00232604FE8327C4FDDC53032784FD630303
:100DFA00F7048327C4FE9DEF8327C4FD03C71700AA
:100E0A008327C4FD938787028546032684FDBE8512
:100E1A003A8597000000E780C0C1AA8799C7FD57A5
:100E2A00232CF4FC85472326F4FE8327C4FD0327DD
:100E3A0084FDD8D38327C4FE3E85B250225445612F
:020E4A008280A4
:100E4C00011106CE22CC26CA00102326A4FE232490
:100E5C00B4FE832784FEF9172324F4FE8327C4FEF3
:100E6C00DC47F917032784FE6364F70081470DA064
:100E7C008327C4FE84538327C4FE83D7A70083250E
:100E8C0084FE3E8597F0FFFFE7804035AA87A69742
:0C0E9C003E85F2406244D2440561828031
:100EA800797106D622D40018232EA4FC232CB4FC76
:100EB8008327C4FD9C432324F4FE032784FD854730
:100EC80063F9E700832784FEDC47032784FD636614
:100ED800F70085472326F4FE51A2FD572326F4FE8A
:100EE800832784FE83C7070009476384E70C0D47FF
:100EF8006384E71005476398E714832784FD23225A
:100F0800F4FE832744FE8583032744FEBA972322F1
:100F1800F4FE832784FE984F832744FEA583BA975F
:100F2800BE85032584FE97000000E780C0EAAA87F3
:100F3800639F0710832744FE138717002322E4FECC
:100F480093F7F71F032784FEBA9783C787022320E6
:100F5800F4FE832784FE984F832744FEA583BA971F
:100F6800BE85032584FE97000000E780C0E6AA87B7
:100F7800EDE3832744FE93F7F71F032784FEBA9710
:100F880083C78702A2073E87832704FED98F2320C1
:100F9800F4FE832784FD858B89C7832704FE91830C
:100FA80031A0032704FE8567FD17F98F2326F4FE79
:100FB80075A0832784FE984F832784FDA183BA9761
:100FC800BE85032584FE97000000E780C0E0AA875D
:100FD800D9E3832784FE13878702832784FD860746
:100FE80093F7E71FBA973E8597000000E780A0B205
:100FF800AA872326F4FE9DA0832784FE984F832783
:1010080084FD9D83BA97BE85032584FE9700000062
:10101800E78060DCAA87B1E3832784FE1387870211
:10102800832784FD8A0793F7C71FBA973E859700E1
:101038000000E780A0B22A87B7070010FD17F98FD4
:101048002326F4FE21A885472326F4FE01A80100E3
:1010580031A0010021A0010011A001008327C4FED6
:0A1068003E85B2502254456182809B
:10107200797106D622D40018232EA4FC232CB4FCAA
:101082008327C4FD9C432324F4FE032784FDB70772
:1010920020006376F700832784FDFD8B99C389477F
:1010A2001DA28327C4FD032784FD98CB8327C4FD9B
:1010B2009C472326F4FE8327C4FE89EF832784FE00
:1010C20003C70700894763F7E700832784FEDC4FE5
:1010D2002326F4FE8327C4FE9DE3832784FD9583A4
:1010E200032784FE0357870063E4E7008947E1A8EA
:1010F200832784FED84F8327C4FD98CF59A0832726
:1011020084FE83D7A700A6072322F4FE89A883279B
:10111200C4FD8325C4FE3E8597000000E780E0D829
:101122002326A4FE0327C4FEFD576314F700854758
:1011320059A80327C4FE854763F9E700832784FE85
:10114200DC470327C4FE6364F7008947ADA8032781
:1011520084FD832744FEB307F740232CF4FC0327C6
:1011620084FD832744FEE374F7FA8325C4FE032536
:1011720084FE97000000E78080CD2A878327C4FD84
:1011820098CF8327C4FD0327C4FED8CB8327C4FD91
:101192009C4F99E3894705A88327C4FD984F83276D
:1011A20084FDA5833E978327C4FD98CF832784FEC1
:1011B20013878702832784FD93F7F71F3E978327C0
:1011C200C4FDD8CF81473E85B2502254456182800A
:1011D200797106D622D40018232EA4FC232CB4FC49
:1011E2008327C4FD9C432326F4FE8327C4FD9C4B26
:1011F200938707022324F4FE032784FEB707200007
:101202006366F7008327C4FD23AC07008327C4FD70
:101212009C4F99E39147EDA8832784FE93F7F71F2C
:10122200F1E78327C4FD9C4F138717008327C4FD72
:1012320098CF8327C4FDDC4B85E3832784FE958307
:101242000327C4FE0357870063E2E70A8327C4FD2E
:1012520023AC070091476DA8832784FEA58303274B
:10126200C4FE0357A7007D17F98FC9E30327C4FD06
:101272008327C4FDDC4BBE853A8597000000E780DA
:10128200C0C22322A4FE032744FE854763E4E7008D
:101292008947BDA8032744FEFD576314F70085471D
:1012A20085A88327C4FEDC47032744FE636FF7004B
:1012B200832784FD89E78327C4FD23AC07008327A6
:1012C200C4FD23AC07009147A1A08327C4FD0327D7
:1012D20044FED8CB832544FE0325C4FE97000000BC
:1012E200E780E0B62A878327C4FD98CF8327C4FD11
:1012F200032784FE98CB8327C4FE138787028327A4
:1013020084FE93F7F71F3E978327C4FDD8CF81470A
:0A1312003E85B250225445618280EE
:10131C00797106D622D40018232EA4FC232CB4FCFD
:10132C00832784FDE9073E8597F0FFFFE780607E09
:10133C00AA872326F4FE8327C4FD03C707008D4725
:10134C006311F702832784FDD1073E8597F0FFFFD9
:10135C00E780207CAA87C2070327C4FED98F2326E7
:10136C00F4FE8327C4FE3E85B25022544561828030
:10137C00797106D622D40018232EA4FC232CB4FC9D
:10138C0091472326F4FE8327C4FD9C432324F4FEBB
:10139C004DA88327C4FD9C4FBE85032584FE970072
:1013AC000000E78000A32326A4FE8327C4FED9EF08
:1013BC008327C4FDDC4F83C70700A303F4FE8347D8
:1013CC0074FE89E791472326F4FE71A08327C4FDA0
:1013DC00DC4FAD0783C7070093F7F7032303F4FE35
:1013EC008327C4FD034764FE2383E700034774FE91
:1013FC009307500E630BF702034774FE9307E0024A
:10140C006305F702034764FEBD476300F702834799
:10141C0064FE93F7F7FDE11793B7170093F7F70FF7
:10142C003E87832784FD6385E70281450325C4FD40
:10143C0097000000E78060D92326A4FE8327C4FE12
:10144C0091EB8327C4FD9C4FA9F731A0010021A08B
:10145C00010011A001008327C4FE89C78327C4FDA6
:10146C0023AC07008327C4FE3E85B250225445614D
:02147C0082806C
:10147E00797106D622D40018232EA4FC8327C4FD2E
:10148E009C432324F4FE81450325C4FD97000000F0
:10149E00E78080BD2326A4FE8327C4FE81C7832751
:1014AE00C4FE75A08327C4FD9C4FBE85032584FE14
:1014BE0097000000E780C0912326A4FE8327C4FE78
:1014CE00D1E38327C4FDDC4F83C70700A303F4FEDB
:1014DE00834774FE89E791472326F4FEBDA0832738
:1014EE00C4FDDC4FAD0783C7070093F7F70313F76F
:1014FE00F70F8327C4FD2383E7008327C4FDDC4F4A
:10150E00AD0783C70700A18B8DE38327C4FDD84F9A
:10151E008327C4FD938707022D46BE853A8597F033
:10152E00FFFFE7802074AA8785C381450325C4FD8C
:10153E0097000000E78040C92326A4FE8327C4FE3F
:10154E00B5D321A0010011A001008327C4FE3E8562
:08155E00B25022544561828065
:10156600797106D622D40018232EA4FC232CB4FCB1
:10157600832784FDA38407008327C4FD9C4F6386CD
:101586000710232404FE832784FE2326F4FEADA839
:101596008327C4FDD84F8327C4FE938617002326CE
:1015A600D4FEBA9783C70700A303F4FE034774FE6D
:1015B600930700026313F70081A8034774FE95475B
:1015C6006315F7009557A303F4FE0327C4FEA5474A
:1015D600631FF700832784FE138717002324E4FE86
:1015E600032784FDBA971307E002A384E700832745
:1015F60084FE138717002324E4FE032784FDBA978D
:10160600034774FEA384E7000327C4FEA947E3F15A
:10161600E7F8032784FD832784FEBA97A38407008F
:101626008327C4FDDC4F03C7B700832784FD2384CB
:10163600E7008327C4FDDC4FF1073E8597F0FFFFE7
:10164600E780E0512A87832784FD98C38327C4FD5A
:10165600DC4FD9073E8597F0FFFFE780E04BAA876E
:101666003E87832784FD2393E7008327C4FDDC4F51
:10167600E1073E8597F0FFFFE780004AAA873E878D
:10168600832784FD2392E70011A00100B250225463
:0416960045618280A8
:10169A00797106D622D40018232EA4FC8327C4FD10
:1016AA009C43938617000327C4FD14C383C707000E
:1016BA002326F4FE0327C4FE9307000663FDE70012
:1016CA000327C4FE9307A00763E7E7008327C4FE46
:1016DA0081172326F4FE8327C4FE93F7F70F3E856E
:1016EA0097F0FFFFE780C063AA87A1C38327C4FDE1
:1016FA009C4383C707003E8597F0FFFFE78020677A
:10170A00AA878DC38327C4FE139787008327C4FD46
:10171A009C43138617008326C4FD90C283C7070023
:10172A00D98F11A081472326F4FE8327C4FE3E8564
:08173A00B25022544561828087
:10174200397106DE22DC80002326A4FC2324B4FCAB
:101752002322C4FC2320D4FC21A8930784FC3E85C9
:1017620097000000E78080F3AA8799E381471DAACA
:10177200832744FC1387F7FF2322E4FCF9FF832726
:10178200C4FC83C7070091E7832704FC99C38547FC
:1017920011AA8327C4FC232EF4FC832784FC232C68
:1017A200F4FC8327C4FD03C707009307F003630A11
:1017B200F7008327C4FD03C707009307A00263163F
:1017C200F708232204FE832744FE2324F4FE832702
:1017D200C4FD13871700232EE4FC03C707009307F9
:1017E200F0036318F700832784FE85072324F4FEA1
:1017F20021A085472322F4FE8327C4FD03C70700E7
:101802009307F003E305F7FC8327C4FD03C7070032
:101812009307A002E30DF7FA8327C4FD032784FD93
:10182200832644FE032684FEBA853E859700000087
:10183200E78040F1AA8799C38547ADA0832784FD3D
:1018420083C707002326F4FE3DA89307C4FD3E8507
:1018520097000000E78080E42320A4FE930784FD24
:101862003E8597000000E78060E32326A4FE03275D
:1018720004FE8327C4FE6317F700832704FE95F353
:1018820085470DA00100930784FC3E859700000068
:10189200E780C0E0832704FC89C78327C4FEE39A5C
:0E18A20007EE81473E85F2506254216182803C
:1018B000397106DE22DC80002326A4FC2324B4FC3C
:1018C000832784FC9C43232EF4FC8327C4FC93874A
:1018D0000702232CF4FC2D4693050002032584FD0A
:1018E00097F0FFFFE7804034232004FE832704FEA7
:1018F0002322F4FEA1472324F4FE832744FE13870A
:1019000017002322E4FE0327C4FDBA9783C707000C
:10191000A307F4FE0347F4FE9307000263FCE716F7
:101920000347F4FE9307F002630EF7000347F4FE4B
:101930009307C005631FF70231A0832744FE850784
:101940002322F4FE0327C4FD832744FEBA9703C76E
:1019500007009307F002E302F7FE0327C4FD832785
:1019600044FEBA9703C707009307C005E307F7FCD7
:101970001DA20347F4FE9307E0026308F700032764
:1019800004FE832784FE6366F702032784FEAD47C7
:101990006308F7000347F4FE9307E0026304F700CF
:1019A000994799A2A1472320F4FEAD472324F4FED2
:1019B000CDA08347F4FE3E8597F0FFFFE780E03639
:1019C000AA87BDCB832744FE138717002322E4FE9A
:1019D0000327C4FDBA9783C70700A30BF4FC834712
:1019E00074FD3E8597F0FFFFE7800039AA8781CB21
:1019F000832784FEFD17032704FE6364F7009947DD
:101A0000E5A0832704FE138717002320E4FE0327A5
:101A100084FDBA970347F4FE2380E700832704FE82
:101A2000138717002320E4FE032784FDBA9703479A
:101A300074FD2380E700D1B58347F4FEBE85B76708
:101A400000801385C72597F0FFFFE780A029AA87AC
:101A500099C3994751A80347F4FE9307000663FD15
:101A6000E7000347F4FE9307A00763E7E700834717
:101A7000F4FE8117A307F4FE832704FE13871700E3
:101A80002320E4FE032784FDBA970347F4FE238056
:101A9000E700A5B501000327C4FD832744FE3E9758
:101AA000832784FC98C3832704FE99E399472DA8D4
:101AB000832784FD03C707009307500E6317F700C1
:101AC000832784FD15472380E7000347F4FE93072F
:101AD000000263E4E700914711A08147032784FDDA
:101AE0002D072300F70081473E85F25062542161A3
:021AF0008280F2
:101AF200797106D622D40018232EA4FC232CB4FC20
:101B02008327C4FD9C432324F4FE31A0832784FD54
:101B12008507232CF4FC832784FD03C70700930762
:101B2200F002E305F7FE832784FD03C7070093074E
:101B3200C005E30DF7FC8327C4FD23A40700832718
:101B420084FD03C70700FD4763E2E7028327C4FD64
:101B5200130700F8A385E70281450325C4FD97F02A
:101B6200FFFFE78020512326A4FE75A0930784FD82
:101B7200BE850325C4FD97000000E78080D323269D
:101B8200A4FE8327C4FED9E30325C4FD9700000009
:101B9200E780008F2326A4FE8327C4FD83C7B702F4
:101BA200A303F4FE8327C4FE91CF0327C4FE91470B
:101BB2006310F706834774FE918BB9EB9547232692
:101BC200F4FEB9A0834774FE918BA9E78327C4FD75
:101BD20083C76700C18B89E795472326F4FE25A8B2
:101BE200832784FE138787028327C4FD9C4B93F7C8
:101BF200F71FBA97BE85032584FE97F0FFFFE780A3
:101C020000722A878327C4FD98C78DB7010021A0DF
:101C1200010011A001008327C4FE3E85B250225468
:041C22004561828016
:101C2600397122DE80002326A4FCFD572322F4FE10
:101C36008327C4FC9C432320F4FE832704FE23262B
:101C4600F4FE832704FE81E7832744FE5DA08327F5
:101C5600C4FE138717002326E4FE83C70700A30FDD
:101C6600F4FC0347F4FD9307000263F8E70003471B
:101C7600F4FD9307A003E31CF7FC0347F4FD930769
:101C8600A0036314F70685472324F4FE832704FE86
:101C960003C707009307F00263F9E702832704FEF0
:101CA60003C707009307900363E1E702832704FE57
:101CB60089070327C4FE631AF700832704FE83C738
:101CC6000700938707FD2324F4FE832784FE634BD6
:101CD600F000832784FE2322F4FE8327C4FC032717
:101CE600C4FE98C3832744FE29A0232204FE83272B
:0A1CF60044FE3E8572542161828095
:101D0000011106CE22CC00102326A4FE2324B4FE0B
:101D10008327C4FEA38107008327C4FE7D57D8D341
:101D2000832584FE0325C4FE97F0FFFFE780200B88
:101D3000AA8799C3914775A08327C4FE938787021A
:101D40009387E71F3E8597F0FFFFE78040DDAA8776
:101D50003E87AD67938757A56304F7008D4751A071
:101D60008327C4FE03C787029307900E6302F7021E
:101D70008327C4FE03C787029307B00E630AF700E8
:101D80008327C4FE03C787029307800E631AF704F4
:101D90008327C4FE93878702138767030D46B767BF
:101DA00000809385C7263A8597F0FFFFE78060ECB7
:101DB000AA8799E3814735A08327C4FE93878702CA
:101DC000138727051546B7670080938507273A854F
:101DD00097F0FFFFE780E0E9AA8799E3814711A028
:0C1DE00089473E85F24062440561828024
:101DEC00397106DE22DC80002326A4FC2324B4FCFB
:101DFC0081450325C4FC97000000E780E0EF232415
:101E0C00A4FE032784FE8947630DF700032784FE95
:101E1C00894763E5E700832784FC81E7832784FEF9
:101E2C00C9A0232604FE35A88327C4FC1387870288
:101E3C008327C4FE92079387671CBA973E8597F059
:101E4C00FFFFE78060D12A878327C4FE8A079306A9
:101E5C0004FFB69723A4E7FE8327C4FE8507232639
:101E6C00F4FE0327C4FE8D47E3F0E7FC832784FCD4
:101E7C0089C7832784FCFD1711A081472326F4FE14
:101E8C008327C4FE8A07130704FFBA9783A787FE2C
:101E9C0095C38327C4FE8A07130704FFBA9783A749
:101EAC0087FEBE850325C4FC97000000E780C0E4D4
:101EBC00AA8711A08D472324F4FE832784FC85E395
:101ECC00032784FE854763FCE7008327C4FE850750
:101EDC002326F4FE0327C4FE8D47E3F3E7FA83279A
:0C1EEC0084FE3E85F25062542161828029
:101EF8005D7186C6A2C48008232EA4FA232CB4FAE6
:101F0800B287A30BF4FA832784FB23A007000325D9
:101F1800C4FB97000000E780C0D0232EA4FC8327D1
:101F2800C4FD63D40700AD472DA9B78700800327F8
:101F3800C4FD0A079387C700BA979C43232CF4FC77
:101F4800832784FD99E3B14729A9832784FB0327C5
:101F580084FD98C3834774FBF99BA30BF4FA83278A
:101F680084FD83C707009DC3832784FD83C71700AB
:101F78003E8597F0FFFFE7802083AA87A30BF4FC38
:101F8800834774FD858B99E38147E1AE832784FD00
:101F9800238007008327C4FD13F7F70F832784FDE9
:101FA800A380E700832784FD83C717003E8597F049
:101FB800FFFFE780C081AA87A30BF4FC834774FD69
:101FC800858B99C38D4771AE8145032584FD9700A4
:101FD8000000E78060E12320A4FE032704FE914768
:101FE8006314F7008547B5AE032704FE854763F4FD
:101FF800E700B547BDA6832784FDDC532328F4FCFE
:10200800832784FD93878702AD073E8597F0FFFFFE
:10201800E78060B0AA873E87930700206304F70033
:10202800B54781A6832784FD93878702D9073E8514
:1020380097F0FFFFE78020AEAA872324F4FE8327CA
:1020480084FE91EF832784FD938787029387470255
:102058003E8597F0FFFFE78060B02324A4FE832726
:1020680084FD032784FE98CB832784FD03C7870359
:10207800832784FD2381E700832784FD03C7270086
:102088008547630BF700832784FD03C7270089472B
:102098006304F700B547F1A4832784FD83C72700AD
:1020A800BE85032584FE97E0FFFFE7806013AA87BB
:1020B8002324F4FE832784FD83C75703139707015E
:1020C8004183832784FD2395E700832784FD83D7F5
:1020D800A70089CF832784FD83D7A7003E8783275E
:1020E80084FD83D7A700FD17F98F99C3B54795AC31
:1020F800832784FD93878702C5073E8597F0FFFFF6
:10210800E78060A1AA873E87832784FD2394E700A0
:10211800832784FD83D78700BD8BC207C18399C3FA
:10212800B54781A4832784FD93878702CD073E8521
:1021380097F0FFFFE780209EAA872326F4FE8327D7
:10214800C4FE91EF832784FD938787029387070254
:102158003E8597F0FFFFE78060A02326A4FE832733
:1021680084FD93878702B9073E8597F0FFFFE780D4
:10217800809AAA872317F4FC8357E4FC99E3B547B0
:10218800CDA20357E4FC832784FEBA97032784FD76
:1021980003578700118342074183BA972324F4FC2D
:1021A8000327C4FE832784FC6374F700B54755AA48
:1021B8000327C4FE832784FC1D8F832784FD83D7D0
:1021C800A700BE853A8597E0FFFFE7802004AA872D
:1021D8002322F4FC832744FC99E3B54759A2232022
:1021E80004FE032744FCB7070010D51763E5E70092
:1021F8008D472320F4FE032744FCC167D51763E508
:10220800E70089472320F4FE032744FC8567D51798
:1022180063E5E70085472320F4FE832704FE99E35E
:10222800B54781A2832744FC13872700832784FDB1
:10223800D8C7832784FD032704FDD8CB0357E4FCC4
:10224800832704FD3E97832784FD98CF032704FD49
:10225800832784FC3E97832784FD98D3032704FEB5
:102268008D47631EF704832784FD9387870293872E
:10227800A7023E8597F0FFFFE780E089AA8799C308
:10228800B547C5A0832784FD83D7870099C3B54781
:10229800C9A8832784FD938787029387C7023E8551
:1022A80097F0FFFFE780808B2A87832784FDD8CFAC
:1022B800832784FDDC478A072322F4FE91A883271D
:1022C80084FD83D7870099E3B54761A8832784FDF8
:1022D800984F832784FE3E97832784FDD8CF032712
:1022E80004FE89476317F700832784FDDC478607C8
:1022F80031A8832784FDD847BA878607BA9713D7AA
:102308001700832784FDDC47858BBA972322F4FEC8
:10231800832784FD984B832744FE9387F71FA58363
:102328006374F700B54735A8832704FE13F7F70F42
:10233800832784FD2380E700B787008083D70701C0
:102348008507139707014183B78700802398E70023
:10235800B787008003D70701832784FD2393E7000D
:0C23680081473E85B640264461618280BA
:10237400797106D622D40018232EA4FC232CB4FC95
:10238400A5472326F4FE8327C4FDA9C78327C4FDDC
:102394009C43A9C38327C4FD9C4383C707009DCBEB
:1023A4008327C4FD03D747008327C4FD9C4383D7F9
:1023B40067006311F7028327C4FD9C4383C717009A
:1023C4003E8597E0FFFFE780603EAA87858B99E30F
:1023D400232604FE8327C4FE89E78327C4FD9C4388
:1023E40011A08147032784FD1CC38327C4FE3E85B7
:0823F400B250225445618280C1
:1023FC00797106D622D40018232EA4FC232CB4FC0D
:10240C00B287A30BF4FC832784FD2320F4FE9307EF
:10241C0004FE3E8597000000E78060802326A4FE22
:10242C008327C4FE63D40700AD478DA8B78700800F
:10243C000327C4FE0A079387C700BA979C4323243B
:10244C00F4FE832784FE89C7832784FE238007003C
:10245C008327C4FD89C78327C4FD23800700032776
:10246C00C4FDB78700808326C4FE8A069387C70005
:10247C00B69798C3834774FD99E3814705A013076A
:10248C00C4FD930784FD0146BA853E859700000084
:10249C00E78000A62322A4FE832744FE3E85B2508B
:0624AC002254456182800C
:1024B2001D7186CEA2CC80102326A4FA2324B4FA5E
:1024C200B287A303F4FA8327C4FA99E3A54709A2C2
:1024D200834774FA858BA303F4FA834674FA1307CD
:1024E20084FB930784FA3686BA853E8597000000FE
:1024F200E780A0A02326A4FE8327C4FEE9E3832766
:1025020084FB232EF4FA032784FA9307C4FBBA85CB
:102512003E8597F0FFFFE780E05D2326A4FE832738
:10252200C4FE95E3834774FEE207E18763D60700A2
:1025320099472326F4FE01A8834724FCC18B81C757
:1025420091472326F4FE8327C4FEB5EB832784FB41
:10255200032784FDBA853E8597F0FFFFE78020DCE4
:102562002A878327C4FA98C7832784FDF1073E850B
:1025720097E0FFFFE780E05E2A878327C4FAD8C787
:10258200032784FB8327C4FA98C3832784FB03D7DA
:1025920067008327C4FA2392E7008327C4FA03471C
:1025A20074FA2388E7008327C4FAA38807008327E5
:1025B200C4FA23AE07008327C4FA23AA070083279D
:1025C200C4FE89C78327C4FA23A007008327C4FE59
:0A25D2003E85F640664425618280D4
:1025DC005D7186C6A2C48008232EA4FA232CB4FAFB
:1025EC00232AC4FA2328D4FA832784FB232EF4FC51
:1025FC00832704FB23A007008327C4FB1307C4FC19
:10260C00BA853E8597000000E78040D62326A4FEBD
:10261C008327C4FE91EB8327C4FB83C717012326B2
:10262C00F4FE8327C4FE81C78327C4FEB5A4832789
:10263C00C4FB83C70701858B99E39D47B1AC832706
:10264C00C4FBD8478327C4FBDC4BB307F740232CD0
:10265C00F4FC032744FB832784FD63FAE7228327DA
:10266C0084FD232AF4FA25A48327C4FBDC4B93F7BF
:10267C00F71F639507188327C4FBDC4BA58303273F
:10268C00C4FC0357A7007D17F98F232AF4FC83277A
:10269C0044FDADE78327C4FBDC4B99E78327C4FBE0
:1026AC009C472324F4FE31A80327C4FB8327C4FBD7
:1026BC009C4FBE853A8597E0FFFFE780607E232420
:1026CC00A4FE032784FE854763E9E7008327C4FB48
:1026DC000947A388E7008947C1A2032784FEFD5759
:1026EC006319F7008327C4FB0547A388E7008547D8
:1026FC0065A28327C4FB032784FE98CF0327C4FC61
:10270C008327C4FB9C4FBE853A8597E0FFFFE7808B
:10271C0060732328A4FC832704FD81EB8327C4FB6F
:10272C000947A388E700894785AA032704FD832767
:10273C0044FDBA972328F4FC832744FBA58323206C
:10274C00F4FE832704FEADC7032744FD832704FE54
:10275C00BA970327C4FC0357A700637DF7008327B0
:10276C00C4FC83D7A7003E87832744FDB307F740FB
:10277C002320F4FE8327C4FC83C71700832604FEA2
:10278C00032604FD8325C4FD3E8597E0FFFFE7800B
:10279C00202AAA8781CB8327C4FB0547A388E7009F
:1027AC008547DDA8832704FEA6072322F4FE79A81B
:1027BC008327C4FBDC4F032704FD630CF70283273C
:1027CC00C4FC03C717008327C4FB93870702854605
:1027DC00032604FDBE853A8597E0FFFFE780402580
:1027EC00AA8781CB8327C4FB0547A388E7008547CD
:1027FC0065A08327C4FB032704FDD8CF8327C4FB24
:10280C00DC4B93F7F71F13070020B307F740232285
:10281C00F4FE032744FE832744FB63F6E70083277B
:10282C0044FB2322F4FE8327C4FB13870702832770
:10283C00C4FBDC4B93F7F71FBA97032644FEBE8507
:10284C000325C4FD97E0FFFFE7804037032744FBD7
:10285C00832744FEB307F740232AF4FA832704FBAB
:10286C009843832744FE3E97832704FB98C3032792
:10287C00C4FD832744FEBA97232EF4FC8327C4FBA4
:10288C00D84B832744FE3E978327C4FBD8CB8327A2
:10289C0044FBE39B07DC81473E85B64026446161DF
:0228AC00828028
:1028AE00797106D622D40018232EA4FC8327C4FDEA
:1028BE00130784FEBA853E8597000000E780E0AAE4
:1028CE002326A4FE8327C4FE89E78327C4FD23A005
:1028DE0007008327C4FE3E85B25022544561828094
:1028EE00797106D622D40018232EA4FC232CB4FC16
:1028FE008327C4FD99E3A547D1A8130784FE930748
:10290E0084FD0146BA853E8597F0FFFFE780205E85
:10291E002326A4FE8327C4FECDE3032784FE83274C
:10292E00C4FD98C3832784FDBE850325C4FD97F09F
:10293E00FFFFE780601B2326A4FE8327C4FEB5E7B6
:10294E008327C4FD83C7B702E207E18763CB070283
:10295E008327C4FD83C76700C18B8DC3032784FE05
:10296E008327C4FDDC4FBE853A8597F0FFFFE780D5
:10297E00409A2A878327C4FD98C721A0954723260E
:10298E00F4FE8327C4FE95E3832784FE03D76700F6
:10299E008327C4FD2392E70081450325C4FD97E0FC
:1029AE00FFFFE780606C2326A4FE0327C4FE914739
:1029BE006315F70095472326F4FE8327C4FE89C7C7
:1029CE008327C4FD23A007008327C4FE3E85B25093
:0629DE00225445618280D5
:1029E400797106D622D40018232EA4FC8327C4FDB3
:1029F400130784FEBA853E8597000000E780809720
:102A04002326A4FE8327C4FE89E78327C4FD23A0CD
:102A140007008327C4FE3E85B2502254456182805C
:102A2400797106D622D40018232EA4FC232CB4FCDE
:102A34008327C4FD130784FEBA853E8597000000F2
:102A4400E78040932326A4FE8327C4FEADEB8327AF
:102A540084FD99EB81450325C4FD97E0FFFFE780E2
:102A640040612326A4FEA1A881450325C4FD97F057
:102A7400FFFFE780A0902326A4FE0327C4FE91470E
:102A84006314F700232604FE8327C4FE8DEB8325FD
:102A940084FD0325C4FD97F0FFFFE780C0AC8145AA
:102AA4000325C4FD97E0FFFFE780A0722326A4FE60
:102AB4000327C4FE91476314F700232604FE8327EB
:0C2AC400C4FE3E85B25022544561828061
:102AD000797106D622D40018232EA4FC232CB4FC32
:102AE000832584FD0325C4FD97000000E780C0F323
:102AF0002326A4FE8327C4FE9DEB832784FD85CB7C
:102B0000832784FD83C797009DC38327C4FDD857BF
:102B1000832784FDA50781460146BE853A8597F047
:102B2000FFFFE78040C2AA8791E35DBF01008327D2
:0C2B3000C4FE3E85B250225445618280F4
:102B3C00797106D622D40018232EA4FC232CB4FCC5
:102B4C00232AC4FC2328D4FC8327C4FD032704FDBB
:102B5C00D8D7832544FD0325C4FD97000000E780EA
:102B6C0080D82326A4FE8327C4FE99EB832584FDFD
:102B7C000325C4FD97000000E78000F52326A4FE82
:0E2B8C008327C4FE3E85B250225445618280EC
:102B9A00011122CE00102326A4FE8327C4FE9C43E3
:102BAA003E85724405618280011122CE00102326DF
:102BBA00A4FE8327C4FE9C433E857244056182803D
:102BCA00011106CE22CC00102326A4FE8327C4FEC0
:102BDA0091073E8597000000E780C0FBAA87E18342
:0A2BEA003E85F240624405618280DE
:102BF400011106CE22CC00102326A4FE01000325D9
:102C0400C4FE97000000E78040FCAA87EDDB0325A3
:102C1400C4FE97000000E78040F8AA8793F7F70FF7
:0A2C24003E85F240624405618280A3
:102C2E00011106CE22CC00100100370501F09700ED
:102C3E000000E78080FBAA872326F4FE8327C4FECC
:0E2C4E0093F7F70F3E85F240624405618280E5
:102C5C00411106C622C40008370501F09700000098
:102C6C00E78020F6AA873E85B2402244410182804B
:102C7C00011106CE22CC0010AA87A307F4FE03474D
:102C8C00F4FEB5476316F700B787008023AA072820
:102C9C000347F4FEFD4763FCE700B787008083A77A
:102CAC00472913871700B787008023AAE728834793
:102CBC00F4FE3E8597200000E780E0160100F2400C
:062CCC00624405618280F4
:102CD200411106C622C40008354597000000E7806E
:102CE20000FA294597000000E78060F90100B24030
:062CF20022444101828032
:102CF800411106C622C40008214597000000E7805C
:102D0800A0F71305000297000000E780E0F62145D0
:102D180097000000E78040F60100B24022444101DC
:022D28008280A7
:102D2A00411106C622C4000897000000E78000FA95
:102D3A001305F00397000000E780E0F30100B240BA
:062D4A00224441018280D9
:102D5000011106CE22CC0010B78700803787008093
:102D60001307472423ACE700B787008083A78701B8
:102D70002326F4FE232404FE97000000E78060EB86
:102D8000AA87A303F4FE834774FE29476382E704FE
:102D900029476346F7002147638AE7009DA035472E
:102DA0006388E7026147638AE702A1A8832784FE5C
:102DB000E1C38327C4FEFD172326F4FE832784FE88
:102DC000FD172324F4FE97000000E78020F34DA0B8
:102DD0008327C4FE2380070071A8B78700809387EC
:102DE00047242326F4FE11A897000000E78000F195
:102DF000832784FEFD172324F4FE832784FEEDF74A
:102E00008DA8034774FEFD47E3F8E7F6834774FE99
:102E10002303F4FE97300000E78000372A878347BA
:102E200064FE8507BA9783C7070013F73700894701
:102E30006317F700834764FE138707FE19A0034753
:102E400064FE8327C4FE938617002326D4FE1377DF
:102E5000F70F2380E700832784FE85072324F4FEF1
:102E6000834774FE3E8597000000E78060E129B744
:0C2E7000010019B7F24062440561828045
:102E7C00011122CE0010AA87A307F4FE8347F4FEAB
:102E8C00938707FDA307F4FE0347F4FEA54763E50C
:102E9C00E7008347F4FE25A08347F4FEE517A3075C
:102EAC00F4FE0347F4FEA54763FAE7000347F4FE7C
:102EBC00BD4763E5E7008347F4FE11A0FD573E854F
:062ECC00724405618280E2
:102ED200011106CE22CC0010232604FE25A0832752
:102EE200C4FE13974700832784FEBA972326F4FE75
:102EF200B787008083A7870113871700B7870080F1
:102F020023ACE700B787008083A7870183C7070048
:102F12003E8597000000E78080F62324A4FE032765
:102F220084FEFD57E31DF7FA8327C4FE3E85F24077
:062F32006244056182808B
:102F3800411106C622C40008B787008083A787010D
:102F480083C707003E8597000000E780E0F22A87E4
:102F5800FD576314F700814731A097000000E78010
:0E2F680000F7AA873E85B240224441018280D4
:102F7600011106CE22CC00102326A4FEB7870080BE
:102F860083A7870183C7070089C71307C002639514
:102F9600E7008327C4FE31A097000000E780A0F970
:0C2FA600AA873E85F240624405618280EB
:102FB200011106CE22CC00102326A4FE0327C4FE54
:102FC200A54763EBE7008327C4FE93F7F70F9387C8
:102FD200070393F7F70F09A88327C4FE93F7F70FA8
:102FE2009387770393F7F70F3E8597000000E780FA
:0C2FF20000C90100F240624405618280C9
:102FFE00011106CE22CC00102326A4FE8327C4FE88
:10300E009183BD8B3E8597000000E780E0F9832712
:10301E00C4FEBD8B3E8597000000E780E0F80100FE
:08302E00F2406244056182805A
:10303600011106CE22CC00102326A4FE8327C4FE4F
:10304600E1833E8597000000E78040FB8327C4FEAE
:10305600C18393F7F70F3E8597000000E78000FADB
:103066008327C4FEA18393F7F70F3E8597000000E0
:10307600E780C0F88327C4FE93F7F70F3E859700D5
:103086000000E780A0F70100F240624405618280FB
:10309600797106D622D40018B787008083A78729BE
:1030A6003E8597000000E780E0ECAA872322F4FE25
:1030B600832744FEF18381EB032744FEB707008094
:1030C600BA972322F4FEB787008083A7870183C7B8
:1030D60007008DC3B787008083A7870193861700F3
:1030E60037870080232CD70003C707009307C00249
:1030F600631DF716832744FE9387F7073E859700DF
:103106000000E78020E7AA872320F4FE832704FE39
:10311600F18381EB032704FEB7070080BA972320CB
:10312600F4FEB787008083A7870183C707006390F3
:103136000714832744FE2326F4FE29A297000000E5
:10314600E780A0B1AA8791C797000000E78000AE8C
:1031560005A297000000E780A0B78327C4FE3E853E
:1031660097000000E78000ED1305A003970000001C
:10317600E780A0B01305000297000000E780E0AFEB
:103186008327C4FE2324F4FEC147232EF4FC8327A1
:1031960084FE138717002324E4FE83C707003E85B9
:1031A60097000000E78080E5130500029700000005
:1031B600E780A0AC8327C4FDFD17232EF4FC8327EC
:1031C600C4FDF1F71305000297000000E780E0AAAE
:1031D6001305000297000000E78020AA8327C4FE9B
:1031E6002324F4FEC147232EF4FC832784FE03C761
:1031F6000700FD4763FFE700832784FE03C7070038
:103206009307E00763E7E700832784FE83C7070089
:1032160019A09307E0023E8597000000E780E0A52D
:10322600832784FE85072324F4FE8327C4FDFD1728
:10323600232EF4FC8327C4FDCDFB8327C4FEC107E0
:103246002326F4FE032744FE8327C4FE63E8E70033
:103256000327C4FE832704FEE3F2E7EEB787008068
:103266000327C4FE23ACE72821A0010011A001001A
:08327600B25022544561828030
:10327E00011106CE22CC0010B787008083A78729C4
:10328E003E8597000000E78060CEAA872326F4FED5
:10329E008327C4FEF18381EB0327C4FEB7070080AA
:1032AE00BA972326F4FEB787008083A7870183C7CA
:1032BE000700C5EF97000000E78000A18327C4FE3A
:1032CE003E8597000000E78060D613050002970048
:1032DE000000E780009A1305000297000000E780C7
:1032EE0040998327C4FE83C707003E8597000000E0
:1032FE00E78040D01305000297000000E78060973A
:10330E0097000000E78020A4B787008083C747247A
:10331E001307E002638DE7041307E0056384E700FB
:10332E0081CB29A88327C4FEFD172326F4FE2DA8E2
:10333E008327C4FE85072326F4FE3DA097000000D8
:10334E00E780E0BEAA868327C4FE138717002326D4
:10335E00E4FE13F7F60F2380E700B787008083A7FC
:10336E00870183C7070091E7B1B7010021A00100D3
:0C337E0011A00100F24062440561828051
:10338A00011106CE22CC001097000000E78060BA37
:10339A00AA872326F4FEB787008083A7870193862E
:1033AA00170037870080232CD70003C7070093072D
:1033BA00C0026314F70897000000E78080B7AA8765
:1033CA002322F4FEB787008083A78701938617001C
:1033DA0037870080232CD70003C707009307C00252
:1033EA00631FF70497000000E780A0B4AA87A3012F
:1033FA00F4FEB787008083A7870183C70700B1E37C
:10340A00032744FE8327C4FEB307F7408507232416
:10341A00F4FE05A08327C4FE138717002326E4FEC3
:10342A00034734FE2380E700832784FEFD17232405
:10343A00F4FE832784FEF9FF31A0010021A00100D8
:0C344A0011A00100F24062440561828084
:10345600011106CE22CC001097F0FFFFE780007D19
:10346600AA873E8597000000E78020A1AA87A307C8
:10347600F4FE0347F4FEBD4763F4E700814719A055
:0E3486008347F4FE3E85F24062440561828079
:10349400011106CE22CC26CA001097000000E78056
:1034A40080FBAA87A307F4FE8347F4FE920793F4F4
:1034B400F70F97000000E78000FAAA87A697A307F2
:1034C400F4FEB787008003C7C7298347F4FEBA9781
:1034D40013F7F70FB7870080238EE7288347F4FE9E
:0C34E4003E85F2406244D24405618280C3
:1034F000011106CE22CC26CA001097000000E780FA
:10350000A0F9AA87A307F4FE8347F4FE93948700EB
:1035100097000000E78040F8AA87C58F3E85F240FB
:083520006244D244056182807F
:10352800011106CE22CC26CA0010B7070080232638
:10353800F4FE010097F0FFFFE780206FAA873E871F
:103548009307A003E318F7FEB7870080238E0728A8
:1035580097000000E780C0F3AA872324F4FE83279E
:1035680084FE6384071097000000E78020F8AA878C
:103578002322F4FE97000000E78080F1AA87232029
:10358800F4FE832704FED1C3032704FE9147631F7B
:10359800F70097000000E78060F5AA87C207232696
:1035A800F4FE97000000E780A0EE7DA8032704FE44
:1035B8009547631EF70A97000000E78020F3AA8763
:1035C800C2072326F4FE97000000E78020F22A872E
:1035D8008327C4FED98F2326F4FE97000000E780D6
:1035E80020EBB77700800327C4FE23AEE7EAB7775E
:1035F800008083A7C7EBBE85B76700801385872740
:1036080097100000E78060DE85A0032744FE83272B
:10361800C4FEB304F70097000000E78060E7AA87BC
:103628002380F400832744FE85072322F4FE8327A2
:1036380084FEFD172324F4FE832784FEF9F7970000
:103648000000E780E0E4B787008083C7C729E382EA
:1036580007EE97F0FFFFE78080671305F00397F008
:10366800FFFFE780606129A0E9B5010011A0010012
:0A367800F2406244D24405618280F2
:10368200011106CE22CC0010B787008083A78701E4
:103692009386170037870080232CD70083C7070043
:1036A2003E8597F0FFFFE780807DAA87A307F4FE9F
:1036B2000347F4FEBD4763F4E700A30704FE834714
:0C36C200F4FE3E85F24062440561828007
:1036CE00011106CE22CC26CA001097000000E7801A
:1036DE00A0FAAA87A307F4FE8347F4FE920793F499
:1036EE00F70F97000000E78020F9AA87A697A30797
:1036FE00F4FEB787008003C7C7298347F4FEBA9745
:10370E0013F7F70FB7870080238EE7288347F4FE61
:0C371E003E85F2406244D2440561828086
:10372A00011106CE22CC26CA001097000000E780BD
:10373A00A0F9AA87A307F4FE8347F4FE93948700AF
:10374A0097000000E78040F8AA87C58F3E85F240BF
:08375A006244D2440561828043
:103762001D7186CEA2CC801097F0FFFFE7808056B5
:103772000146B767008093850729B78700801385C4
:10378200C70197F0FFFFE78080C7930544FA13074C
:10379200C4FBB767008093864729B767008013860A
:1037A20007293A8597F0FFFFE78060392326A4FEB8
:1037B20091A88347C4FAC18B91CF930744FAA50716
:1037C200BE85B76700801385872997100000E780C0
:1037D20020C229A8930744FAA507BE85B7670080CF
:1037E2001385472A97100000E78080C0130744FA28
:1037F2009307C4FBBA853E8597F0FFFFE780602DF3
:103802002326A4FE8327C4FE81E78347D4FAD5F397
:103812009307C4FB3E8597F0FFFFE780C01C0100C1
:08382200F64066442561828036
:10382A00130101DA232E1124232C8124232A912423
:10383A008014B70700802324F4FE97F0FFFFE78087
:10384A00E0480146B767008093850729B78700805B
:10385A001385C70197F0FFFFE780E0B9130784DA01
:10386A000546B7870080938557243A8597F0FFFF6E
:10387A00E780C0C3232AA4FC832744FD91CFB787DE
:10388A00008093855724B76700801385072B97100C
:10389A000000E78060B5C9A4232004FEB787008032
:1038AA00378700801307472423ACE700B7870080D7
:1038BA0083A787012328F4FC130744DA930784DAE1
:1038CA00BA860546832504FD3E8597F0FFFFE7800B
:1038DA0080D0032744DA85476319F71E832704FD3E
:1038EA0003C707009307A003630BF700832704FDB0
:1038FA0003C707009307000263E5E70075BF0100ED
:10390A0011A00100B787008037870080130747247A
:10391A0023ACE700B787008083A787012328F4FC3C
:10392A00130744DA930784DABA860946832504FD25
:10393A003E8597F0FFFFE78000CA032744DA8947EC
:10394A006317F718B7870080238E072897000000AF
:10395A00E78080D7AA872326F4FE8327C4FE638ADA
:10396A0007160327C4FE9307800263E4E716B787A6
:10397A000080378700801307472423ACE700B78706
:10398A00008083A787012328F4FC8327C4FE9107BC
:10399A0013971700930644DA930784DA3A86832545
:1039AA0004FD3E8597F0FFFFE780E0C28327C4FE4F
:1039BA00910713971700832744DA631EF7109700BD
:1039CA000000E78020D6AA872322F4FE9700000091
:1039DA00E78080CFAA872326F4FC8327C4FCD1C3BF
:1039EA000327C4FC9147631FF70097000000E78094
:1039FA0060D3AA87C2072324F4FE97000000E78059
:103A0A00A0CCD9A00327C4FC95476318F70C9700EC
:103A1A000000E78020D1AA87C2072324F4FE97007A
:103A2A000000E78020D02A87832784FED98F2324A9
:103A3A00F4FE97000000E78020C9B77700800327CB
:103A4A0084FE23AEE7EAB777008083A7C7EBBE857B
:103A5A00B76700801385472C97100000E780C0984D
:103A6A00A5A0032704FE8327C4FEBA972320F4FEE9
:103A7A00832744FE138717002322E4FE032784FECC
:103A8A00B384E70097000000E78000C4AA87238078
:103A9A00F4008327C4FEFD172326F4FE8327C4FE01
:103AAA00E1FB97000000E78020C2B787008083C748
:103ABA00C729E38507DEB76700801385872D97102E
:103ACA000000E780609219A8D1BB010001A801009B
:103ADA0031A0010021A0010011A00100930784DA9E
:103AEA003E8597F0FFFFE78020DC832504FEB76759
:103AFA0000801385872E97100000E780E08E232C24
:103B0A0004FCB777008083A7C7EB2324F4FC232E99
:103B1A0004FC1DA08327C4FD032784FCBA9783C72E
:103B2A0007003E87832784FDBA97232CF4FC83275A
:103B3A00C4FD8507232EF4FC8327C4FD032704FE56
:103B4A00E3EAE7FC832584FDB76700801385872FA6
:103B5A0097100000E78040898320C125032481252E
:0A3B6A008324412513010126828007
:103B7400411106C622C40008B777008083A707EC6A
:103B84003E8597100000E78080860100B240224401
:043B940041018280E9
:103B9800411106C622C40008B777008083A7C7EB87
:0C3BA80082970100B2402244410182805B
:103BB400011106CE22CC0010B76700801385073CA4
:103BC40097100000E780A082B76700801385C73D87
:103BD40097100000E780A08197F0FFFFE78040176F
:103BE400B787008083C74724A9CFB787008037876A
:103BF40000801307572423ACE700B777008093872E
:103C0400878D2326F4FE31A8B787008083C7472415
:103C14000347B4FE6301F7028327C4FEA1072326EA
:103C2400F4FE8327C4FE83C70700A305F4FE83477D
:103C3400B4FEF9FB11A001008327C4FEDC43829784
:063C440061B7010051B759
:103C4A00011106CE22CC26CA0010B777008003A73E
:103C5A00078CB787008023A8E72AB777008003A7D5
:103C6A00478CB787008023ACE72AB70705F093870C
:103C7A00C70A9C432324F4FEB70705F09387470A33
:103C8A009C432322F4FEB70705F09387870A9C43D7
:103C9A002320F4FE232604FE032784FE93078007CD
:103CAA0063F1E710032744FE9307000B63FBE70E5B
:103CBA00032744FE85679387F7F363E4E70E032738
:103CCA0004FE9307001563FEE70C032704FE8567CD
:103CDA00938737F663E7E70C832744FE938707F554
:103CEA003E8597200000E7800035B767008003A66D
:103CFA00874783A6C74797200000E78000B6AA87B0
:103D0A002E883E85C285B767008003A6074883A62A
:103D1A00474897100000E7800024AA872E88BE86AD
:103D2A004287B70705F0938407013685BA8597203D
:103D3A000000E780C028AA879CC0832704FE9387D7
:103D4A0007EB3E8597200000E780E02EB7670080EA
:103D5A0003A6874883A6C74897200000E780E0AFFC
:103D6A00AA872E883E85C285B767008003A60749C1
:103D7A0083A6474997100000E780E01DAA872E888E
:103D8A00BE864287B70705F0938487013685BA85D0
:103D9A0097200000E780A022AA879CC08547232697
:103DAA00F4FEB70705F0938707020327C4FE98C3FA
:103DBA00B70705F09387070A23A00700B787008093
:103DCA0083A7070013871700B787008023A0E7009F
:103DDA00B70702F0C1079843B787008023A2E72CF0
:103DEA00B70702F0C107378700800327472C98C31B
:0C3DFA000100F2406244D2440561828066
:103E0600797106D622D40018232EA4FC232CB4FCE8
:103E1600232AC4FC232604FEB78700800327C4FD9B
:103E260023AAE72AB7870080032784FD23A4E72A6D
:103E3600B7870080032744FD23A6E72AB7770080CB
:103E460003A7078CB787008023AEE72AB7770080E1
:103E560003A7478CB787008023A0E72CB78700808D
:103E660083A7470013871700B787008023A2E700C0
:103E76000327C4FD8567938707FA6319F700B78799
:103E8600008083A7472A2326F4FE2DA0B78700804B
:103E960083A7072CBE85B7670080138587469700E2
:103EA6000000E780A054B7C7ADDE9387F7EE232660
:103EB600F4FE01008327C4FE3E85B25022544561BC
:023EC6008280F8
:103EC800011106CE22CC0010AA87A307F4FE0347EF
:103ED800F4FEA9476317F700354597000000E7800F
:103EE80060FEB787008083A7470185C3B787008036
:103EF80083A747019386170037870080232AD700B6
:103F08000347F4FE2380E70031A8B787008083A722
:103F1800872C89CBB787008003A7872C8347F4FEBB
:0C3F28003E850297F240624405618280F1
:103F3400011106CE22CC00102326A4FE31A883272B
:103F4400C4FE138717002326E4FE83C707003E85BB
:103F540097000000E78040F78327C4FE83C707006B
:0C3F6400F9FF0100F24062440561828018
:103F7000597186D6A2D48018232EA4F8232CB4F825
:103F80008327C4F913871700232EE4F883C707009B
:103F9000A30BF4FC834774FD63830744034774FD5C
:103FA00093075002630AF700834774FD3E8597002C
:103FB0000000E780A0F11DA1232004FE832704FE5A
:103FC000232EF4FC8327C4F913871700232EE4F86B
:103FD00083C70700A30BF4FC034774FD930700039A
:103FE0006310F7028547232EF4FC8327C4F9138757
:103FF0001700232EE4F883C70700A30BF4FC25A0C9
:10400000034774FD9307D002631FF7008947232EEF
:10401000F4FC8327C4F913871700232EE4F883C721
:104020000700A30BF4FC034774FD9307A002631F72
:10403000F706832784F913874700232CE4F89C4371
:10404000232CF4FC832784FD63DB0700832784FD96
:10405000B307F040232CF4FC8947232EF4FC83277C
:1040600084FD2320F4FE8327C4F913871700232E31
:10407000E4F883C70700A30BF4FCA9A0032704FE00
:10408000BA878A07BA9786073E87834774FDBA972F
:10409000938707FD2320F4FE8327C4F913871700B5
:1040A000232EE4F883C70700A30BF4FC034774FD39
:1040B0009307F00263F8E700034774FD930790034A
:1040C000E3FEE7FA034774FD9307C0066308F700B1
:1040D000034774FD9307C0046312F7028327C4FDEE
:1040E00093E74700232EF4FC8327C4F913871700B6
:1040F000232EE4F883C70700A30BF4FC834774FD69
:104100006381072E834774FD230BF4FC034764FD92
:104110009307000663F7E700834764FD8117230BCD
:10412000F4FC834764FD9387E7FB59476360F70E10
:1041300013972700B767008093878749BA979C43F6
:104140008287832784F913874700232CE4F89C4354
:104150002324F4FC232204FE31A0832744FE850798
:104160002322F4FE032784FC832744FEBA9783C7E7
:104170000700E5F739A01305000297000000E7806B
:10418000E0D48327C4FD898B99EB832744FE1387F2
:1041900017002322E4FE032704FEE3EEE7FC0325D9
:1041A00084FC97000000E78020D939A013050002A5
:1041B00097000000E78080D1832744FE1387170013
:1041C0002322E4FE032704FEE3E2E7FE01AC83279B
:1041D00084F913874700232CE4F89C4393F7F70FE7
:1041E0003E8597000000E78060CECDAA8947232650
:1041F000F4FE2DA0A1472326F4FE0DA0A9472326F7
:10420000F4FE29A8C1472326F4FE09A8834774FDBC
:104210003E8597000000E78060CBC9A28327C4FDDC
:10422000918B99CB832784F913874700232CE4F8DB
:104230009C432328F4FC05A8034764FD930740042E
:10424000631AF700832784F913874700232CE4F8C7
:104250009C4301A8832784F913874700232CE4F8A3
:104260009C432328F4FC034764FD93074004631236
:10427000F702832704FD63DE0700832704FDB307ED
:10428000F0402328F4FC8327C4FD93E70701232E85
:10429000F4FC232404FE832704FD2326F4FC832757
:1042A000C4FC8325C4FE3E8597C0FFFFE78000FB6A
:1042B000AA87230BF4FC8325C4FE0325C4FC97C006
:1042C000FFFFE78020F5AA872326F4FC034764FD5F
:1042D000A54763F1E702034774FD93078007631561
:1042E000F7009307700211A09D47034764FDBA973A
:1042F000230BF4FC832784FE138717002324E4FE9A
:10430000034764FD130707031377F70F930604FFB2
:10431000B697238CE7FA8327C4FC91C7032784FE52
:10432000FD47E3FEE7F68327C4FDC18B91CF8327CA
:1043300084FE138717002324E4FE130704FFBA97B3
:104340001307D002238CE7FA832784FE2322F4FE8E
:104350008327C4FD858B81C79307000319A09307AA
:104360000002230BF4FC01A8834764FD3E859700FF
:104370000000E780A0B58327C4FD898B99EB8327D4
:1043800044FE138717002322E4FE032704FEE3ED17
:10439000E7FC832784FEFD172324F4FE832784FE95
:1043A000130704FFBA9783C787FB3E859700000079
:1043B000E780C0B1832784FEE9FF39A0130500021E
:1043C00097000000E78080B0832744FE1387170022
:1043D0002322E4FE032704FEE3E2E7FE55B60100D4
:0E43E00011A001000100B650265465618280D4
:1043EE005D7106D622D40018232EA4FC4CC010C436
:1043FE0054C418C85CC8232C0401232E140193073F
:10440E00040291172326F4FE8327C4FEBE850325DE
:10441E00C4FD97000000E78000B50100B2502254A1
:04442E0061618280C6
:10443200011122CE00102326A4FE2324B4FE8327DA
:1044420084FE0327C4FE98C3010072440561828082
:10445200011122CE00102326A4FE2324B4FE8327BA
:10446200C4FE032784FE98C3010072440561828062
:10447200011106CE22CC00102326A4FE8327C4FEFF
:1044820091073E8597E0FFFFE780C072AA87C1834C
:0E44920093F7F70F3E85F24062440561828089
:1044A000011106CE22CC00102326A4FEAE87A30560
:1044B000F4FE01000325C4FE97000000E780A0FB86
:1044C000AA87EDDB8347B4FE8325C4FE3E859700B3
:1044D0000000E78040F60100F240624405618280FE
:1044E000011106CE22CC00102326A4FE2324B4FE04
:1044F00005A0832784FE138717002324E4FE83C7C7
:104500000700BE850325C4FE97000000E78080F900
:10451000832784FE83C70700E9FF0100F24062445D
:04452000056182802F
:10452400011106CE22CC00102326A4FE0327C4FECC
:10453400B167E117BA973E8597E0FFFFE7806067B0
:0C454400AA873E85F24062440561828037
:10455000797106D622D426D20018232EA4FC232C4F
:10456000B4FC232AC4FC032784FDB7470F009385BE
:1045700007243A8597C0FFFFE780C0C9AA87232692
:10458000F4FE032544FD97000000E780E0F9AA84CB
:104590008325C4FE0325C4FD97C0FFFFE780C0C488
:1045A000AA87A6972324F4FE0100032544FD970063
:1045B0000000E78060F72A87832784FE998FE3D67F
:0E45C00007FE0100B2502254925445618280E1
:1045CE00011106CE22CC00102326A4FE2324B4FE15
:1045DE008327C4FE9107BE85032584FE9700000045
:0E45EE00E78080E40100F240624405618280B3
:1045FC00011106CE22CC00102326A4FE2324B4FEE7
:10460C008327C4FEA107BE85032584FE9700000006
:0E461C00E780A0E10100F24062440561828067
:10462A00797106D622D400182326A4FE2324B4FEC8
:10463A002322C4FE2320D4FE232EE4FC032744FEB7
:10464A00832704FEBA97FD17832504FE3E8597C08B
:10465A00FFFFE78000BBAA873E878327C4FE3E97F9
:10466A00832784FE1D8F8327C4FDBA97FD178325F0
:10467A00C4FD3E8597C0FFFFE780A0B8AA873E85A4
:08468A00B25022544561828008
:10469200011122CE00102326A4FE8327C4FE63D379
:0C46A200070081473E857244056182805C
:1046AE00011106CE22CC00102326A4FE3706B0F050
:1046BE00B7F7FA02938507080325C4FE970000009A
:0E46CE00E78060E80100F240624405618280EE
:1046DC00011106CE22CC00102326A4FE2324B4FE06
:1046EC002322C4FE2320D4FE8327C4FE9387C71045
:1046FC00832544FE3E8597000000E78000D5832784
:10470C00C4FE93878710832504FE3E859700000026
:10471C00E780A0D38327C4FE93874710832584FEAC
:10472C003E8597000000E78040D28327C4FE938724
:10473C00071081453E8597000000E78000D10545B4
:10474C0097000000E78020F60100F240624405610A
:02475C00828059
:10475E00357106CF22CD26CB4AC94EC752C50011A0
:10476E00232EA4F6232CB4F6232AC4F6B6842328CB
:10477E00E4F62326F4F6232404F7032784F783278D
:10478E00C4F6BA97FD178325C4F63E8597C0FFFF82
:10479E00E78060A7AA872328F4FC8325C4F60325A7
:1047AE0004FD97C0FFFFE78040A3AA873E878327BB
:1047BE0084F7B307F7402326F4FC032744F7832737
:1047CE00C4F6BA97FD178325C4F63E8597C0FFFF42
:1047DE00E78060A3AA872324F4FC8325C4F603256F
:1047EE0084FC97C0FFFFE780409FAA873E87832700
:1047FE0044F7B307F7402322F4FC232004FC232EB6
:10480E0004FA8325C4F6032504F797C0FFFFE7805B
:10481E00C09CAA87232CF4FA232E04FC232C04FC20
:10482E008547232AF4FA9C4009476364F70091EB0D
:10483E0029A00D47638BE70005A08547232CF4FCC8
:10484E0021A88947232CF4FC01A89147232EF4FCC0
:10485E008947232CF4FC01008325C4F6032584F636
:10486E0097C0FFFFE7806097AA872328F4FADC50F1
:10487E003E86832784F60327C4F6BE86814501450E
:10488E0097000000E780C0D92326A4FA832704FCF2
:10489E008325C4FB98443A86832684F60327C4F600
:1048AE003E8597000000E780A0D72324A4FA832733
:1048BE00C4FB832504FCD8443A86832684F603275A
:1048CE00C4F63E8597000000E78080D52322A4FA27
:1048DE00832704FC832504FCD8403A86832684F67D
:1048EE000327C4F63E8597000000E78060D323209F
:1048FE00A4FA032904FC832904FC832584F60325EA
:10490E00C4FD97C0FFFFE780408DAA87985063F3E0
:10491E00E700BA873E86832784F60327C4F6BE8651
:10492E00CE854A8597000000E78080CF232EA4F81D
:10493E00032504FC032744FC8327C4FC6373F700A0
:10494E00BA87BE859C483E86832784F60327C4F625
:10495E00BE8697000000E780A0CC232CA4F8032984
:10496E00C4FC832944FC032784F7832784FB3E97EA
:10497E00832784FD3E97832744F7B307F7408325AB
:10498E0084F63E8597C0FFFFE7802085AA873E8686
:10499E00832784F60327C4F6BE86CE854A85970004
:1049AE000000E780E0C7232AA4F80329C4FC83296A
:1049BE00C4FB832584F6032584FB97C0FFFFE780A5
:1049CE00C081AA87D84C63F3E700BA873E86832757
:1049DE0084F60327C4F6BE86CE854A85970000006E
:1049EE00E78000C42328A4F8832944FC032AC4FCCE
:1049FE00832584F6032584FB97B0FFFFE780E07DD7
:104A0E00AA873E87DC483A896373F9003E890327FB
:104A1E0044F7832784FBBA97832584F63E8597B0A7
:104A2E00FFFFE780807BAA87CA973E86832784F69E
:104A3E000327C4F6BE86D2854E8597000000E78018
:104A4E0020BE2326A4F8832944FC032AC4FB03A911
:104A5E008401032744F7832784FB3E97832744FB77
:104A6E00BA97FD17832584F63E8597B0FFFFE78042
:104A7E00C076AA87CA973E86832784F60327C4F694
:104A8E00BE86D2854E8597000000E78060B923244C
:104A9E00A4F8832704FC832504FC98543A868326C5
:104AAE0084F60327C4F63E8597000000E78040B7E2
:104ABE002322A4F88327C4FB13978701832704FCC2
:104ACE00C2075D8F8327C4FCA2075D8F832744FC3A
:104ADE005D8F8327C4F79107BE853A859700000046
:104AEE00E78080948327C4F7A107BE850145970010
:104AFE000000E78060938325C4F709459700000006
:104B0E00E78080928327C4FAFD173E878327C4F778
:104B1E00C107BE853A8597000000E780E0908327A5
:104B2E00C4F9F9173E8597000000E780E0B5AA8723
:104B3E0093948701832704FAF9173E8597000000A6
:104B4E00E78080B4AA87C207DD8C832744FAF91761
:104B5E003E8597000000E78020B3AA87A207DD8C70
:104B6E00832784FAF9173E8597000000E780C0B1CD
:104B7E00AA8733E7F4008327C4F793870702BE851D
:104B8E003A8597000000E780208A832784F9F91779
:104B9E003E8597000000E78020AF2A878327C4F761
:104BAE0093874702BE853A8597000000E780C0874D
:104BBE00832784F8F9173E8597000000E780C0AC84
:104BCE00AA87939487018327C4F8F9173E85970027
:104BDE000000E78060ABAA87C207DD8C832704F94B
:104BEE00F9173E8597000000E78000AAAA87A20762
:104BFE00DD8C832744F9F9173E8597000000E78086
:104C0E00A0A8AA8733E7F4008327C4F79387870207
:104C1E00BE853A8597000000E7800081832744F81F
:104C2E00FD173E8597000000E78000A62A878327A0
:104C3E00C4F793870703BE853A8597F0FFFFE78099
:104C4E00A07E832744FC99078325C4F63E8597B042
:104C5E00FFFFE780C05FAA873E878547B397E700CF
:104C6E00FD17232AF4FC832744FD89EB8327C4F622
:104C7E000547B317F700FD17232AF4FC032744FC5E
:104C8E008327C4F6BA9795078325C4F63E8597B059
:104C9E00FFFFE7804057AA87FD172320F4F88327EC
:104CAE0044FD13978700832704F8D98F3E87832707
:104CBE00C4F793874703BE853A8597F0FFFFE780D9
:104CCE00A0760100FA406A44DA444A49BA492A4AAF
:044CDE000D61828062
:104CE200797106D622D40018232EA4FC232CB4FCFE
:104CF200232AC4FC2328D4FC832504FD032544FD78
:104D020097B0FFFFE780204EAA872324F4FE0327F3
:104D120084FE8947630BF702032784FE894763E811
:104D2200E700032784FE8547630EF7001DA80327CB
:104D320084FE9147630FF700032784FEA147630EA9
:104D4200F70005A0232604FE29A885472326F4FEA2
:104D520009A889472326F4FE29A08D472326F4FEBD
:104D62000100832784FD1387F7FF8327C4FDB10762
:104D7200BE853A8597F0FFFFE780C06B8327C4FDAD
:104D820093870711BE85014597F0FFFFE780806A90
:104D92001305400697000000E78080918327C4FD39
:104DA20093870711BE85094597F0FFFFE78080686A
:104DB2001305400697000000E780808F93060040AD
:104DC2000146A1450325C4FD97000000E78020911C
:104DD20081460146C1450325C4FD97000000E780D6
:104DE200009081460146C1450325C4FD970000009D
:104DF200E780E08E832784FD139747008327C4FE54
:104E0200D98FBE86014681450325C4FD9700000067
:104E1200E780E08C8325C4FD054597F0FFFFE7801E
:0C4E220060610100B250225445618280A2
:104E2E00011106CE22CC0010AA87A307F4FE8347F9
:104E3E00F4FEBE85370501F097F0FFFFE780A06511
:0A4E4E000100F24062440561828019
:104E5800397106DE22DC80008545370500F097F0C1
:104E6800FFFFE78060798145370500F097F0FFFF85
:104E7800E780A075B76700809385C75E370501F0A6
:104E880097F0FFFFE7808065B767008083AEC7565D
:104E98001387C756032E47001387C7560323870077
:104EA8001387C7568328C7001387C75603280701E7
:104EB8001387C756484B1387C7560C4F1387C756D7
:104EC800504F1387C75614531387C75658539387A1
:104ED800C7569C572320D4FD2322C4FD232464FCF9
:104EE800232614FD232804FD232AA4FC232CB4FC28
:104EF800232EC4FC2320D4FE2322E4FE2324F4FE24
:104F0800930604FC9567138807E28947054701461D
:104F18008D45370510F097000000E780008489462A
:104F280005468D45370510F097000000E78020DB27
:104F3800B7870080375700801307E7E223A4E72CE0
:104F480097F0FFFFE780C0C681473E85F250625464
:044F580021618280D1
:104F5C00130101FB13D7450123248104232291045F
:104F6C00232A51031394C500232611042320210561
:104F7C00232E3103232C41032328610323267103A1
:104F8C0023248103232291032320A103232EB10187
:104F9C001377F77F930405001354C40093DAF501DB
:104FAC00630607189307F07F6302F71E135BD501A6
:104FBC001314340033648B00370B8000336B6401A3
:104FCC00931B3500130917C013040000130C0000C9
:104FDC0013D746019399C6001377F77F1308060081
:104FEC0093D9C90013DAF6016308070E9307F07F13
:104FFC006308F7049354D60193993900B3E934014B
:10500C00130717C0B707800013183600B3E4F90074
:10501C003309E940130600009307F000B3C94A01B5
:10502C0063EC8726971700009387C75E1314240040
:10503C003304F400032704003307F700670007006C
:10504C00B3E4C90013091980639E04181364240087
:10505C0013080000130620006FF01FFC1306F07FEE
:10506C0093070000130700009397C7008320C10427
:10507C00032481041316460193D7C7009399F901B1
:10508C00B3E7C700B3E737018324410403290104C4
:10509C008329C103032A8103832A4103032B0103C0
:1050AC00832BC102032C8102832C4102032D0102AC
:1050BC00832DC1011305070093850700130101051A
:1050CC0067800000930900001306F07FB707080003
:1050DC00130700006FF05FF9B3E4C900638C040E92
:1050EC0063820954138509002324C1009710000022
:1050FC00E78080FF0326810093060500930455FF8B
:10510C009307D001138786FFB3879740B399E900C3
:10511C00B357F600B3E437013318E60033872601A2
:10512C001309373F130600006FF01FEF336BA40019
:10513C0063080B082326D1002324C100630C044A06
:10514C001305040097100000E78000FA0326810085
:10515C008326C10013090500130755FF130BD0015B
:10516C00930B89FF330BEB403314740133DB640175
:10517C00336B8B00B39B74011307D0C033092741E9
:10518C0013040000130C00006FF09FE4336BA400B9
:10519C00631C0B0013048000930B00001309F07FB9
:1051AC00130C20006FF0DFE2130B0400930B0500CF
:1051BC001304C0001309F07F130C30006FF05FE193
:1051CC0013044000930B000013090000130C100093
:1051DC006FF01FE013641400130800001306100096
:1051EC006FF09FE3136434009384090013063000BE
:1051FC006FF09FE26302045093071000B38787405F
:10520C00130780036352F756130600009307000040
:10521C00130700006FF05FE593060A009307200068
:10522C006308F66093073000E30EF6E8930710006E
:10523C0093890600E30AF6FC1304F93FE35C80FA59
:10524C0093777800639C0746135838009397740043
:10525C0063DA0700B70700FF9387F7FFB3F4F40096
:10526C00130409409307E07FE3CA87DE1397D40148
:10527C00939794003367070193D7C7001376F47F95
:10528C006FF09FDE93860A0093040B0013880B00CB
:10529C0013060C006FF09FF863E8643F63049B3EB9
:1052AC001309F9FF138A0B00930D000093978400E8
:1052BC00135D8801336DFD00935A0D0193850A002F
:1052CC00931C0D0113050B00131C880093DC0C01BF
:1052DC0097B0FFFFE78040F39305050093040500AA
:1052EC0013850C0097B0FFFFE78040EF930B050090
:1052FC0093850A0013050B0097B0FFFFE78040F57C
:10530C001315050113570A013365A700637E750158
:10531C003305A5019387F4FF6364A5456372754556
:10532C009384E4FF3305A5013304754193850A008A
:10533C001305040097B0FFFFE78000ED930505000F
:10534C00130B050013850C0097B0FFFFE78000E9F5
:10535C00930B050093850A001305040097B0FFFF1B
:10536C00E78000EF131A0A0113150501135A0A01FD
:10537C003365AA00637E75013305A5019307FBFF16
:10538C00636CA53D637A753D130BEBFF3305A501EB
:10539C00370E010093940401B3E46401130BFEFF78
:1053AC0033F86401337B6C01B30B754113D70401E3
:1053BC0093570C011305080093050B0097B0FFFFE2
:1053CC00E780C0E1930805009385070013050800EA
:1053DC0097B0FFFFE78080E01308050093050B00F2
:1053EC001305070097B0FFFFE78040DF13030500AC
:1053FC00938507001305070097B0FFFFE78000DED9
:10540C0013D708013308680033070701637467007A
:10541C003305C501370601001306F6FF9356070145
:10542C00337AC700131A0A0133F7C8003385A60074
:10543C00330AEA0063E4AB226380AB22338A4D412A
:10544C003385AB40B3BB4D012324F100B30B754145
:10545C001304F93F63067D2993850A0013850B001D
:10546C0097B0FFFFE78040DA93050500930D050028
:10547C0013850C0097B0FFFFE78040D62326A100D0
:10548C0093850A0013850B0097B0FFFFE78040DC83
:10549C000327C1001315050193560A0133E5A60035
:1054AC0083278100637EE5003305A5019386FDFF0C
:1054BC00636EA533637CE532938DEDFF3305A50157
:1054CC00B30BE54093850A0013850B002326F100EE
:1054DC0097B0FFFFE78040D3930505002324A1007C
:1054EC0013850C0097B0FFFFE78040CF930C0500AD
:1054FC0093850A0013850B0097B0FFFFE78040D51A
:10550C00131A0A0113150501135A0A01336AAA006A
:10551C00032881008327C100637E9A01330AAA0104
:10552C001307F8FF6368AA2D63769A2D1308E8FF1A
:10553C00330AAA0113970D013368070113170801E9
:10554C0013570701330A9A41135E0801130507002C
:10555C0093050B0097B0FFFFE78040C89308050048
:10556C00938507001305070097B0FFFFE78000C77E
:10557C001307050093050B0013050E0097B0FFFFF2
:10558C00E780C0C5130305009385070013050E00C3
:10559C0097B0FFFFE78080C493D7080133076700FB
:1055AC00B387E70063F66700370701003305E500B2
:1055BC00B70601009386F6FF13D70701B3F7D700A0
:1055CC0093970701B3F8D8003305A700B3871701E9
:1055DC006378AA0C330A4D011307F8FF6364AA25FC
:1055EC00636EAA206300AA2613080700136818002C
:1055FC006FF0DFC497100000E78000AF1307550170
:10560C009305C00113090502032681008326C100FE
:10561C00E3D6E5B4130485FF339B8400930B0000A1
:10562C006FF09FB5130506002324C10097100000EE
:10563C00E78080AB930455019307C00193060502E4
:10564C0003268100E3DE97AA930785FFB314F600C7
:10565C00130800006FF09FACE3F24DDFB38D8D01AA
:10566C0033B78D013307A701B38BEB001387F4FF1E
:10567C00637E7D0363E0AB16630C75159304070022
:10568C006FF0DFDBE3EE0BC1131AFB0193D71B00AA
:10569C00135B1B00336AFA00939DFB016FF01FC173
:1056AC00E316AAF4E38C07B86FF0DFF2E3187DFD84
:1056BC00E3F28DFD930407006FF05FD89377F80049
:1056CC0013074000E382E7B89337C8FF130848007C
:1056DC0093C7170013583800B384F4006FF01FB74A
:1056EC001308000093071000E34880FE1308F0FF36
:1056FC00E31404B0130910C0930710001307E94119
:10570C00B396E4003356F8003318E8003338000140
:10571C0033E7C6003367070193767700B3D4F40000
:10572C00638006029377F70093064000638AD700E4
:10573C009307470033B7E700B384E40013870700EF
:10574C009397840063D80706130610009307000094
:10575C00130700006FF05F91138B07006FF05FC3AE
:10576C00938407006FF05FBC1307F001E358F7F860
:10577C00130610FE330686401307000233D6C4000E
:10578C006388E7009307E943B397F4003368F800A4
:10579C00333700013367C700937477009307000019
:1057AC00638004029377F700930640009304000093
:1057BC00E390D7F89397940093D7C7009394D401B0
:1057CC001357370033679700130600006FF0DF891B
:1057DC00E3F64DEBB38D8D0133B78D013307A70184
:1057EC009384E4FFB38BEB006FF05FC5938D0600E1
:1057FC006FF01FCD130807006FF0DFD313171C00D9
:10580C00333C8701330DAC01330AAA011308E8FFBE
:10581C00130C0700E31CAADCE38287A313681800AF
:10582C006FF0DFA113080700E308AAFE6FF01FDC7E
:10583C00938906001306F07F9307000013070000FE
:10584C006FF09F82E36CFCFA13080700E39887FD66
:04585C006FF0DF9E6C
:10586000130101FC2328210313D945012326310309
:1058700023244103232251039399C500232E1102AF
:10588000232C8102232A910223206103232E7101FC
:105890001379F97F130A050093D9C90093DAF5014A
:1058A000630E09149307F07F6300F9221354D501A6
:1058B00093993900B36934013704800033E48900D7
:1058C00093143500130919C093090000930B0000CD
:1058D00093D74601139AC60093F7F77F9305060006
:1058E000135ACA0013DBF601638607181307F07F0B
:1058F000638CE7041357D601131A3A00336A470141
:10590000938717C0370780003367EA009315360086
:105910003309F9001305000033C86A019307F0004A
:10592000130608009308190063E437239716000054
:10593000938606D393992900B389D90083A70900D8
:10594000B387D700678007003367CA001309F97F60
:105950006318071C93E92900930500001305200034
:105960006FF09FFB130800009307F07F37040800D7
:10597000930400001314C400939747011354C40008
:105980001318F8013364F400336404019305040030
:105990008320C10303248103138504000329010329
:1059A000832441038329C102032A8102832A4102FD
:1059B000032B0102832BC101130101046780000046
:1059C00013060B001304070093840500930B0500D6
:1059D000930720006384FB1693073000E384FBF8F1
:1059E0009307100013080600639AFB5C93070000FE
:1059F00013040000930400006FF0DFF733E4A90004
:105A0000630604102326D1002324C100638C0948B7
:105A10001385090097000000E780C06D0326810010
