:0200000480007A
:10000000370100801301C117E70001000100000063
:1000100000000000000000000000000000000000E0
:10002000232E11FE232C51FE232A61FE232871FE6C
:100030002326A1FE2324B1FE2322C1FE2320D1FECC
:10004000232EE1FC232CF1FC232A01FD232811FDA2
:100050002326C1FD2324D1FD2322E1FD2320F1FD30
:100060003971732F2034AD4F630EFF058D4F630937
:10007000FF019D4F63F1EF09B70F008063E1EF03CC
:10008000B72F0080938F8F2D23A0EF01732F103493
:10009000B72F0080938FCF2D23A0EF0171A8B72F2A
:1000A0000080938F0F2E23A0EF01732F1034B72FF2
:1000B0000080938F4F2E23A0EF0197000000E78070
:1000C00020209DA8B72F0080938F0F2D23A0EF0134
:1000D000732F1034B72F0080938F4F2D23A0EF0183
:1000E00097000000E78080392AD6732F1034110F53
:1000F00073101F3491A0B72F0080938F0F2D23A072
:10010000EF01732F1034B72F0080938F4F2D23A052
:10011000EF01370F01F0130F0F00930FA002232000
:10012000FF01930F20042320FF01370F0080130FDE
:10013000CF1773101F3409A0F250E2525253C2532A
:100140003255A255125682567247E2475248C2486B
:10015000324EA24E124F824F21617300203005654E
:1001600001150F5005706DFD8280411106C622C435
:1001700073000000B24022444101828017B10000A8
:100180001301412C178500001305C5E79785000072
:10019000938585EA6306B500232005001105DDBFC0
:1001A000172500001305851471119725000093850C
:1001B000E5136308B500144111052AC08296024573
:1001C000EDB7110197100000E780C0B501A0000055
:1001D000000000000000000000000000000000001F
:0201E00000001D
:1001E400130605001305000093F61500638406004A
:1001F4003305C50093D5150013161600E39605FEC6
:10020400678000006340050663C605061386050083
:10021400930505001305F0FF630C06029306100016
:10022400637AB6006358C00013161600939616003E
:10023400E36AB6FE1305000063E6C500B385C54056
:100244003365D50093D6160013561600E39606FEC2
:100254006780000093820000EFF05FFB13850500C8
:10026400678002003305A04063D80500B305B040A1
:100274006FF0DFF9B305B04093820000EFF01FF98F
:100284003305A040678002009382000063CA050022
:10029400634C0500EFF09FF71385050067800200AB
:1002A400B305B040E35805FE3305A040EFF01FF658
:0802B4003305B0406780020031
:1002BC00011106CE22CC26CA0010B727008003A756
:1002CC00072DB787008023ACE700B727008003A772
:1002DC00472DB787008023A0E702B70705F0938767
:1002EC00C70A9C432324F4FEB70705F09387470AFB
:1002FC009C432322F4FEB70705F09387870A9C439F
:10030C002320F4FE232604FE032784FE9307800794
:10031C0063F1E710032744FE9307000B63FBE70E22
:10032C00032744FE85679387F7F363E4E70E0327FF
:10033C0004FE9307001563FEE70C032704FE856794
:10034C00938737F663E7E70C832744FE938707F51B
:10035C003E8597200000E780E0B4B727008003A615
:10036C00070983A6470997100000E780E035AA87A4
:10037C002E883E85C285B727008003A6870983A6F1
:10038C00C70997100000E780E0A3AA872E88BE86D5
:10039C004287B70705F0938407013685BA85972005
:1003AC000000E780A0A8AA879CC0832704FE93873F
:1003BC0007EB3E8597200000E780C0AEB727008092
:1003CC0003A6070A83A6470A97100000E780C02FF0
:1003DC00AA872E883E85C285B727008003A6870A88
:1003EC0083A6C70A97100000E780C09DAA872E88B5
:1003FC00BE864287B70705F0938487013685BA8598
:10040C0097200000E78080A2AA879CC085472326FE
:10041C00F4FEB70705F0938707020327C4FE98C3C1
:10042C00B70705F09387070A23A00700B78700805A
:10043C0083A7070013871700B787008023A0E70066
:10044C00B70702F0C1079843B787008023A6E702DD
:10045C00B70702F0C107378700800327C70298C38C
:0C046C000100F2406244D244056182802D
:10047800797106D622D40018232EA4FC232CB4FCB0
:10048800232AC4FC232604FEB78700800327C4FD63
:1004980023AEE700B7870080032784FD23A8E70081
:1004A800B7870080032744FD23AAE700B727008009
:1004B80003A7072DB787008023A2E702B72700808C
:1004C80003A7472DB787008023A4E702B7870080DA
:1004D80083A7470013871700B787008023A2E70088
:1004E8000327C4FD8567938707FA6319F700B78761
:1004F800008083A7C7002326F4FE2DA0B7870080BD
:1005080083A78702BE85B727008013850708970051
:100518000000E780A054B7C7ADDE9387F7EE232627
:10052800F4FE01008327C4FE3E85B2502254456183
:020538008280BF
:10053A00011106CE22CC0010AA87A307F4FE0347B6
:10054A00F4FEA9476317F700354597000000E780D6
:10055A0060FEB787008083A7870085C3B7870080BE
:10056A0083A7870093861700378700802324D70044
:10057A000347F4FE2380E70031A8B787008083A7EA
:10058A00070389CBB787008003A707038347F4FED5
:0C059A003E850297F240624405618280B9
:1005A600011106CE22CC00102326A4FE31A88327F3
:1005B600C4FE138717002326E4FE83C707003E8583
:1005C60097000000E78040F78327C4FE83C7070033
:0C05D600F9FF0100F240624405618280E0
:1005E200597186D6A2D48018232EA4F8232CB4F8ED
:1005F2008327C4F913871700232EE4F883C7070063
:10060200A30BF4FC834774FD63830744034774FD23
:1006120093075002630AF700834774FD3E859700F3
:100622000000E780A0F11DA1232004FE832704FE21
:10063200232EF4FC8327C4F913871700232EE4F832
:1006420083C70700A30BF4FC034774FD9307000361
:100652006310F7028547232EF4FC8327C4F913871E
:100662001700232EE4F883C70700A30BF4FC25A090
:10067200034774FD9307D002631FF7008947232EB7
:10068200F4FC8327C4F913871700232EE4F883C7E9
:100692000700A30BF4FC034774FD9307A002631F3A
:1006A200F706832784F913874700232CE4F89C4339
:1006B200232CF4FC832784FD63DB0700832784FD5E
:1006C200B307F040232CF4FC8947232EF4FC832744
:1006D20084FD2320F4FE8327C4F913871700232EF9
:1006E200E4F883C70700A30BF4FCA9A0032704FEC8
:1006F200BA878A07BA9786073E87834774FDBA97F7
:10070200938707FD2320F4FE8327C4F9138717007C
:10071200232EE4F883C70700A30BF4FC034774FD00
:100722009307F00263F8E700034774FD9307900311
:10073200E3FEE7FA034774FD9307C0066308F70078
:10074200034774FD9307C0046312F7028327C4FDB5
:1007520093E74700232EF4FC8327C4F9138717007D
:10076200232EE4F883C70700A30BF4FC834774FD30
:100772006381072E834774FD230BF4FC034764FD5A
:100782009307000663F7E700834764FD8117230B95
:10079200F4FC834764FD9387E7FB59476360F70ED8
:1007A20013972700B72700809387070BBA979C43BC
:1007B2008287832784F913874700232CE4F89C431C
:1007C2002324F4FC232204FE31A0832744FE850760
:1007D2002322F4FE032784FC832744FEBA9783C7AF
:1007E2000700E5F739A01305000297000000E78033
:1007F200E0D48327C4FD898B99EB832744FE1387BA
:1008020017002322E4FE032704FEE3EEE7FC0325A0
:1008120084FC97000000E78020D939A0130500026C
:1008220097000000E78080D1832744FE13871700DA
:100832002322E4FE032704FEE3E2E7FE01AC832762
:1008420084F913874700232CE4F89C4393F7F70FAE
:100852003E8597000000E78060CECDAA8947232617
:10086200F4FE2DA0A1472326F4FE0DA0A9472326BE
:10087200F4FE29A8C1472326F4FE09A8834774FD84
:100882003E8597000000E78060CBC9A28327C4FDA4
:10089200918B99CB832784F913874700232CE4F8A3
:1008A2009C432328F4FC05A8034764FD93074004F6
:1008B200631AF700832784F913874700232CE4F88F
:1008C2009C4301A8832784F913874700232CE4F86B
:1008D2009C432328F4FC034764FD930740046312FE
:1008E200F702832704FD63DE0700832704FDB307B5
:1008F200F0402328F4FC8327C4FD93E70701232E4D
:10090200F4FC232404FE832704FD2326F4FC83271E
:10091200C4FC8325C4FE3E8597000000E780E09377
:10092200AA87230BF4FC8325C4FE0325C4FC97008D
:100932000000E780008EAA872326F4FC034764FDAB
:10094200A54763F1E702034774FD93078007631528
:10095200F7009307700211A09D47034764FDBA9701
:10096200230BF4FC832784FE138717002324E4FE61
:10097200034764FD130707031377F70F930604FF7A
:10098200B697238CE7FA8327C4FC91C7032784FE1A
:10099200FD47E3FEE7F68327C4FDC18B91CF832792
:1009A20084FE138717002324E4FE130704FFBA977B
:1009B2001307D002238CE7FA832784FE2322F4FE56
:1009C2008327C4FD858B81C79307000319A0930772
:1009D2000002230BF4FC01A8834764FD3E859700C7
:1009E2000000E780A0B58327C4FD898B99EB83279C
:1009F20044FE138717002322E4FE032704FEE3EDDF
:100A0200E7FC832784FEFD172324F4FE832784FE5C
:100A1200130704FFBA9783C787FB3E859700000040
:100A2200E780C0B1832784FEE9FF39A013050002E5
:100A320097000000E78080B0832744FE13871700E9
:100A42002322E4FE032704FEE3E2E7FE55B601009B
:0E0A520011A001000100B6502654656182809B
:100A60005D7106D622D40018232EA4FC4CC010C4FD
:100A700054C418C85CC8232C0401232E1401930706
:100A8000040291172326F4FE8327C4FEBE850325A6
:100A9000C4FD97000000E78000B50100B250225469
:040AA000616182808E
:100AA400011122CE00102326A4FE8327C4FE9C43FA
:080AB4003E8572440561828059
:100ABC00011122CE00102326A4FE2324B4FE83278A
:100ACC0084FE0327C4FE98C3010072440561828032
:100ADC00011106CE22CC00102326A4FE8327C4FECF
:100AEC0091073E8597000000E78040FBAA87C183F1
:0E0AFC0093F7F70F3E85F24062440561828059
:100B0A00011106CE22CC00102326A4FE8327C4FEA0
:100B1A0091073E8597000000E78060F8AA87E18385
:0A0B2A003E85F240624405618280BE
:100B3400011106CE22CC00102326A4FEAE87A30505
:100B4400F4FE01000325C4FE97000000E78000F9CD
:100B5400AA87EDDB8347B4FE8325C4FE3E85970058
:100B64000000E780A0F50100F24062440561828044
:100B7400011106CE22CC00102326A4FE2324B4FEA9
:100B840005A0832784FE138717002324E4FE83C76C
:100B94000700BE850325C4FE97000000E78080F9A6
:100BA400832784FE83C70700E9FF0100F240624403
:040BB40005618280D5
:100BB800011106CE22CC00102326A4FE0100032535
:100BC800C4FE97000000E78000F4AA87EDDB032548
:100BD800C4FE97000000E780A0ECAA8793F7F70F00
:0A0BE8003E85F24062440561828000
:100BF200011106CE22CC00102326A4FE0327C4FE38
:100C0200B167E117BA973E8597000000E780A0E937
:0C0C1200AA873E85F240624405618280A2
:100C1E00797106D622D426D20018232EA4FC232CBA
:100C2E00B4FC232AC4FC032784FDB7470F00938529
:100C3E0007243A8597F0FFFFE780E05CAA8723261A
:100C4E00F4FE032544FD97000000E780E0F9AA8436
:100C5E008325C4FE0325C4FD97F0FFFFE780E05710
:100C6E00AA87A6972324F4FE0100032544FD9700CE
:100C7E000000E78060F72A87832784FE998FE3D6EA
:0E0C8E0007FE0100B25022549254456182804C
:100C9C00011106CE22CC00102326A4FE8327C4FE0D
:100CAC0091073E8597000000E78040DFAA873E85CC
:080CBC00F240624405618280F0
:100CC400011106CE22CC00102326A4FE2324B4FE58
:100CD4008327C4FE9107BE85032584FE9700000088
:0E0CE400E780C0DD0100F240624405618280BD
:100CF200011106CE22CC00102326A4FE2324B4FE2A
:100D02008327C4FEA107BE85032584FE9700000049
:0E0D1200E780E0DA0100F24062440561828071
:100D2000011106CE22CC00108545370500F0970052
:100D30000000E78040FC8145370500F09700000087
:100D4000E78080F8B72700809385C712370501F048
:100D500097000000E78040E2370500F097000000B0
:100D6000E78000F4AA8793C71700BE85370500F017
:100D700097000000E78040F539A8370501F097009B
:100D80000000E780A0E3AA87BE85370501F0970041
:100D90000000E78060DA370501F097000000E78087
:100DA00000D7AA87F9FB8327C4FE85072326F4FE14
:100DB0003706B0F0B7877D0193850784E167138517
:0C0DC000076A97000000E780C0E579B7E3
:100DCC00130101FB13D74501232481042322910431
:100DDC00232A51031394C500232611042320210533
:100DEC00232E3103232C4103232861032326710373
:100DFC0023248103232291032320A103232EB10159
:100E0C001377F77F930405001354C40093DAF501AC
:100E1C00630607189307F07F6302F71E135BD50177
:100E2C001314340033648B00370B8000336B640174
:100E3C00931B3500130917C013040000130C00009A
:100E4C0013D746019399C6001377F77F1308060052
:100E5C0093D9C90013DAF6016308070E9307F07FE4
:100E6C006308F7049354D60193993900B3E934011C
:100E7C00130717C0B707800013183600B3E4F90046
:100E8C003309E940130600009307F000B3C94A0187
:100E9C0063EC8726971700009387472A13142400C6
:100EAC003304F400032704003307F700670007003E
:100EBC00B3E4C90013091980639E04181364240059
:100ECC0013080000130620006FF01FFC1306F07FC0
:100EDC0093070000130700009397C7008320C104F9
:100EEC00032481041316460193D7C7009399F90183
:100EFC00B3E7C700B3E73701832441040329010496
:100F0C008329C103032A8103832A4103032B010391
:100F1C00832BC102032C8102832C4102032D01027D
:100F2C00832DC101130507009385070013010105EB
:100F3C0067800000930900001306F07FB7070800D4
:100F4C00130700006FF05FF9B3E4C900638C040E63
:100F5C0063820954138509002324C10097100000F3
:100F6C00E78080FF0326810093060500930455FF5C
:100F7C009307D001138786FFB3879740B399E90095
:100F8C00B357F600B3E437013318E6003387260174
:100F9C001309373F130600006FF01FEF336BA400EB
:100FAC0063080B082326D1002324C100630C044AD8
:100FBC001305040097100000E78000FA0326810057
:100FCC008326C10013090500130755FF130BD0012D
:100FDC00930B89FF330BEB403314740133DB640147
:100FEC00336B8B00B39B74011307D0C033092741BB
:100FFC0013040000130C00006FF09FE4336BA4008B
:10100C00631C0B0013048000930B00001309F07F8A
:10101C00130C20006FF0DFE2130B0400930B0500A0
:10102C001304C0001309F07F130C30006FF05FE164
:10103C0013044000930B000013090000130C100064
:10104C006FF01FE013641400130800001306100067
:10105C006FF09FE31364340093840900130630008F
:10106C006FF09FE26302045093071000B387874030
:10107C00130780036352F756130600009307000012
:10108C00130700006FF05FE593060A00930720003A
:10109C006308F66093073000E30EF6E89307100040
:1010AC0093890600E30AF6FC1304F93FE35C80FA2B
:1010BC0093777800639C0746135838009397740015
:1010CC0063DA0700B70700FF9387F7FFB3F4F40068
:1010DC00130409409307E07FE3CA87DE1397D4011A
:1010EC00939794003367070193D7C7001376F47F67
:1010FC006FF09FDE93860A0093040B0013880B009D
:10110C0013060C006FF09FF863E8643F63049B3E8A
:10111C001309F9FF138A0B00930D000093978400B9
:10112C00135D8801336DFD00935A0D0193850A0000
:10113C00931C0D0113050B00131C880093DC0C0190
:10114C0097F0FFFFE780400C930505009304050022
:10115C0013850C0097F0FFFFE7804008930B050008
:10116C0093850A0013050B0097F0FFFFE780400EF4
:10117C001315050113570A013365A700637E75012A
:10118C003305A5019387F4FF6364A5456372754528
:10119C009384E4FF3305A5013304754193850A005C
:1011AC001305040097F0FFFFE78000069305050088
:1011BC00130B050013850C0097F0FFFFE78000026E
:1011CC00930B050093850A001305040097F0FFFFAD
:1011DC00E7800008131A0A0113150501135A0A01B6
:1011EC003365AA00637E75013305A5019307FBFFE8
:1011FC00636CA53D637A753D130BEBFF3305A501BD
:10120C00370E010093940401B3E46401130BFEFF49
:10121C0033F86401337B6C01B30B754113D70401B4
:10122C0093570C011305080093050B0097F0FFFF73
:10123C00E780C0FA930805009385070013050800A2
:10124C0097F0FFFFE78080F91308050093050B006A
:10125C001305070097F0FFFFE78040F81303050024
:10126C00938507001305070097F0FFFFE78000F751
:10127C0013D708013308680033070701637467004C
:10128C003305C501370601001306F6FF9356070117
:10129C00337AC700131A0A0133F7C8003385A60046
:1012AC00330AEA0063E4AB226380AB22338A4D41FC
:1012BC003385AB40B3BB4D012324F100B30B754117
:1012CC001304F93F63067D2993850A0013850B00EF
:1012DC0097F0FFFFE78040F393050500930D0500A1
:1012EC0013850C0097F0FFFFE78040EF2326A10049
:1012FC0093850A0013850B0097F0FFFFE78040F5FC
:10130C000327C1001315050193560A0133E5A60006
:10131C0083278100637EE5003305A5019386FDFFDD
:10132C00636EA533637CE532938DEDFF3305A50128
:10133C00B30BE54093850A0013850B002326F100BF
:10134C0097F0FFFFE78040EC930505002324A100F4
:10135C0013850C0097F0FFFFE78040E8930C050025
:10136C0093850A0013850B0097F0FFFFE78040EE92
:10137C00131A0A0113150501135A0A01336AAA003C
:10138C00032881008327C100637E9A01330AAA01D6
:10139C001307F8FF6368AA2D63769A2D1308E8FFEC
:1013AC00330AAA0113970D013368070113170801BB
:1013BC0013570701330A9A41135E080113050700FE
:1013CC0093050B0097F0FFFFE78040E193080500C1
:1013DC00938507001305070097F0FFFFE78000E0F7
:1013EC001307050093050B0013050E0097F0FFFF84
:1013FC00E780C0DE130305009385070013050E007C
:10140C0097F0FFFFE78080DD93D708013307670073
:10141C00B387E70063F66700370701003305E50083
:10142C00B70601009386F6FF13D70701B3F7D70071
:10143C0093970701B3F8D8003305A700B3871701BA
:10144C006378AA0C330A4D011307F8FF6364AA25CD
:10145C00636EAA206300AA261308070013681800FD
:10146C006FF0DFC497100000E78000AF1307550141
:10147C009305C00113090502032681008326C100D0
:10148C00E3D6E5B4130485FF339B8400930B000073
:10149C006FF09FB5130506002324C10097100000C0
:1014AC00E78080AB930455019307C00193060502B6
:1014BC0003268100E3DE97AA930785FFB314F60099
:1014CC00130800006FF09FACE3F24DDFB38D8D017C
:1014DC0033B78D013307A701B38BEB001387F4FFF0
:1014EC00637E7D0363E0AB16630C751593040700F4
:1014FC006FF0DFDBE3EE0BC1131AFB0193D71B007C
:10150C00135B1B00336AFA00939DFB016FF01FC144
:10151C00E316AAF4E38C07B86FF0DFF2E3187DFD55
:10152C00E3F28DFD930407006FF05FD89377F8001A
:10153C0013074000E382E7B89337C8FF130848004D
:10154C0093C7170013583800B384F4006FF01FB71B
:10155C001308000093071000E34880FE1308F0FF07
:10156C00E31404B0130910C0930710001307E941EA
:10157C00B396E4003356F8003318E8003338000112
:10158C0033E7C6003367070193767700B3D4F400D2
:10159C00638006029377F70093064000638AD700B6
:1015AC009307470033B7E700B384E40013870700C1
:1015BC009397840063D80706130610009307000066
:1015CC00130700006FF05F91138B07006FF05FC380
:1015DC00938407006FF05FBC1307F001E358F7F832
:1015EC00130610FE330686401307000233D6C400E0
:1015FC006388E7009307E943B397F4003368F80076
:10160C00333700013367C7009374770093070000EA
:10161C00638004029377F700930640009304000064
:10162C00E390D7F89397940093D7C7009394D40181
:10163C001357370033679700130600006FF0DF89EC
:10164C00E3F64DEBB38D8D0133B78D013307A70155
:10165C009384E4FFB38BEB006FF05FC5938D0600B2
:10166C006FF01FCD130807006FF0DFD313171C00AA
:10167C00333C8701330DAC01330AAA011308E8FF90
:10168C00130C0700E31CAADCE38287A31368180081
:10169C006FF0DFA113080700E308AAFE6FF01FDC50
:1016AC00938906001306F07F9307000013070000D0
:1016BC006FF09F82E36CFCFA13080700E39887FD38
:0416CC006FF0DF9E3E
:1016D000130101FC2328210313D9450123263103DB
:1016E00023244103232251039399C500232E110281
:1016F000232C8102232A910223206103232E7101CE
:101700001379F97F130A050093D9C90093DAF5011B
:10171000630E09149307F07F6300F9221354D50177
:1017200093993900B36934013704800033E48900A8
:1017300093143500130919C093090000930B00009E
:1017400093D74601139AC60093F7F77F93050600D7
:10175000135ACA0013DBF601638607181307F07FDC
:10176000638CE7041357D601131A3A00336A470112
:10177000938717C0370780003367EA009315360058
:101780003309F9001305000033C86A019307F0001C
:10179000130608009308190063E437239716000026
:1017A0009386869E93992900B389D90083A709005F
:1017B000B387D700678007003367CA001309F97F32
:1017C0006318071C93E92900930500001305200006
:1017D0006FF09FFB130800009307F07F37040800A9
:1017E000930400001314C400939747011354C400DA
:1017F0001318F8013364F400336404019305040002
:101800008320C103032481031385040003290103FA
:10181000832441038329C102032A8102832A4102CE
:10182000032B0102832BC101130101046780000017
:1018300013060B001304070093840500930B0500A7
:10184000930720006384FB1693073000E384FBF8C2
:101850009307100013080600639AFB5C93070000CF
:1018600013040000930400006FF0DFF733E4A900D5
:10187000630604102326D1002324C100638C094889
:101880001385090097000000E780C06D03268100E2
:101890008326C10093070500130755FF1304D001E9
:1018A000938487FF3304E440B399990033548A004A
:1018B00033643401B3149A001309D0C03309F940DA
:1018C00093D74601139AC60093F7F77F9309000058
:1018D000930B000093050600135ACA0013DBF601B0
:1018E000E39E07E63367CA0063060706630A0A3EFB
:1018F00013050A002324C10097000000E7808066DA
:101900000326810093070500930655FF1307D001B6
:10191000938587FF3307D740331ABA003357E60061
:1019200033674701B315B6003309F9401309D9C02D
:10193000130500006FF05FE533E4A90063140402AF
:1019400093098000930400001309F07F930B20009B
:101950006FF01FDF93E919009305000013051000D5
:101960006FF09FE213840900930405009309C000FF
:101970001309F07F930B30006FF09FDC9309400058
:101980009304000013090000930B10006FF05FDB5D
:1019900093E9390013070A00130530006FF0DFDE0A
:1019A0009307200013860A00E390FBEA1308060061
:1019B0009307F07F13040000930400006FF09FE290
:1019C000B7090100138EF9FF33FFC40133FEC501CF
:1019D00093DF050113D3040113050F0093050E00D7
:1019E00097F0FFFFE7804080930E050093850F007E
:1019F00013050F0097E0FFFFE780007F93070500C6
:101A000093050E001305030097E0FFFFE780C07DFC
:101A10009303050093850F001305030097E0FFFF74
:101A2000E780807C93D60E01B3877700B386F600FB
:101A30009302050063F47600B3023501B709010093
:101A4000138AF9FFB3F4460193970401B3F44E01EE
:101A5000337A470193DE0601B384970013570701D9
:101A600013050F0093050A0097E0FFFFE780C0779A
:101A7000930305009305070013050F0097E0FFFF90
:101A8000E7808076130F050093050A001305030015
:101A900097E0FFFFE7804075930A05009305070074
:101AA0001305030097E0FFFFE780007493D703015D
:101AB000330F5F01B387E70163F457013305350145
:101AC000B70A01009386FAFF33F3D700131303011B
:101AD000B3F3D300B309730093D707013373D40072
:101AE000338FA700B38E3E01135404011305030086
:101AF00093050E0097E0FFFFE780006F9307050056
:101B000093850F001305030097E0FFFFE780C06D8A
:101B10009303050093050E001305040097E0FFFFF3
:101B2000E780806C130E050093850F0013050400F9
:101B300097E0FFFFE780406B13D60701B383C30133
:101B4000330676006374C60133055501B70A0100F8
:101B50009383FAFFB3767600939606011356060137
:101B6000B3F77700B30FA600B383F60013050300A5
:101B700093050A0097E0FFFFE7800067130E05005A
:101B8000930507001305030097E0FFFFE780C0659A
:101B90009307050093050A001305040097E0FFFF73
:101BA000E780806413030500930507001305040014
:101BB00097E0FFFFE780406393550E01B38767000E
:101BC000B385F50063F4650033055501370701005F
:101BD0001307F7FFB3F7E500337EEE009397070195
:101BE00033875E00B387C70133333701B387E7011B
:101BF00033077700338E6700B33677003306FE0174
:101C0000B30ED600B3B7E70133336E0033E4670099
:101C100093D505013336F601B3B6DE003304B400C4
:101C2000B366D600931797003304D4003304A4009E
:101C3000B3E497001314940013D57E01B3349000DD
:101C40001357770193979E00B3E4E4003364A40034
:101C5000B3E4F4009317740063D0070293D7140021
:101C600093F414001317F401B3E49700B3E4E40011
:101C700013541400138908009307F93F6354F00CC0
:101C800013F774006300070213F7F4009306400093
:101C9000630AD70013874400B334970033049400D9
:101CA0009304070013177400635A0700B70700FF77
:101CB0009387F7FF3374F400930709401307E07F1D
:101CC000634EF71413D734009314D4011314940003
:101CD000B3E4E4001354C40093F7F77F6FF09FB0B0
:101CE000130506002324C10097000000E780802729
:101CF000930655011307C0019307050203268100CF
:101D0000E356D7C0130585FF3317A60093050000DF
:101D10006FF09FC197000000E780C02413075501B2
:101D20009305C00193070502032681008326C100A5
:101D3000E3D6E5B6130585FF3314AA00930400002B
:101D40006FF09FB7130710003307F7406390070643
:101D50001309E941B3972401B3D4E40033192401F2
:101D6000B337F000B3649900B3E4F40093F7740060
:101D70003357E4006380070293F7F40093064000B2
:101D8000638AD70093874400B3B497003307970062
:101D9000938407009317870063D407069307100006
:101DA00013040000930400006FF0DFA39306800388
:101DB000E3C6E6AA9306F001E3DCE6F8930610FE1C
:101DC000B387F64013060002B356F4006308C70059
:101DD0001309E943B3172401B3E4F400B3349000CA
:101DE000B3E4D40013F77400130400006300070287
:101DF00093F7F4009306400013070000E394D7F82C
:101E0000131497001354C4001317D70193D434004C
:101E1000B3E4E400930700006FF0DF9C9307F07FCA
:101E200013040000930400006FF0DF9B1389080087
:041E30006FF09FE4CC
:101E340093D74501B70610001387F6FF93F7F77F92
:101E44001306E03F130805003377B70013050000BD
:101E540093D5F5016356F60063860500678000009C
:101E6400678000001306E0411305F0FFE348F6FE27
:101E7400130530433305F5401306F0013367D700EB
:101E8400634CA6009387D7BE3317F7003355A800D9
:101E94003365A7006780000013053041B307F540A0
:081EA4003355F70067800000D0
:101EAC0063060506130101FF23248100232611007C
:101EBC001304050097000000E780000A9306E04138
:101ECC00B386A6409307A00093F6F67F63D4A706CB
:101EDC00130555FFB317A4009397C70093D7C700FA
:101EEC00130700008320C100032481009397C700CF
:101EFC009396460193D7C700B3E7D70013050700A5
:101F0C00938507001301010167800000930700000F
:101F1C00930600009397C7009396460193D7C7008A
:101F2C0013070000B3E7D7001305070093850700DC
:101F3C00678000001307B0003307A740B357E400D5
:101F4C009397C700130755013317E40093D7C700C5
:041F5C006FF05FF9CA
:101F6000B70701006374F5049307F00F130700022D
:101F700063EEA7009707000093870725B387A700A4
:101F800003C507003305A74067800000135585008F
:101F90009707000093874723B387A70003C507006F
:101FA000130780013305A74067800000B7070001D1
:101FB0006362F50213558501970700009387C720D8
:101FC000B387A70003C50700130780003305A740A8
:101FD0006780000013550501970700009387C71E0F
:101FE000B387A70003C50700130700013305A74007
:041FF0006780000006
:102000003D000000A90300007700000097030000D6
:10201000050000000D020000230000000302000084
:10202000600000002003000070000000F0020000CB
:10203000020000000D0200000C000000EC01000096
:1020400008000000460000001000000040000000F2
:10205000020000003000000008000000280000001E
:1020600008000000B800000010000000B0000000F0
:102070000200000082000000060000007E00000058
:102080006563616C6C204020253038580A000000E0
:102090000000000000008940000000000020AD406A
:1020A0000000000000007E40000000000028AC405E
:1020B0005E080080400800806E0800807E08008076
:1020C0007E0800807E0800807E0800807E080080F8
:1020D0007E0800807E0800807E0800807E080080E8
:1020E0007E080080660800807E0800807E080080F0
:1020F0007E080080B40700807E0800806E080080A3
:102100007E0800807E080080760800802530386CCC
:10211000582000002025303258000000202530349F
:1021200058000000202530384C5800002A2A2A2068
:102130005361786F6E536F6320426F6F7465642EC6
:102140002E2E0A00D0EFFFFF94EDFFFF40EFFFFFC0
:1021500050EFFFFF40EFFFFFFCEDFFFF40EFFFFF01
:1021600050EFFFFF94EDFFFF94EDFFFFFCEDFFFF4D
:1021700050EFFFFFBCEFFFFFBCEFFFFFBCEFFFFF27
:10218000FCEDFFFF3CF8FFFFB0F6FFFFB0F6FFFFEE
:10219000ACF6FFFFBCF6FFFFBCF6FFFF50F6FFFFFB
:1021A000ACF6FFFFBCF6FFFF50F6FFFFBCF6FFFFEB
:1021B000ACF6FFFF1CF8FFFF1CF8FFFF1CF8FFFF49
:1021C00050F6FFFF000102020303030304040404AA
:1021D00004040404050505050505050505050505B3
:1021E0000505050506060606060606060606060693
:1021F000060606060606060606060606060606067F
:102200000606060607070707070707070707070762
:10221000070707070707070707070707070707074E
:10222000070707070707070707070707070707073E
:10223000070707070707070707070707070707072E
:102240000707070708080808080808080808080812
:1022500008080808080808080808080808080808FE
:1022600008080808080808080808080808080808EE
:1022700008080808080808080808080808080808DE
:1022800008080808080808080808080808080808CE
:1022900008080808080808080808080808080808BE
:1022A00008080808080808080808080808080808AE
:1022B000080808080808080808080808080808089E
:1022C00008080808000000000000000000000000EE
:1022D00000000000000000000000000000000000FE
:0822E0000000000000000000F6
:040000058000000077
:00000001FF
