:0200000480007A
:10000000370100801301C117E70001000100000063
:1000100000000000000000000000000000000000E0
:10002000232E11FE232C51FE232A61FE232871FE6C
:100030002326A1FE2324B1FE2322C1FE2320D1FECC
:10004000232EE1FC232CF1FC232A01FD232811FDA2
:100050002326C1FD2324D1FD2322E1FD2320F1FD30
:100060003971732F2034AD4F630EFF058D4F630937
:10007000FF019D4F63F1EF09B70F008063E1EF03CC
:10008000B77F0080938F8F0023A0EF01732F103470
:10009000B77F0080938FCF0023A0EF0171A8B77FB7
:1000A0000080938F0F0123A0EF01732F1034B77FCF
:1000B0000080938F4F0123A0EF0197400000E7805D
:1000C00080089DA8B77F0080938F0F0023A0EF01C9
:1000D000732F1034B77F0080938F4F0023A0EF0160
:1000E00097400000E780C00C2AD6732F1034110F00
:1000F00073101F3491A0B77F0080938F0F0023A04F
:10010000EF01732F1034B77F0080938F4F0023A02F
:10011000EF01370F01F0130F0F00930FA002232000
:10012000FF01930F20042320FF01370F0080130FDE
:10013000CF1773101F3409A0F250E2525253C2532A
:100140003255A255125682567247E2475248C2486B
:10015000324EA24E124F824F21617300203005654E
:1001600001150F5005706DFD8280411106C622C435
:1001700073000000B24022444101828017B10000A8
:100180001301417E178500001305458997850000FE
:100190009385853C6306B500232005001105DDBF6E
:1001A000178500001305453B711197850000938565
:1001B000A53A6308B500144111052AC0829602458C
:1001C000EDB7110197500000E780A02D01A00000BD
:1001D000000000000000000000000000000000001F
:0201E00000001D
:1001E400130605001305000093F61500638406004A
:1001F4003305C50093D5150013161600E39605FEC6
:10020400678000006340050663C605061386050083
:10021400930505001305F0FF630C06029306100016
:10022400637AB6006358C00013161600939616003E
:10023400E36AB6FE1305000063E6C500B385C54056
:100244003365D50093D6160013561600E39606FEC2
:100254006780000093820000EFF05FFB13850500C8
:10026400678002003305A04063D80500B305B040A1
:100274006FF0DFF9B305B04093820000EFF01FF98F
:100284003305A040678002009382000063CA050022
:10029400634C0500EFF09FF71385050067800200AB
:1002A400B305B040E35805FE3305A040EFF01FF658
:0802B4003305B0406780020031
:1002BC00011122CE00102326A4FEB70705F0938768
:1002CC0087049C438327C4FEFD172326F4FE832753
:0C02DC00C4FEE5F7010072440561828059
:1002E800797122D60018232EA4FC232CB4FCB7075E
:1002F80005F0938707049843B70705F09387070429
:100308001377D70F98C3032784FD8D4763FBE70650
:100318008327C4FD83C737002304F4FE8327C4FD65
:1003280083C72700A304F4FE8327C4FD83C71700EF
:100338002305F4FE8327C4FD83C70700A305F4FE45
:10034800130784FEB70705F09387C704184398C3BB
:10035800B70705F0938707051307000298C3010044
:10036800B70705F0938707059C43FDFB8327C4FD6A
:100378009107232EF4FC832784FDF117232CF4FC2A
:10038800A1A08327C4FD13871700232EE4FC83C78D
:100398000700A307F4FEB70705F09387C7040347D0
:1003A800F4FE98C3B70705F093870705214798C35C
:1003B8000100B70705F0938707059C43FDFB8327DA
:1003C80084FDFD17232CF4FC832784FD8DFF010099
:0603D800325445618280F1
:1003DE00797122D60018232EA4FC232CB4FCB70767
:1003EE0005F09387C7041307F00F98C3032784FD06
:1003FE008D4763F6E708B70705F0938707051307E0
:10040E00000298C30100B70705F0938707059C43C8
:10041E00FDFBB70705F01387C7049307C4FE184307
:10042E0098C38327C4FD13871700232EE4FC0347CC
:10043E00F4FE2380E7008327C4FD13871700232EC5
:10044E00E4FC0347E4FE2380E7008327C4FD138703
:10045E001700232EE4FC0347D4FE2380E7008327F6
:10046E00C4FD13871700232EE4FC0347C4FE23802C
:10047E00E700832784FDF117232CF4FC91A0B70726
:10048E0005F093870705214798C30100B70705F0CC
:10049E00938707059C43FDFBB70705F09387C704B9
:1004AE0094438327C4FD13871700232EE4FC13F710
:1004BE00F60F2380E700832784FDFD17232CF4FC21
:0E04CE00832784FD85F701003254456182804A
:1004DC00011106CE22CC0010B16793870735232675
:1004EC00F4FE0DA89307B4FE85453E8597000000E9
:1004FC00E78060EE0347B4FE9307F00F6300F7024A
:10050C00294597000000E780E0DA8327C4FEFD1739
:10051C002326F4FE8327C4FEF1F711A001008327E4
:10052C00C4FEB337F00093F7F70F3E85F2406244F8
:04053C000561828053
:10054000011106CE22CC0010B70705F093870704EF
:100550009843B70705F0938707041367870098C38C
:100560009307F4FE85453E8597000000E78060E72D
:0A0570000100F24062440561828040
:10057A00011106CE22CC0010B70705F093870704B5
:10058A009843B70705F0938707041377770F98C343
:10059A009307F4FE85453E8597000000E780C0E397
:1005AA0097000000E78020F3AA8799C3854731A006
:1005BA0097000000E78060F881473E85F240624478
:0405CA0005618280C5
:1005CE00797106D622D40018232EA4FC232CB4FC59
:1005DE00E1679387076A2326F4FE0DA8930784FE2E
:1005EE0085453E8597000000E780C0DE034784FE08
:1005FE009307F00F6310F702054597000000E780A0
:10060E0040CB8327C4FEFD172326F4FE8327C4FEAA
:10061E00F1F711A00100034784FE9307E00F630476
:10062E00F700814715A0832584FD0325C4FD97009F
:10063E000000E78020DA930784FE89453E85970007
:10064E000000E78020D985473E85B250225445618F
:02065E00828098
:10066000797106D622D40018AA87232CB4FCA30FD4
:10067000F4FC8307F4FD63DA07028347F4FD93F784
:10068000F707A30FF4FC81451305700397000000E2
:10069000E78040FDAA87A307F4FE0347F4FE8547E1
:1006A00063F5E7008347F4FEEDA80347F4FDB14787
:1006B000630FF70097000000E780C0E89700000094
:1006C000E780E0EBAA8781E79307F00FD9A883477B
:1006D000F4FD93E7070493F7F70F2304F4FE832751
:1006E00084FDE18393F7F70FA304F4FE832784FDD1
:1006F000C18393F7F70F2305F4FE832784FDA183BD
:1007000093F7F70FA305F4FE832784FD93F7F70F04
:100710002306F4FE8547A307F4FE8347F4FD89E72B
:10072000930750F9A307F4FE0347F4FDA1476316AE
:10073000F700930770F8A307F4FE8347F4FEA306BF
:10074000F4FE930784FE99453E8597000000E780FC
:10075000E0B90347F4FDB147631AF7009307E4FEDD
:1007600085453E8597000000E780A0C7A947A307FD
:10077000F4FE9307E4FE85453E8597000000E78080
:1007800040C68347E4FEE207E18763DA0700834758
:10079000F4FEFD17A307F4FE8347F4FEF9FB83473D
:0C07A000E4FE3E85B25022544561828088
:1007AC00011122CE0010AA87A307F4FE8347F4FEA2
:1007BC0099C3854729A0B787008083C707A03E85CA
:0607CC0072440561828009
:1007D200797106D622D40018AA87A30FF4FC8347A6
:1007E200F4FD99C38D4799A4896713850771970012
:1007F2000000E780C0ACB70705F093874704984331
:10080200B70705F0938747041367870098C3B707B4
:1008120005F0938707049843B70705F09387070409
:100822001367870098C3B70705F093874704984377
:10083200B70705F0938747041367470098C3B707C4
:1008420005F0938707049843B70705F093870704D9
:100852001377B70F98C3B70705F0938747049843F8
:10086200B70705F0938747041367270098C3A94782
:10087200A307F4FE31A8930704FE85453E85970041
:100882000000E780E0B58347F4FEFD17A307F4FEFE
:100892008347F4FEEDF3230704FE814501459700EB
:1008A2000000E78000DCAA873E8785476316F714BD
:1008B2009305A01A214597000000E78080DAAA87F5
:1008C2003E8785476313F70A930704FE91453E85E9
:1008D20097000000E780C0B0034724FE8547631DF0
:1008E200F710034734FE9307A00A6317F710930724
:1008F200803E2324F4FE35A0B70500401305900A7C
:1009020097000000E780E0D5AA8785C31305803EE3
:1009120097000000E780A09A832784FEFD17232416
:10092200F4FE832784FEE9FB11A00100832784FEE5
:10093200E1C781451305A00397000000E78060D25C
:10094200AA87DDEB930704FE91453E8597000000E0
:10095200E78000A9834704FE93F7070499C3B147D0
:1009620011A091472307F4FE41A881451305900A7F
:1009720097000000E780E0CEAA873E87854763EABA
:10098200E70089472307F4FE930790FAA306F4FED3
:1009920039A085472307F4FE8547A306F4FE930793
:1009A200803E2324F4FE35A08347D4FE81453E8554
:1009B20097000000E780E0CAAA8785C31305803E3E
:1009C20097000000E780A08F832784FEFD17232471
:1009D200F4FE832784FEE9FB11A00100832784FE35
:1009E20091CB93050020414597000000E78060C746
:1009F200AA8799C3230704FEB78700800347E4FE52
:100A02002386E7A28347E4FE93B7170093F7F70F15
:100A1200A303F4FEB7870080034774FE2380E7A098
:100A220097000000E780E0B1834774FE3E85B25034
:060A3200225445618280A0
:100A3800797106D622D40018AA87232CB4FC232A5D
:100A4800C4FC2328D4FCA30FF4FC832744FD2326ED
:100A5800F4FE8347F4FD3E8597000000E780C0D48C
:100A6800AA87858B99C38D4745A0B787008083C720
:100A7800C7A2A18B91E78327C4FEA6072326F4FE0D
:100A8800032704FD854763F4E700C94711A0C5475C
:100A9800A305F4FE8347B4FE8325C4FE3E85970074
:100AA8000000E780A0BBAA87B1E7930500200325D3
:100AB80084FD97000000E78040B1AA8785C383279B
:100AC80084FD93870720232CF4FC832704FDFD175E
:100AD8002328F4FC832704FDE9FB11A00100034748
:100AE800B4FEC9476318F7008145314597000000F7
:100AF800E780C0B697000000E78040A4832704FD84
:100B0800B337F00093F7F70F3E85B2502254456192
:020B18008280D9
:100B1A00797122D60018232EA4FC8327C4FD8507E9
:100B2A0083C707002317F4FE8357E4FEA20713972F
:100B3A00070141878327C4FD83C70700C207C1870E
:100B4A00D98FC207C1872317F4FE8357E4FE3E8577
:060B5A0032544561828067
:100B6000797122D60018232EA4FC8327C4FD8D079B
:100B700083C707002326F4FE8327C4FEA2070327AA
:100B8000C4FD090703470700D98F2326F4FE8327F6
:100B9000C4FEA2070327C4FD050703470700D98F3A
:100BA0002326F4FE8327C4FEA2070327C4FD0347C0
:100BB0000700D98F2326F4FE8327C4FE3E853254D6
:040BC0004561828089
:100BC400797122D60018232EA4FC232CB4FC232AEA
:100BD400C4FC8327C4FD2326F4FE832784FD232439
:100BE400F4FE832744FD8DCB032784FE930717006F
:100BF4002324F4FE8327C4FE938617002326D4FE01
:100C0400034707002380E700832744FDFD17232AB9
:100C1400F4FC832744FDE9FB0100325445618280E2
:100C2400797122D60018232EA4FC232CB4FC232A89
:100C3400C4FC8327C4FD2326F4FE8327C4FE138744
:100C440017002326E4FE032784FD1377F70F238080
:100C5400E700832744FDFD17232AF4FC832744FD82
:0A0C6400E9FF01003254456182806F
:100C6E00797122D60018232EA4FC232CB4FC232A3F
:100C7E00C4FC8327C4FD2326F4FE832784FD23248E
:100C8E00F4FE232204FE8327C4FE138717002326B7
:100C9E00E4FE83C70700BE86832784FE13871700F2
:100CAE002324E4FE83C70700B387F6402322F4FE15
:100CBE00832744FDFD17232AF4FC832744FD81C7B7
:100CCE00832744FEE9D3832744FE3E853254456193
:020CDE00828012
:100CE000011122CE00102326A4FE2324B4FE31A03D
:100CF0008327C4FE85072326F4FE8327C4FE83C70B
:100D0000070091CB8327C4FE83C707003E87832754
:100D100084FEE39FE7FC8327C4FE83C707003E856C
:060D2000724405618280AF
:100D2600011122CE0010AA87A307F4FE930710082C
:100D36000347F4FE6368F7029307F0090347F4FEDE
:100D460063E4E700854705A09307000E0347F4FE1A
:100D5600636AF7009307C00F0347F4FE63E4E700F6
:0E0D6600854711A081473E8572440561828059
:100D7400011122CE0010AA87A307F4FE93070004F2
:100D84000347F4FE6364F7049307E0070347F4FEA4
:100D940063E4E700854725A8930700080347F4FEAA
:100DA400636AF7009307C00F0347F4FE63E4E700A8
:100DB400854731A801478347F4FE63E9E70001470B
:100DC4008347F4FE6364F700854711A081473E859D
:060DD400724405618280FB
:100DDA00797106D622D40018232EA4FC232CB4FC45
:100DEA00232604FE8327C4FDDC53032784FD630303
:100DFA00F7048327C4FE9DEF8327C4FD03C71700AA
:100E0A008327C4FD938787028546032684FDBE8512
:100E1A003A8597000000E780C0C1AA8799C7FD57A5
:100E2A00232CF4FC85472326F4FE8327C4FD0327DD
:100E3A0084FDD8D38327C4FE3E85B250225445612F
:020E4A008280A4
:100E4C00011106CE22CC26CA00102326A4FE232490
:100E5C00B4FE832784FEF9172324F4FE8327C4FEF3
:100E6C00DC47F917032784FE6364F70081470DA064
:100E7C008327C4FE84538327C4FE83D7A70083250E
:100E8C0084FE3E8597F0FFFFE7804035AA87A69742
:0C0E9C003E85F2406244D2440561828031
:100EA800797106D622D40018232EA4FC232CB4FC76
:100EB8008327C4FD9C432324F4FE032784FD854730
:100EC80063F9E700832784FEDC47032784FD636614
:100ED800F70085472326F4FE51A2FD572326F4FE8A
:100EE800832784FE83C7070009476384E70C0D47FF
:100EF8006384E71005476398E714832784FD23225A
:100F0800F4FE832744FE8583032744FEBA972322F1
:100F1800F4FE832784FE984F832744FEA583BA975F
:100F2800BE85032584FE97000000E780C0EAAA87F3
:100F3800639F0710832744FE138717002322E4FECC
:100F480093F7F71F032784FEBA9783C787022320E6
:100F5800F4FE832784FE984F832744FEA583BA971F
:100F6800BE85032584FE97000000E780C0E6AA87B7
:100F7800EDE3832744FE93F7F71F032784FEBA9710
:100F880083C78702A2073E87832704FED98F2320C1
:100F9800F4FE832784FD858B89C7832704FE91830C
:100FA80031A0032704FE8567FD17F98F2326F4FE79
:100FB80075A0832784FE984F832784FDA183BA9761
:100FC800BE85032584FE97000000E780C0E0AA875D
:100FD800D9E3832784FE13878702832784FD860746
:100FE80093F7E71FBA973E8597000000E780A0B205
:100FF800AA872326F4FE9DA0832784FE984F832783
:1010080084FD9D83BA97BE85032584FE9700000062
:10101800E78060DCAA87B1E3832784FE1387870211
:10102800832784FD8A0793F7C71FBA973E859700E1
:101038000000E780A0B22A87B7070010FD17F98FD4
:101048002326F4FE21A885472326F4FE01A80100E3
:1010580031A0010021A0010011A001008327C4FED6
:0A1068003E85B2502254456182809B
:10107200797106D622D40018232EA4FC232CB4FCAA
:101082008327C4FD9C432324F4FE032784FDB70772
:1010920020006376F700832784FDFD8B99C389477F
:1010A2001DA28327C4FD032784FD98CB8327C4FD9B
:1010B2009C472326F4FE8327C4FE89EF832784FE00
:1010C20003C70700894763F7E700832784FEDC4FE5
:1010D2002326F4FE8327C4FE9DE3832784FD9583A4
:1010E200032784FE0357870063E4E7008947E1A8EA
:1010F200832784FED84F8327C4FD98CF59A0832726
:1011020084FE83D7A700A6072322F4FE89A883279B
:10111200C4FD8325C4FE3E8597000000E780E0D829
:101122002326A4FE0327C4FEFD576314F700854758
:1011320059A80327C4FE854763F9E700832784FE85
:10114200DC470327C4FE6364F7008947ADA8032781
:1011520084FD832744FEB307F740232CF4FC0327C6
:1011620084FD832744FEE374F7FA8325C4FE032536
:1011720084FE97000000E78080CD2A878327C4FD84
:1011820098CF8327C4FD0327C4FED8CB8327C4FD91
:101192009C4F99E3894705A88327C4FD984F83276D
:1011A20084FDA5833E978327C4FD98CF832784FEC1
:1011B20013878702832784FD93F7F71F3E978327C0
:1011C200C4FDD8CF81473E85B2502254456182800A
:1011D200797106D622D40018232EA4FC232CB4FC49
:1011E2008327C4FD9C432326F4FE8327C4FD9C4B26
:1011F200938707022324F4FE032784FEB707200007
:101202006366F7008327C4FD23AC07008327C4FD70
:101212009C4F99E39147EDA8832784FE93F7F71F2C
:10122200F1E78327C4FD9C4F138717008327C4FD72
:1012320098CF8327C4FDDC4B85E3832784FE958307
:101242000327C4FE0357870063E2E70A8327C4FD2E
:1012520023AC070091476DA8832784FEA58303274B
:10126200C4FE0357A7007D17F98FC9E30327C4FD06
:101272008327C4FDDC4BBE853A8597000000E780DA
:10128200C0C22322A4FE032744FE854763E4E7008D
:101292008947BDA8032744FEFD576314F70085471D
:1012A20085A88327C4FEDC47032744FE636FF7004B
:1012B200832784FD89E78327C4FD23AC07008327A6
:1012C200C4FD23AC07009147A1A08327C4FD0327D7
:1012D20044FED8CB832544FE0325C4FE97000000BC
:1012E200E780E0B62A878327C4FD98CF8327C4FD11
:1012F200032784FE98CB8327C4FE138787028327A4
:1013020084FE93F7F71F3E978327C4FDD8CF81470A
:0A1312003E85B250225445618280EE
:10131C00797106D622D40018232EA4FC232CB4FCFD
:10132C00832784FDE9073E8597F0FFFFE780607E09
:10133C00AA872326F4FE8327C4FD03C707008D4725
:10134C006311F702832784FDD1073E8597F0FFFFD9
:10135C00E780207CAA87C2070327C4FED98F2326E7
:10136C00F4FE8327C4FE3E85B25022544561828030
:10137C00797106D622D40018232EA4FC232CB4FC9D
:10138C0091472326F4FE8327C4FD9C432324F4FEBB
:10139C004DA88327C4FD9C4FBE85032584FE970072
:1013AC000000E78000A32326A4FE8327C4FED9EF08
:1013BC008327C4FDDC4F83C70700A303F4FE8347D8
:1013CC0074FE89E791472326F4FE71A08327C4FDA0
:1013DC00DC4FAD0783C7070093F7F7032303F4FE35
:1013EC008327C4FD034764FE2383E700034774FE91
:1013FC009307500E630BF702034774FE9307E0024A
:10140C006305F702034764FEBD476300F702834799
:10141C0064FE93F7F7FDE11793B7170093F7F70FF7
:10142C003E87832784FD6385E70281450325C4FD40
:10143C0097000000E78060D92326A4FE8327C4FE12
:10144C0091EB8327C4FD9C4FA9F731A0010021A08B
:10145C00010011A001008327C4FE89C78327C4FDA6
:10146C0023AC07008327C4FE3E85B250225445614D
:02147C0082806C
:10147E00797106D622D40018232EA4FC8327C4FD2E
:10148E009C432324F4FE81450325C4FD97000000F0
:10149E00E78080BD2326A4FE8327C4FE81C7832751
:1014AE00C4FE75A08327C4FD9C4FBE85032584FE14
:1014BE0097000000E780C0912326A4FE8327C4FE78
:1014CE00D1E38327C4FDDC4F83C70700A303F4FEDB
:1014DE00834774FE89E791472326F4FEBDA0832738
:1014EE00C4FDDC4FAD0783C7070093F7F70313F76F
:1014FE00F70F8327C4FD2383E7008327C4FDDC4F4A
:10150E00AD0783C70700A18B8DE38327C4FDD84F9A
:10151E008327C4FD938707022D46BE853A8597F033
:10152E00FFFFE7802074AA8785C381450325C4FD8C
:10153E0097000000E78040C92326A4FE8327C4FE3F
:10154E00B5D321A0010011A001008327C4FE3E8562
:08155E00B25022544561828065
:10156600797106D622D40018232EA4FC232CB4FCB1
:10157600832784FDA38407008327C4FD9C4F6386CD
:101586000710232404FE832784FE2326F4FEADA839
:101596008327C4FDD84F8327C4FE938617002326CE
:1015A600D4FEBA9783C70700A303F4FE034774FE6D
:1015B600930700026313F70081A8034774FE95475B
:1015C6006315F7009557A303F4FE0327C4FEA5474A
:1015D600631FF700832784FE138717002324E4FE86
:1015E600032784FDBA971307E002A384E700832745
:1015F60084FE138717002324E4FE032784FDBA978D
:10160600034774FEA384E7000327C4FEA947E3F15A
:10161600E7F8032784FD832784FEBA97A38407008F
:101626008327C4FDDC4F03C7B700832784FD2384CB
:10163600E7008327C4FDDC4FF1073E8597F0FFFFE7
:10164600E780E0512A87832784FD98C38327C4FD5A
:10165600DC4FD9073E8597F0FFFFE780E04BAA876E
:101666003E87832784FD2393E7008327C4FDDC4F51
:10167600E1073E8597F0FFFFE780004AAA873E878D
:10168600832784FD2392E70011A00100B250225463
:0416960045618280A8
:10169A00797106D622D40018232EA4FC8327C4FD10
:1016AA009C43938617000327C4FD14C383C707000E
:1016BA002326F4FE0327C4FE9307000663FDE70012
:1016CA000327C4FE9307A00763E7E7008327C4FE46
:1016DA0081172326F4FE8327C4FE93F7F70F3E856E
:1016EA0097F0FFFFE780C063AA87A1C38327C4FDE1
:1016FA009C4383C707003E8597F0FFFFE78020677A
:10170A00AA878DC38327C4FE139787008327C4FD46
:10171A009C43138617008326C4FD90C283C7070023
:10172A00D98F11A081472326F4FE8327C4FE3E8564
:08173A00B25022544561828087
:10174200397106DE22DC80002326A4FC2324B4FCAB
:101752002322C4FC2320D4FC21A8930784FC3E85C9
:1017620097000000E78080F3AA8799E381471DAACA
:10177200832744FC1387F7FF2322E4FCF9FF832726
:10178200C4FC83C7070091E7832704FC99C38547FC
:1017920011AA8327C4FC232EF4FC832784FC232C68
:1017A200F4FC8327C4FD03C707009307F003630A11
:1017B200F7008327C4FD03C707009307A00263163F
:1017C200F708232204FE832744FE2324F4FE832702
:1017D200C4FD13871700232EE4FC03C707009307F9
:1017E200F0036318F700832784FE85072324F4FEA1
:1017F20021A085472322F4FE8327C4FD03C70700E7
:101802009307F003E305F7FC8327C4FD03C7070032
:101812009307A002E30DF7FA8327C4FD032784FD93
:10182200832644FE032684FEBA853E859700000087
:10183200E78040F1AA8799C38547ADA0832784FD3D
:1018420083C707002326F4FE3DA89307C4FD3E8507
:1018520097000000E78080E42320A4FE930784FD24
:101862003E8597000000E78060E32326A4FE03275D
:1018720004FE8327C4FE6317F700832704FE95F353
:1018820085470DA00100930784FC3E859700000068
:10189200E780C0E0832704FC89C78327C4FEE39A5C
:0E18A20007EE81473E85F2506254216182803C
:1018B000397106DE22DC80002326A4FC2324B4FC3C
:1018C000832784FC9C43232EF4FC8327C4FC93874A
:1018D0000702232CF4FC2D4693050002032584FD0A
:1018E00097F0FFFFE7804034232004FE832704FEA7
:1018F0002322F4FEA1472324F4FE832744FE13870A
:1019000017002322E4FE0327C4FDBA9783C707000C
:10191000A307F4FE0347F4FE9307000263FCE716F7
:101920000347F4FE9307F002630EF7000347F4FE4B
:101930009307C005631FF70231A0832744FE850784
:101940002322F4FE0327C4FD832744FEBA9703C76E
:1019500007009307F002E302F7FE0327C4FD832785
:1019600044FEBA9703C707009307C005E307F7FCD7
:101970001DA20347F4FE9307E0026308F700032764
:1019800004FE832784FE6366F702032784FEAD47C7
:101990006308F7000347F4FE9307E0026304F700CF
:1019A000994799A2A1472320F4FEAD472324F4FED2
:1019B000CDA08347F4FE3E8597F0FFFFE780E03639
:1019C000AA87BDCB832744FE138717002322E4FE9A
:1019D0000327C4FDBA9783C70700A30BF4FC834712
:1019E00074FD3E8597F0FFFFE7800039AA8781CB21
:1019F000832784FEFD17032704FE6364F7009947DD
:101A0000E5A0832704FE138717002320E4FE0327A5
:101A100084FDBA970347F4FE2380E700832704FE82
:101A2000138717002320E4FE032784FDBA9703479A
:101A300074FD2380E700D1B58347F4FEBE85B777F8
:101A400000801385C79A97F0FFFFE780A029AA8737
:101A500099C3994751A80347F4FE9307000663FD15
:101A6000E7000347F4FE9307A00763E7E700834717
:101A7000F4FE8117A307F4FE832704FE13871700E3
:101A80002320E4FE032784FDBA970347F4FE238056
:101A9000E700A5B501000327C4FD832744FE3E9758
:101AA000832784FC98C3832704FE99E399472DA8D4
:101AB000832784FD03C707009307500E6317F700C1
:101AC000832784FD15472380E7000347F4FE93072F
:101AD000000263E4E700914711A08147032784FDDA
:101AE0002D072300F70081473E85F25062542161A3
:021AF0008280F2
:101AF200797106D622D40018232EA4FC232CB4FC20
:101B02008327C4FD9C432324F4FE31A0832784FD54
:101B12008507232CF4FC832784FD03C70700930762
:101B2200F002E305F7FE832784FD03C7070093074E
:101B3200C005E30DF7FC8327C4FD23A40700832718
:101B420084FD03C70700FD4763E2E7028327C4FD64
:101B5200130700F8A385E70281450325C4FD97F02A
:101B6200FFFFE78020512326A4FE75A0930784FD82
:101B7200BE850325C4FD97000000E78080D323269D
:101B8200A4FE8327C4FED9E30325C4FD9700000009
:101B9200E780008F2326A4FE8327C4FD83C7B702F4
:101BA200A303F4FE8327C4FE91CF0327C4FE91470B
:101BB2006310F706834774FE918BB9EB9547232692
:101BC200F4FEB9A0834774FE918BA9E78327C4FD75
:101BD20083C76700C18B89E795472326F4FE25A8B2
:101BE200832784FE138787028327C4FD9C4B93F7C8
:101BF200F71FBA97BE85032584FE97F0FFFFE780A3
:101C020000722A878327C4FD98C78DB7010021A0DF
:101C1200010011A001008327C4FE3E85B250225468
:041C22004561828016
:101C2600397122DE80002326A4FCFD572322F4FE10
:101C36008327C4FC9C432320F4FE832704FE23262B
:101C4600F4FE832704FE81E7832744FE5DA08327F5
:101C5600C4FE138717002326E4FE83C70700A30FDD
:101C6600F4FC0347F4FD9307000263F8E70003471B
:101C7600F4FD9307A003E31CF7FC0347F4FD930769
:101C8600A0036314F70685472324F4FE832704FE86
:101C960003C707009307F00263F9E702832704FEF0
:101CA60003C707009307900363E1E702832704FE57
:101CB60089070327C4FE631AF700832704FE83C738
:101CC6000700938707FD2324F4FE832784FE634BD6
:101CD600F000832784FE2322F4FE8327C4FC032717
:101CE600C4FE98C3832744FE29A0232204FE83272B
:0A1CF60044FE3E8572542161828095
:101D0000011106CE22CC00102326A4FE2324B4FE0B
:101D10008327C4FEA38107008327C4FE7D57D8D341
:101D2000832584FE0325C4FE97F0FFFFE780200B88
:101D3000AA8799C3914775A08327C4FE938787021A
:101D40009387E71F3E8597F0FFFFE78040DDAA8776
:101D50003E87AD67938757A56304F7008D4751A071
:101D60008327C4FE03C787029307900E6302F7021E
:101D70008327C4FE03C787029307B00E630AF700E8
:101D80008327C4FE03C787029307800E631AF704F4
:101D90008327C4FE93878702138767030D46B777AF
:101DA00000809385C79B3A8597F0FFFFE78060EC42
:101DB000AA8799E3814735A08327C4FE93878702CA
:101DC000138727051546B77700809385079C3A85CA
:101DD00097F0FFFFE780E0E9AA8799E3814711A028
:0C1DE00089473E85F24062440561828024
:101DEC00397106DE22DC80002326A4FC2324B4FCFB
:101DFC0081450325C4FC97000000E780E0EF232415
:101E0C00A4FE032784FE8947630DF700032784FE95
:101E1C00894763E5E700832784FC81E7832784FEF9
:101E2C00C9A0232604FE35A88327C4FC1387870288
:101E3C008327C4FE92079387671CBA973E8597F059
:101E4C00FFFFE78060D12A878327C4FE8A079306A9
:101E5C0004FFB69723A4E7FE8327C4FE8507232639
:101E6C00F4FE0327C4FE8D47E3F0E7FC832784FCD4
:101E7C0089C7832784FCFD1711A081472326F4FE14
:101E8C008327C4FE8A07130704FFBA9783A787FE2C
:101E9C0095C38327C4FE8A07130704FFBA9783A749
:101EAC0087FEBE850325C4FC97000000E780C0E4D4
:101EBC00AA8711A08D472324F4FE832784FC85E395
:101ECC00032784FE854763FCE7008327C4FE850750
:101EDC002326F4FE0327C4FE8D47E3F3E7FA83279A
:0C1EEC0084FE3E85F25062542161828029
:101EF8005D7186C6A2C48008232EA4FA232CB4FAE6
:101F0800B287A30BF4FA832784FB23A007000325D9
:101F1800C4FB97000000E780C0D0232EA4FC8327D1
:101F2800C4FD63D40700AD472DA9B78700800327F8
:101F3800C4FD0A07938707A3BA979C43232CF4FC94
:101F4800832784FD99E3B14729A9832784FB0327C5
:101F580084FD98C3834774FBF99BA30BF4FA83278A
:101F680084FD83C707009DC3832784FD83C71700AB
:101F78003E8597F0FFFFE7802083AA87A30BF4FC38
:101F8800834774FD858B99E38147E1AE832784FD00
:101F9800238007008327C4FD13F7F70F832784FDE9
:101FA800A380E700832784FD83C717003E8597F049
:101FB800FFFFE780C081AA87A30BF4FC834774FD69
:101FC800858B99C38D4771AE8145032584FD9700A4
:101FD8000000E78060E12320A4FE032704FE914768
:101FE8006314F7008547B5AE032704FE854763F4FD
:101FF800E700B547BDA6832784FDDC532328F4FCFE
:10200800832784FD93878702AD073E8597F0FFFFFE
:10201800E78060B0AA873E87930700206304F70033
:10202800B54781A6832784FD93878702D9073E8514
:1020380097F0FFFFE78020AEAA872324F4FE8327CA
:1020480084FE91EF832784FD938787029387470255
:102058003E8597F0FFFFE78060B02324A4FE832726
:1020680084FD032784FE98CB832784FD03C7870359
:10207800832784FD2381E700832784FD03C7270086
:102088008547630BF700832784FD03C7270089472B
:102098006304F700B547F1A4832784FD83C72700AD
:1020A800BE85032584FE97E0FFFFE7806013AA87BB
:1020B8002324F4FE832784FD83C75703139707015E
:1020C8004183832784FD2395E700832784FD83D7F5
:1020D800A70089CF832784FD83D7A7003E8783275E
:1020E80084FD83D7A700FD17F98F99C3B54795AC31
:1020F800832784FD93878702C5073E8597F0FFFFF6
:10210800E78060A1AA873E87832784FD2394E700A0
:10211800832784FD83D78700BD8BC207C18399C3FA
:10212800B54781A4832784FD93878702CD073E8521
:1021380097F0FFFFE780209EAA872326F4FE8327D7
:10214800C4FE91EF832784FD938787029387070254
:102158003E8597F0FFFFE78060A02326A4FE832733
:1021680084FD93878702B9073E8597F0FFFFE780D4
:10217800809AAA872317F4FC8357E4FC99E3B547B0
:10218800CDA20357E4FC832784FEBA97032784FD76
:1021980003578700118342074183BA972324F4FC2D
:1021A8000327C4FE832784FC6374F700B54755AA48
:1021B8000327C4FE832784FC1D8F832784FD83D7D0
:1021C800A700BE853A8597E0FFFFE7802004AA872D
:1021D8002322F4FC832744FC99E3B54759A2232022
:1021E80004FE032744FCB7070010D51763E5E70092
:1021F8008D472320F4FE032744FCC167D51763E508
:10220800E70089472320F4FE032744FC8567D51798
:1022180063E5E70085472320F4FE832704FE99E35E
:10222800B54781A2832744FC13872700832784FDB1
:10223800D8C7832784FD032704FDD8CB0357E4FCC4
:10224800832704FD3E97832784FD98CF032704FD49
:10225800832784FC3E97832784FD98D3032704FEB5
:102268008D47631EF704832784FD9387870293872E
:10227800A7023E8597F0FFFFE780E089AA8799C308
:10228800B547C5A0832784FD83D7870099C3B54781
:10229800C9A8832784FD938787029387C7023E8551
:1022A80097F0FFFFE780808B2A87832784FDD8CFAC
:1022B800832784FDDC478A072322F4FE91A883271D
:1022C80084FD83D7870099E3B54761A8832784FDF8
:1022D800984F832784FE3E97832784FDD8CF032712
:1022E80004FE89476317F700832784FDDC478607C8
:1022F80031A8832784FDD847BA878607BA9713D7AA
:102308001700832784FDDC47858BBA972322F4FEC8
:10231800832784FD984B832744FE9387F71FA58363
:102328006374F700B54735A8832704FE13F7F70F42
:10233800832784FD2380E700B787008083D747A3DE
:102348008507139707014183B7870080239AE7A27F
:10235800B787008003D747A3832784FD2393E7002B
:0C23680081473E85B640264461618280BA
:10237400797106D622D40018232EA4FC232CB4FC95
:10238400A5472326F4FE8327C4FDA9C78327C4FDDC
:102394009C43A9C38327C4FD9C4383C707009DCBEB
:1023A4008327C4FD03D747008327C4FD9C4383D7F9
:1023B40067006311F7028327C4FD9C4383C717009A
:1023C4003E8597E0FFFFE780603EAA87858B99E30F
:1023D400232604FE8327C4FE89E78327C4FD9C4388
:1023E40011A08147032784FD1CC38327C4FE3E85B7
:0823F400B250225445618280C1
:1023FC00797106D622D40018232EA4FC232CB4FC0D
:10240C00B287A30BF4FC832784FD2320F4FE9307EF
:10241C0004FE3E8597000000E78060802326A4FE22
:10242C008327C4FE63D40700AD478DA8B78700800F
:10243C000327C4FE0A07938707A3BA979C43232458
:10244C00F4FE832784FE89C7832784FE238007003C
:10245C008327C4FD89C78327C4FD23800700032776
:10246C00C4FDB78700808326C4FE8A06938707A322
:10247C00B69798C3834774FD99E3814705A013076A
:10248C00C4FD930784FD0146BA853E859700000084
:10249C00E78000A62322A4FE832744FE3E85B2508B
:0624AC002254456182800C
:1024B2001D7186CEA2CC80102326A4FA2324B4FA5E
:1024C200B287A303F4FA8327C4FA99E3A54709A2C2
:1024D200834774FA858BA303F4FA834674FA1307CD
:1024E20084FB930784FA3686BA853E8597000000FE
:1024F200E780A0A02326A4FE8327C4FEE9E3832766
:1025020084FB232EF4FA032784FA9307C4FBBA85CB
:102512003E8597F0FFFFE780E05D2326A4FE832738
:10252200C4FE95E3834774FEE207E18763D60700A2
:1025320099472326F4FE01A8834724FCC18B81C757
:1025420091472326F4FE8327C4FEB5EB832784FB41
:10255200032784FDBA853E8597F0FFFFE78020DCE4
:102562002A878327C4FA98C7832784FDF1073E850B
:1025720097E0FFFFE780E05E2A878327C4FAD8C787
:10258200032784FB8327C4FA98C3832784FB03D7DA
:1025920067008327C4FA2392E7008327C4FA03471C
:1025A20074FA2388E7008327C4FAA38807008327E5
:1025B200C4FA23AE07008327C4FA23AA070083279D
:1025C200C4FE89C78327C4FA23A007008327C4FE59
:0A25D2003E85F640664425618280D4
:1025DC005D7186C6A2C48008232EA4FA232CB4FAFB
:1025EC00232AC4FA2328D4FA832784FB232EF4FC51
:1025FC00832704FB23A007008327C4FB1307C4FC19
:10260C00BA853E8597000000E78040D62326A4FEBD
:10261C008327C4FE91EB8327C4FB83C717012326B2
:10262C00F4FE8327C4FE81C78327C4FEB5A4832789
:10263C00C4FB83C70701858B99E39D47B1AC832706
:10264C00C4FBD8478327C4FBDC4BB307F740232CD0
:10265C00F4FC032744FB832784FD63FAE7228327DA
:10266C0084FD232AF4FA25A48327C4FBDC4B93F7BF
:10267C00F71F639507188327C4FBDC4BA58303273F
:10268C00C4FC0357A7007D17F98F232AF4FC83277A
:10269C0044FDADE78327C4FBDC4B99E78327C4FBE0
:1026AC009C472324F4FE31A80327C4FB8327C4FBD7
:1026BC009C4FBE853A8597E0FFFFE780607E232420
:1026CC00A4FE032784FE854763E9E7008327C4FB48
:1026DC000947A388E7008947C1A2032784FEFD5759
:1026EC006319F7008327C4FB0547A388E7008547D8
:1026FC0065A28327C4FB032784FE98CF0327C4FC61
:10270C008327C4FB9C4FBE853A8597E0FFFFE7808B
:10271C0060732328A4FC832704FD81EB8327C4FB6F
:10272C000947A388E700894785AA032704FD832767
:10273C0044FDBA972328F4FC832744FBA58323206C
:10274C00F4FE832704FEADC7032744FD832704FE54
:10275C00BA970327C4FC0357A700637DF7008327B0
:10276C00C4FC83D7A7003E87832744FDB307F740FB
:10277C002320F4FE8327C4FC83C71700832604FEA2
:10278C00032604FD8325C4FD3E8597E0FFFFE7800B
:10279C00202AAA8781CB8327C4FB0547A388E7009F
:1027AC008547DDA8832704FEA6072322F4FE79A81B
:1027BC008327C4FBDC4F032704FD630CF70283273C
:1027CC00C4FC03C717008327C4FB93870702854605
:1027DC00032604FDBE853A8597E0FFFFE780402580
:1027EC00AA8781CB8327C4FB0547A388E7008547CD
:1027FC0065A08327C4FB032704FDD8CF8327C4FB24
:10280C00DC4B93F7F71F13070020B307F740232285
:10281C00F4FE032744FE832744FB63F6E70083277B
:10282C0044FB2322F4FE8327C4FB13870702832770
:10283C00C4FBDC4B93F7F71FBA97032644FEBE8507
:10284C000325C4FD97E0FFFFE7804037032744FBD7
:10285C00832744FEB307F740232AF4FA832704FBAB
:10286C009843832744FE3E97832704FB98C3032792
:10287C00C4FD832744FEBA97232EF4FC8327C4FBA4
:10288C00D84B832744FE3E978327C4FBD8CB8327A2
:10289C0044FBE39B07DC81473E85B64026446161DF
:0228AC00828028
:1028AE00797106D622D40018232EA4FC8327C4FDEA
:1028BE00130784FEBA853E8597000000E780E0AAE4
:1028CE002326A4FE8327C4FE89E78327C4FD23A005
:1028DE0007008327C4FE3E85B25022544561828094
:1028EE00797106D622D40018232EA4FC232CB4FC16
:1028FE008327C4FD99E3A547D1A8130784FE930748
:10290E0084FD0146BA853E8597F0FFFFE780205E85
:10291E002326A4FE8327C4FECDE3032784FE83274C
:10292E00C4FD98C3832784FDBE850325C4FD97F09F
:10293E00FFFFE780601B2326A4FE8327C4FEB5E7B6
:10294E008327C4FD83C7B702E207E18763CB070283
:10295E008327C4FD83C76700C18B8DC3032784FE05
:10296E008327C4FDDC4FBE853A8597F0FFFFE780D5
:10297E00409A2A878327C4FD98C721A0954723260E
:10298E00F4FE8327C4FE95E3832784FE03D76700F6
:10299E008327C4FD2392E70081450325C4FD97E0FC
:1029AE00FFFFE780606C2326A4FE0327C4FE914739
:1029BE006315F70095472326F4FE8327C4FE89C7C7
:1029CE008327C4FD23A007008327C4FE3E85B25093
:0629DE00225445618280D5
:1029E400797106D622D40018232EA4FC8327C4FDB3
:1029F400130784FEBA853E8597000000E780809720
:102A04002326A4FE8327C4FE89E78327C4FD23A0CD
:102A140007008327C4FE3E85B2502254456182805C
:102A2400797106D622D40018232EA4FC232CB4FCDE
:102A34008327C4FD130784FEBA853E8597000000F2
:102A4400E78040932326A4FE8327C4FEADEB8327AF
:102A540084FD99EB81450325C4FD97E0FFFFE780E2
:102A640040612326A4FEA1A881450325C4FD97F057
:102A7400FFFFE780A0902326A4FE0327C4FE91470E
:102A84006314F700232604FE8327C4FE8DEB8325FD
:102A940084FD0325C4FD97F0FFFFE780C0AC8145AA
:102AA4000325C4FD97E0FFFFE780A0722326A4FE60
:102AB4000327C4FE91476314F700232604FE8327EB
:0C2AC400C4FE3E85B25022544561828061
:102AD000797106D622D40018232EA4FC232CB4FC32
:102AE000832584FD0325C4FD97000000E780C0F323
:102AF0002326A4FE8327C4FE9DEB832784FD85CB7C
:102B0000832784FD83C797009DC38327C4FDD857BF
:102B1000832784FDA50781460146BE853A8597F047
:102B2000FFFFE78040C2AA8791E35DBF01008327D2
:0C2B3000C4FE3E85B250225445618280F4
:102B3C00797106D622D40018232EA4FC232CB4FCC5
:102B4C00232AC4FC2328D4FC8327C4FD032704FDBB
:102B5C00D8D7832544FD0325C4FD97000000E780EA
:102B6C0080D82326A4FE8327C4FE99EB832584FDFD
:102B7C000325C4FD97000000E78000F52326A4FE82
:0E2B8C008327C4FE3E85B250225445618280EC
:102B9A00011122CE00102326A4FE8327C4FE9C43E3
:102BAA003E85724405618280011122CE00102326DF
:102BBA00A4FE8327C4FE9C433E857244056182803D
:102BCA00011122CE00102326A4FE8327C4FE9C43B3
:082BDA003E8572440561828012
:102BE200011106CE22CC00102326A4FE8327C4FEA8
:102BF20091073E8597000000E78040FAAA87E183AB
:102C02003E85F240624405618280011106CE22CCEB
:102C120000102326A4FE8327C4FE91073E85970059
:102C22000000E780A0FAAA87E1833E85F240624471
:042C32000561828036
:102C3600011106CE22CC00102326A4FE0100032596
:102C4600C4FE97000000E780A0F9AA87EDDB032504
:102C5600C4FE97000000E78020F4AA8793F7F70FD9
:102C66003E85F240624405618280011106CE22CC87
:102C760000102326A4FE01000325C4FE97000000D1
:102C8600E780A0F8AA87EDDB0325C4FE97000000C5
:102C9600E78080F3AA8793F7F70F3E85F2406244F8
:042CA60005618280C2
:102CAA00011106CE22CC00100100370501F0970071
:102CBA000000E780E0F7AA872326F4FE8327C4FEF4
:0E2CCA0093F7F70F3E85F24062440561828069
:102CD800411106C622C40008370501F0970000001C
:102CE800E780E0EFAA873E85B24022444101828016
:102CF800011106CE22CC0010AA87A307F4FE0347D1
:102D0800F4FEB5476316F700B787008023A007CE07
:102D18000347F4FEFD4763FCE700B787008083A7FD
:102D280007CE13871700B787008023A0E7CE834715
:102D3800F4FE3E8597200000E78020660100F240FF
:062D480062440561828077
:102D4E00411106C622C40008354597000000E780F1
:102D5E0000FA294597000000E78060F90100B240B3
:062D6E00224441018280B5
:102D7400411106C622C40008214597000000E780DF
:102D8400A0F71305000297000000E780E0F6214554
:102D940097000000E78040F60100B2402244410160
:022DA40082802B
:102DA600411106C622C4000897000000E78000FA19
:102DB6001305F00397000000E780E0F30100B2403E
:062DC6002244410182805D
:102DCC00011106CE22CC0010B78700803787008017
:102DDC00130707C923A2E7A6B787008083A747A6D6
:102DEC002326F4FE232404FE97000000E78060EB0A
:102DFC00AA87A303F4FE834774FE29476382E70482
:102E0C0029476346F7002147638AE7009DA03547B1
:102E1C006388E7026147638AE702A1A8832784FEDF
:102E2C00E1C38327C4FEFD172326F4FE832784FE0B
:102E3C00FD172324F4FE97000000E78020F34DA03B
:102E4C008327C4FE2380070071A8B787008093876F
:102E5C0007C92326F4FE11A897000000E78000F1B3
:102E6C00832784FEFD172324F4FE832784FEEDF7CD
:102E7C008DA8034774FEFD47E3F8E7F6834774FE1D
:102E8C002303F4FE97300000E78080A22A87834753
:102E9C0064FE8507BA9783C7070013F73700894785
:102EAC006317F700834764FE138707FE19A00347D7
:102EBC0064FE8327C4FE938617002326D4FE137763
:102ECC00F70F2380E700832784FE85072324F4FE75
:102EDC00834774FE3E8597000000E78060E129B7C8
:0C2EEC00010019B7F240624405618280C9
:102EF800011122CE0010AA87A307F4FE8347F4FE2F
:102F0800938707FDA307F4FE0347F4FEA54763E58F
:102F1800E7008347F4FE25A08347F4FEE517A307DF
:102F2800F4FE0347F4FEA54763FAE7000347F4FEFF
:102F3800BD4763E5E7008347F4FE11A0FD573E85D2
:062F480072440561828065
:102F4E00011106CE22CC0010232604FE25A08327D5
:102F5E00C4FE13974700832784FEBA972326F4FEF8
:102F6E00B787008083A747A613871700B78700800F
:102F7E0023A2E7A6B787008083A747A683C70700CB
:102F8E003E8597000000E78080F62324A4FE0327E9
:102F9E0084FEFD57E31DF7FA8327C4FE3E85F240FB
:062FAE006244056182800F
:102FB400411106C622C40008B787008083A747A62C
:102FC40083C707003E8597000000E780E0F22A8768
:102FD400FD576314F700814731A097000000E78094
:0E2FE40000F7AA873E85B24022444101828058
:102FF200011106CE22CC00102326A4FEB787008042
:1030020083A747A683C7070089C71307C002639532
:10301200E7008327C4FE31A097000000E780A0F9F3
:0C302200AA873E85F2406244056182806E
:10302E00011106CE22CC00102326A4FE0327C4FED7
:10303E00A54763EBE7008327C4FE93F7F70F93874B
:10304E00070393F7F70F09A88327C4FE93F7F70F2B
:10305E009387770393F7F70F3E8597000000E7807D
:0C306E0000C90100F2406244056182804C
:10307A00011106CE22CC00102326A4FE8327C4FE0B
:10308A009183BD8B3E8597000000E780E0F9832796
:10309A00C4FEBD8B3E8597000000E780E0F8010082
:0830AA00F240624405618280DE
:1030B200011106CE22CC00102326A4FE8327C4FED3
:1030C200E1833E8597000000E78040FB8327C4FE32
:1030D200C18393F7F70F3E8597000000E78000FA5F
:1030E2008327C4FEA18393F7F70F3E859700000064
:1030F200E780C0F88327C4FE93F7F70F3E85970059
:103102000000E780A0F70100F2406244056182807E
:10311200797106D622D40018B787008083A747CEDC
:103122003E8597000000E780E0ECAA872322F4FEA8
:10313200832744FEF18381EB032744FEB707008017
:10314200BA972322F4FEB787008083A747A683C7D6
:1031520007008DC3B787008083A747A69386170011
:10316200378700802322D7A603C707009307C00230
:10317200631DF716832744FE9387F7073E85970062
:103182000000E78020E7AA872320F4FE832704FEBD
:10319200F18381EB032704FEB7070080BA9723204F
:1031A200F4FEB787008083A747A683C70700639012
:1031B2000714832744FE2326F4FE29A29700000069
:1031C200E780A0B1AA8791C797000000E78000AE10
:1031D20005A297000000E780A0B78327C4FE3E85C2
:1031E20097000000E78000ED1305A00397000000A0
:1031F200E780A0B01305000297000000E780E0AF6F
:103202008327C4FE2324F4FEC147232EF4FC832724
:1032120084FE138717002324E4FE83C707003E853C
:1032220097000000E78080E5130500029700000088
:10323200E780A0AC8327C4FDFD17232EF4FC83276F
:10324200C4FDF1F71305000297000000E780E0AA31
:103252001305000297000000E78020AA8327C4FE1E
:103262002324F4FEC147232EF4FC832784FE03C7E4
:103272000700FD4763FFE700832784FE03C70700BB
:103282009307E00763E7E700832784FE83C707000D
:1032920019A09307E0023E8597000000E780E0A5B1
:1032A200832784FE85072324F4FE8327C4FDFD17AC
:1032B200232EF4FC8327C4FDCDFB8327C4FEC10764
:1032C2002326F4FE032744FE8327C4FE63E8E700B7
:1032D2000327C4FE832704FEE3F2E7EEB7870080EC
:1032E2000327C4FE23A2E7CE21A0010011A0010002
:0832F200B250225445618280B4
:1032FA00011106CE22CC0010B787008083A747CEE3
:10330A003E8597000000E78060CEAA872326F4FE58
:10331A008327C4FEF18381EB0327C4FEB70700802D
:10332A00BA972326F4FEB787008083A747A683C7E8
:10333A000700C5EF97000000E78000A18327C4FEBD
:10334A003E8597000000E78060D6130500029700CB
:10335A000000E780009A1305000297000000E7804A
:10336A0040998327C4FE83C707003E859700000063
:10337A00E78040D01305000297000000E7806097BD
:10338A0097000000E78020A4B787008083C707C999
:10339A001307E002638DE7041307E0056384E7007F
:1033AA0081CB29A88327C4FEFD172326F4FE2DA866
:1033BA008327C4FE85072326F4FE3DA0970000005C
:1033CA00E780E0BEAA868327C4FE13871700232658
:1033DA00E4FE13F7F60F2380E700B787008083A780
:1033EA0047A683C7070091E7B1B7010021A00100F2
:0C33FA0011A00100F240624405618280D5
:10340600011106CE22CC001097000000E78060BABA
:10341600AA872326F4FEB787008083A747A693864C
:103426001700378700802322D7A603C70700930714
:10343600C0026314F70897000000E78080B7AA87E8
:103446002322F4FEB787008083A747A6938617003A
:10345600378700802322D7A603C707009307C00239
:10346600631FF70497000000E780A0B4AA87A301B2
:10347600F4FEB787008083A747A683C70700B1E39A
:10348600032744FE8327C4FEB307F740850723249A
:10349600F4FE05A08327C4FE138717002326E4FE47
:1034A600034734FE2380E700832784FEFD17232489
:1034B600F4FE832784FEF9FF31A0010021A001005C
:0C34C60011A00100F24062440561828008
:1034D200011106CE22CC001097F0FFFFE780007D9D
:1034E200AA873E8597000000E78020A1AA87A3074C
:1034F200F4FE0347F4FEBD4763F4E700814719A0D9
:0E3502008347F4FE3E85F240624405618280FC
:10351000011106CE22CC26CA001097000000E780D9
:1035200080FBAA87A307F4FE8347F4FE920793F477
:10353000F70F97000000E78000FAAA87A697A30775
:10354000F4FEB787008003C787CE8347F4FEBA979F
:1035500013F7F70FB78700802384E7CE8347F4FE85
:0C3560003E85F2406244D2440561828046
:10356C00011106CE22CC26CA001097000000E7807D
:10357C00A0F9AA87A307F4FE8347F4FE939487006F
:10358C0097000000E78040F8AA87C58F3E85F2407F
:08359C006244D2440561828003
:1035A400011106CE22CC26CA0010B70700802326BC
:1035B400F4FE010097F0FFFFE780206FAA873E87A3
:1035C4009307A003E318F7FEB7870080238407CE90
:1035D40097000000E780C0F3AA872324F4FE832722
:1035E40084FE6384071097000000E78020F8AA8710
:1035F4002322F4FE97000000E78080F1AA872320AD
:10360400F4FE832704FED1C3032704FE9147631FFE
:10361400F70097000000E78060F5AA87C207232619
:10362400F4FE97000000E780A0EE7DA8032704FEC7
:103634009547631EF70A97000000E78020F3AA87E6
:10364400C2072326F4FE97000000E78020F22A87B1
:103654008327C4FED98F2326F4FE97000000E78059
:1036640020EBB78700800327C4FE23A2E7A0B78717
:10367400008083A747A0BE85B77700801385879C09
:1036840097100000E780001185A0032744FE8327DC
:10369400C4FEB304F70097000000E78060E7AA8740
:1036A4002380F400832744FE85072322F4FE832726
:1036B40084FEFD172324F4FE832784FEF9F7970084
:1036C4000000E780E0E4B787008083C787CEE38209
:1036D40007EE97F0FFFFE78080671305F00397F08C
:1036E400FFFFE780606129A0E9B5010011A0010096
:0A36F400F2406244D2440561828076
:1036FE00011106CE22CC0010B787008083A747A603
:10370E0093861700378700802322D7A683C707002A
:10371E003E8597F0FFFFE780807DAA87A307F4FE22
:10372E000347F4FEBD4763F4E700A30704FE834797
:0C373E00F4FE3E85F2406244056182808A
:10374A00011106CE22CC26CA001097000000E7809D
:10375A00A0FAAA87A307F4FE8347F4FE920793F41C
:10376A00F70F97000000E78020F9AA87A697A3071A
:10377A00F4FEB787008003C787CE8347F4FEBA9763
:10378A0013F7F70FB78700802384E7CE8347F4FE49
:0C379A003E85F2406244D244056182800A
:1037A600011106CE22CC26CA001097000000E78041
:1037B600A0F9AA87A307F4FE8347F4FE9394870033
:1037C60097000000E78040F8AA87C58F3E85F24043
:0837D6006244D24405618280C7
:1037DE001D7186CEA2CC801097F0FFFFE780805639
:1037EE000146B77700809385079EB78700801385C3
:1037FE0087A697F0FFFFE780C0BF930544FA130733
:10380E00C4FBB77700809386479EB77700801386F8
:10381E00079E3A8597F0FFFFE780A0312326A4FE8E
:10382E0091A88347C4FAC18B91CF930744FAA50799
:10383E00BE85B77700801385879E97100000E780BE
:10384E00C0F429A8930744FAA507BE85B777008070
:10385E001385479F97100000E78020F3130744FA63
:10386E009307C4FBBA853E8597F0FFFFE780A0253E
:10387E002326A4FE8327C4FE81E78347D4FAD5F31B
:10388E009307C4FB3E8597F0FFFFE780001501000C
:08389E00F640664425618280BA
:1038A600130101DA232E1124232C8124232A9124A7
:1038B6008014B70700802324F4FE97F0FFFFE7800B
:1038C600E0480146B77700809385079EB78700805A
:1038D600138587A697F0FFFFE78020B2130784DAE7
:1038E6000546B7870080938517C93A8597F0FFFF8D
:1038F600E78000BC232AA4FC832744FD91CFB78729
:103906000080938517C9B7770080138507A09710A5
:103916000000E78000E8C9A4232004FEB7870080E2
:1039260037870080130707C923A2E7A6B787008059
:1039360083A747A62328F4FC130744DA930784DAFF
:10394600BA860546832504FD3E8597F0FFFFE7808E
:10395600C0C8032744DA85476319F71E832704FD89
:1039660003C707009307A003630BF700832704FD33
:1039760003C707009307000263E5E70075BF010070
:1039860011A00100B787008037870080130707C999
:1039960023A2E7A6B787008083A747A62328F4FCBF
:1039A600130744DA930784DABA860946832504FDA9
:1039B6003E8597F0FFFFE78040C2032744DA894738
:1039C6006317F718B7870080238407CE9700000097
:1039D600E78080D7AA872326F4FE8327C4FE638A5E
:1039E60007160327C4FE9307800263E4E716B7872A
:1039F600008037870080130707C923A2E7A6B78789
:103A0600008083A747A62328F4FC8327C4FE9107DA
:103A160013971700930644DA930784DA3A868325C8
:103A260004FD3E8597F0FFFFE78020BB8327C4FE99
:103A3600910713971700832744DA631EF710970040
:103A46000000E78020D6AA872322F4FE9700000014
:103A5600E78080CFAA872326F4FC8327C4FCD1C342
:103A66000327C4FC9147631FF70097000000E78017
:103A760060D3AA87C2072324F4FE97000000E780DC
:103A8600A0CCD9A00327C4FC95476318F70C970070
:103A96000000E78020D1AA87C2072324F4FE9700FE
:103AA6000000E78020D02A87832784FED98F23242D
:103AB600F4FE97000000E78020C9B787008003273F
:103AC60084FE23A2E7A0B787008083A747A0BE8510
:103AD600B7770080138547A197100000E78060CB79
:103AE600A5A0032704FE8327C4FEBA972320F4FE6D
:103AF600832744FE138717002322E4FE032784FE50
:103B0600B384E70097000000E78000C4AA872380FB
:103B1600F4008327C4FEFD172326F4FE8327C4FE84
:103B2600E1FB97000000E78020C2B787008083C7CB
:103B360087CEE38507DEB7770080138587A29710C7
:103B46000000E78000C519A8D1BB010001A801004B
:103B560031A0010021A0010011A00100930784DA21
:103B66003E8597F0FFFFE78060D4832504FEB77794
:103B76000080138587A397100000E78080C1232C5F
:103B860004FCB787008083A747A02324F4FC232ED8
:103B960004FC1DA08327C4FD032784FCBA9783C7B2
:103BA60007003E87832784FDBA97232CF4FC8327DE
:103BB600C4FD8507232EF4FC8327C4FD032704FEDA
:103BC600E3EAE7FC832584FDB7770080138587A4A5
:103BD60097100000E780E0BB8320C12503248125E0
:0A3BE600832441251301012682808B
:103BF000411106C622C40008B787008083A787A0AA
:103C00003E8597100000E78020B90100B2402244B1
:043C1000410182806C
:103C1400411106C622C40008B787008083A747A0C5
:0C3C240082970100B240224441018280DE
:103C3000011106CE22CC0010B787008083A787A190
:103C40002324F4FEB7770080138507B19710000096
:103C5000E78080B4B787008003A787A1832784FE0D
:103C6000B307F740BE85B77700801385C7B29710BA
:103C70000000E78060B297F0FFFFE7806015B7872C
:103C8000008083C707C981EBB787008083A787A11E
:103C90002324F4FE95A0B7870080378700801307A0
:103CA00017C923A2E7A6B777008093878701232649
:103CB000F4FE31A8B787008083C707C9034774FEA5
:103CC0006301F7028327C4FEA1072326F4FE83279E
:103CD000C4FE83C70700A303F4FE834774FEF9FB09
:103CE00011A00100B787008083A787A12324F4FED9
:0A3CF0008327C4FEDC438297B1BFB6
:103CFA00011122CE00102326A4FEB78700800327D5
:0E3D0A00C4FE23A8E7CE01007244056182804A
:103D1800011122CE0010232604FE05A0B7870080DB
:103D280003A707CF8327C4FE9207BA97238007000B
:103D38008327C4FE85072326F4FE0327C4FE9307C2
:103D4800F007E3DDE7FCB787008003A707CF8327E9
:103D5800C4FE9207BA9723A60700010072440561C2
:023D6800828057
:103D6A00797106D622D40018232EA4FC232604FE39
:103D7A00A9A8B787008003A707CF8327C4FE9207A5
:103D8A00BA9783C7070085CFB787008003A707CFF5
:103D9A008327C4FE9207BA9731468325C4FD3E8520
:103DAA0097200000E7806053AA8799EBB7870080C5
:103DBA0003A707CF8327C4FE9207BA9731A8010049
:103DCA008327C4FE85072326F4FE0327C4FE930730
:103DDA00F007E3D0E7FA81473E85B25022544561A5
:023DEA008280D5
:103DEC00797106D622D40018232EA4FC232CB4FC03
:103DFC000325C4FD97000000E780A0F62322A4FE53
:103E0C00832744FEDDE30325C4FD97200000E780F3
:103E1C00E043AA872324F4FE032784FEB14763D52D
:103E2C00E700B1472324F4FE232604FE85A8B787B8
:103E3C00008003A707CF8327C4FE9207BA9783C7D6
:103E4C000700A1EBB787008003A707CF8327C4FE29
:103E5C009207BA973E87832784FE3E868325C4FD4E
:103E6C003A8597200000E7802056B787008003A78B
:103E7C0007CF8327C4FE9207BA97032784FDD8C7C0
:103E8C00B787008003A707CF8327C4FE9207BA9792
:103E9C001DA08327C4FE85072326F4FE0327C4FE3A
:103EAC009307F007E3D5E7F831A0832744FE0327F7
:103EBC0084FDD8C781473E85B2502254456182802B
:103ECC00011122CE00102326A4FE2324B4FE832746
:103EDC0084FE0327C4FE98C30100724405618280EE
:103EEC00011122CE00102326A4FE2324B4FE832726
:103EFC0084FE0327C4FE98C30100724405618280CE
:103F0C00011106CE22CC00102326A4FE0327C4FEEA
:103F1C00B167E117BA973E8597F0FFFFE780E0C8DD
:103F2C00AA873E85F240624405618280011106CE6B
:103F3C0022CC00102326A4FE0327C4FEB167E11790
:103F4C00BA973E8597F0FFFFE780A0C7AA873E850A
:083F5C00F2406244056182801D
:103F6400011106CE22CC00102326A4FE0327C4FE92
:103F7400B167F117BA973E8597F0FFFFE78060C3FA
:0C3F8400AA873E85F240624405618280FD
:103F9000011106CE22CC4ACA4EC800102326A4FE28
:103FA0002320B4FE2322C4FE2324D4FE032784FE50
:103FB000856793870780BA978E070327C4FEBA9751
:103FC0002326F4FE8327C4FE9107BE857D55970006
:103FD0000000E780E0EF832704FE8325C4FE3E85D2
:103FE00097000000E780C0EE832744FE13D9070046
:103FF00081494A878327C4FE9107BE853A85970089
:104000000000E780E0EC0100F24062445249C249FE
:044010000561828044
:104014005D7186C6A2C4CAC2CEC052DE56DC5ADA6C
:104024005ED862D666D48008232EA4FA0325C4FB86
:1040340097000000E78000F32326A4FC0325C4FBBB
:1040440097000000E78080EC2324A4FC0325C4FB34
:1040540097000000E78000F12A878327C4FCE397D8
:10406400E7FC8327C4FC3E8C814C93190C00014966
:10407400832784FC3E8A814A336B4901B3EB59019F
:10408400DA875E883E85C285B6402644164986494D
:10409400725AE25A525BC25B325CA25C61618280FA
:1040A400411106C622C400083705B0F0970000008D
:1040B400E78040F6AA872E88378700802328F7D028
:1040C400232A07D197000000E78020010100B240B5
:0640D4002244410182803C
:1040DA00411106C622C40008B787008003A847D149
:1040EA0083A707D1B165938505350146B386B70025
:1040FA0036853335F5003307C800B307E5003E8738
:10410A00B6873A88378700802328F7D0232A07D131
:10411A00B787008003A847D183A707D18146BE8508
:10412A0042863705B0F097000000E78000E60100FC
:08413A00B240224441018280E1
:10414200011106CE22CC0010B777008003A7070129
:10415200B787008023A0E7D0B777008003A7470185
:10416200B787008023A4E7D0B787008083A707D052
:10417200BD8B2326F4FE0327C4FE9D476311F7027D
:10418200B787008083A787A113871700B7870080AE
:1041920023ACE7A097000000E78040F411A00100E3
:0A41A2000100F240624405618280D2
:1041AC00797106D622D40018232EA4FC232CB4FC3F
:1041BC00232AC4FC232604FEB78700800327C4FDF2
:1041CC0023A2E7D0B7870080032784FD23ACE7CE7A
:1041DC00B7870080032744FD23AEE7CEB777008076
:1041EC0003A70700B787008023ACE7D0B777008020
:1041FC0003A74700B787008023AEE7D0B7870080BE
:10420C0083A7C7A113871700B787008023AEE7A049
:10421C000327C4FD8567938707FA6319F700B787EF
:10422C00008083A707CF2326F4FE2DA0B78700803C
:10423C0083A7C7D1BE85B7770080138587B3970056
:10424C000000E780A054B7C7ADDE9387F7EE2326B6
:10425C00F4FE01008327C4FE3E85B2502254456112
:02426C0082804E
:10426E00011106CE22CC0010AA87A307F4FE034745
:10427E00F4FEA9476317F700354597000000E78065
:10428E0060FEB787008083A787A385C3B7870080AA
:10429E0083A787A39386170037870080232CD7A286
:1042AE000347F4FE2380E70031A8B787008083A779
:1042BE0047D289CBB787008003A747D28347F4FE46
:0C42CE003E850297F24062440561828048
:1042DA00011106CE22CC00102326A4FE31A8832782
:1042EA00C4FE138717002326E4FE83C707003E8512
:1042FA0097000000E78040F78327C4FE83C70700C2
:0C430A00F9FF0100F2406244056182806E
:10431600597186D6A2D48018232EA4F8232CB4F87B
:104326008327C4F913871700232EE4F883C70700F1
:10433600A30BF4FC834774FD63830744034774FDB2
:1043460093075002630AF700834774FD3E85970082
:104356000000E780A0F11DA1232004FE832704FEB0
:10436600232EF4FC8327C4F913871700232EE4F8C1
:1043760083C70700A30BF4FC034774FD93070003F0
:104386006310F7028547232EF4FC8327C4F91387AD
:104396001700232EE4F883C70700A30BF4FC25A01F
:1043A600034774FD9307D002631FF7008947232E46
:1043B600F4FC8327C4F913871700232EE4F883C778
:1043C6000700A30BF4FC034774FD9307A002631FC9
:1043D600F706832784F913874700232CE4F89C43C8
:1043E600232CF4FC832784FD63DB0700832784FDED
:1043F600B307F040232CF4FC8947232EF4FC8327D3
:1044060084FD2320F4FE8327C4F913871700232E87
:10441600E4F883C70700A30BF4FCA9A0032704FE56
:10442600BA878A07BA9786073E87834774FDBA9785
:10443600938707FD2320F4FE8327C4F9138717000B
:10444600232EE4F883C70700A30BF4FC034774FD8F
:104456009307F00263F8E700034774FD93079003A0
:10446600E3FEE7FA034774FD9307C0066308F70007
:10447600034774FD9307C0046312F7028327C4FD44
:1044860093E74700232EF4FC8327C4F9138717000C
:10449600232EE4F883C70700A30BF4FC834774FDBF
:1044A6006381072E834774FD230BF4FC034764FDE9
:1044B6009307000663F7E700834764FD8117230B24
:1044C600F4FC834764FD9387E7FB59476360F70E67
:1044D60013972700B7770080938787B4BA979C43D2
:1044E6008287832784F913874700232CE4F89C43AB
:1044F6002324F4FC232204FE31A0832744FE8507EF
:104506002322F4FE032784FC832744FEBA9783C73D
:104516000700E5F739A01305000297000000E780C1
:10452600E0D48327C4FD898B99EB832744FE138748
:1045360017002322E4FE032704FEE3EEE7FC03252F
:1045460084FC97000000E78020D939A013050002FB
:1045560097000000E78080D1832744FE1387170069
:104566002322E4FE032704FEE3E2E7FE01AC8327F1
:1045760084F913874700232CE4F89C4393F7F70F3D
:104586003E8597000000E78060CECDAA89472326A6
:10459600F4FE2DA0A1472326F4FE0DA0A94723264D
:1045A600F4FE29A8C1472326F4FE09A8834774FD13
:1045B6003E8597000000E78060CBC9A28327C4FD33
:1045C600918B99CB832784F913874700232CE4F832
:1045D6009C432328F4FC05A8034764FD9307400485
:1045E600631AF700832784F913874700232CE4F81E
:1045F6009C4301A8832784F913874700232CE4F8FA
:104606009C432328F4FC034764FD9307400463128C
:10461600F702832704FD63DE0700832704FDB30743
:10462600F0402328F4FC8327C4FD93E70701232EDB
:10463600F4FC232404FE832704FD2326F4FC8327AD
:10464600C4FC8325C4FE3E8597C0FFFFE780A0C05B
:10465600AA87230BF4FC8325C4FE0325C4FC97C05C
:10466600FFFFE780C0BAAA872326F4FC034764FD50
:10467600A54763F1E702034774FD930780076315B7
:10468600F7009307700211A09D47034764FDBA9790
:10469600230BF4FC832784FE138717002324E4FEF0
:1046A600034764FD130707031377F70F930604FF09
:1046B600B697238CE7FA8327C4FC91C7032784FEA9
:1046C600FD47E3FEE7F68327C4FDC18B91CF832721
:1046D60084FE138717002324E4FE130704FFBA970A
:1046E6001307D002238CE7FA832784FE2322F4FEE5
:1046F6008327C4FD858B81C79307000319A0930701
:104706000002230BF4FC01A8834764FD3E85970055
:104716000000E780A0B58327C4FD898B99EB83272A
:1047260044FE138717002322E4FE032704FEE3ED6D
:10473600E7FC832784FEFD172324F4FE832784FEEB
:10474600130704FFBA9783C787FB3E8597000000CF
:10475600E780C0B1832784FEE9FF39A01305000274
:1047660097000000E78080B0832744FE1387170078
:104776002322E4FE032704FEE3E2E7FE55B601002A
:0E47860011A001000100B6502654656182802A
:104794005D7106D622D40018232EA4FC4CC010C48C
:1047A40054C418C85CC8232C0401232E1401930795
:1047B400040291172326F4FE8327C4FEBE85032535
:1047C400C4FD97000000E78000B50100B2502254F8
:0447D400616182801D
:1047D800011122CE00102326A4FE2324B4FE832731
:1047E800C4FE032784FE98C30100724405618280D9
:1047F800011106CE22CC00102326A4FE8327C4FE76
:1048080091073E8597E0FFFFE780E03BAA87C183D9
:0E48180093F7F70F3E85F240624405618280FF
:10482600011106CE22CC00102326A4FEAE87A305D6
:10483600F4FE01000325C4FE97000000E780A0FBFC
:10484600AA87EDDB8347B4FE8325C4FE3E8597F039
:10485600FFFFE78080690100F240624405618280C3
:10486600797106D622D426D20018232EA4FC232C36
:10487600B4FC232AC4FC032784FDB7470F009385A5
:1048860007243A8597C0FFFFE7806098AA8723260A
:10489600F4FE032544FD97F0FFFFE780C069AA8474
:1048A6008325C4FE0325C4FD97C0FFFFE780609300
:1048B600AA87A6972324F4FE0100032544FD97F05A
:1048C600FFFFE78040672A87832784FE998FE3D618
:0E48D60007FE0100B2502254925445618280C8
:1048E400011106CE22CC00102326A4FE2324B4FEFC
:1048F4008327C4FE9107BE85032584FE97F0FFFF3E
:0E490400E780C05E0100F240624405618280DF
:10491200011106CE22CC00102326A4FE2324B4FECD
:104922008327C4FEA107BE85032584FE97F0FFFFFF
:0E493200E780E05B0100F24062440561828094
:10494000797106D622D400182326A4FE2324B4FEAF
:104950002322C4FE2320D4FE232EE4FC032744FE9E
:10496000832704FEBA97FD17832504FE3E8597C072
:10497000FFFFE780A089AA873E878327C4FE3E9772
:10498000832784FE1D8F8327C4FDBA97FD178325D7
:10499000C4FD3E8597C0FFFFE7804087AA873E851C
:0849A000B250225445618280EF
:1049A800011122CE00102326A4FE8327C4FE63D360
:0C49B800070081473E8572440561828043
:1049C400011106CE22CC00102326A4FE3706B0F037
:1049D400B7F7FA02938507080325C4FE9700000081
:0E49E400E78060E80100F240624405618280D5
:1049F200011106CE22CC00102326A4FE2324B4FEED
:104A02002322C4FE2320D4FE8327C4FE9387C7102B
:104A1200832544FE3E8597000000E78000DC832763
:104A2200C4FE93878710832504FE3E85970000000D
:104A3200E780A0DA8327C4FE93874710832584FE8C
:104A42003E8597000000E78040D98327C4FE938704
:104A5200071081453E8597000000E78000D8054594
:104A620097000000E78020F60100F24062440561F1
:024A7200828040
:104A7400357106CF22CD26CB4AC94EC752C5001187
:104A8400232EA4F6232CB4F6232AC4F6B6842328B2
:104A9400E4F62326F4F6232404F7032784F7832774
:104AA400C4F6BA97FD178325C4F63E8597B0FFFF79
:104AB400E7800076AA872328F4FC8325C4F603251F
:104AC40004FD97B0FFFFE780E071AA873E87832744
:104AD40084F7B307F7402326F4FC032744F783271E
:104AE400C4F6BA97FD178325C4F63E8597B0FFFF39
:104AF400E7800072AA872324F4FC8325C4F60325E7
:104B040084FC97B0FFFFE780E06DAA873E87832788
:104B140044F7B307F7402322F4FC232004FC232E9C
:104B240004FA8325C4F6032504F797B0FFFFE78052
:104B3400606BAA87232CF4FA232E04FC232C04FC98
:104B44008547232AF4FA9C4009476364F70091EBF4
:104B540029A00D47638BE70005A08547232CF4FCAF
:104B640021A88947232CF4FC01A89147232EF4FCA7
:104B74008947232CF4FC01008325C4F6032584F61D
:104B840097B0FFFFE7800066AA872328F4FADC5079
:104B94003E86832784F60327C4F6BE8681450145F5
:104BA40097000000E780C0D92326A4FA832704FCD9
:104BB4008325C4FB98443A86832684F60327C4F6E7
:104BC4003E8597000000E780A0D72324A4FA83271A
:104BD400C4FB832504FCD8443A86832684F6032741
:104BE400C4F63E8597000000E78080D52322A4FA0E
:104BF400832704FC832504FCD8403A86832684F664
:104C04000327C4F63E8597000000E78060D3232085
:104C1400A4FA032904FC832904FC832584F60325D0
:104C2400C4FD97B0FFFFE780E05BAA87985063F369
:104C3400E700BA873E86832784F60327C4F6BE8638
:104C4400CE854A8597000000E78080CF232EA4F804
:104C5400032504FC032744FC8327C4FC6373F70087
:104C6400BA87BE859C483E86832784F60327C4F60C
:104C7400BE8697000000E780A0CC232CA4F803296B
:104C8400C4FC832944FC032784F7832784FB3E97D1
:104C9400832784FD3E97832744F7B307F740832592
:104CA40084F63E8597B0FFFFE780C053AA873E860F
:104CB400832784F60327C4F6BE86CE854A859700EB
:104CC4000000E780E0C7232AA4F80329C4FC832951
:104CD400C4FB832584F6032584FB97B0FFFFE7809C
:104CE4006050AA87D84C63F3E700BA873E868327CF
:104CF40084F60327C4F6BE86CE854A859700000055
:104D0400E78000C42328A4F8832944FC032AC4FCB4
:104D1400832584F6032584FB97B0FFFFE780804C4E
:104D2400AA873E87DC483A896373F9003E890327E2
:104D340044F7832784FBBA97832584F63E8597B08E
:104D4400FFFFE780204AAA87CA973E86832784F616
:104D54000327C4F6BE86D2854E8597000000E780FF
:104D640020BE2326A4F8832944FC032AC4FB03A9F8
:104D74008401032744F7832784FB3E97832744FB5E
:104D8400BA97FD17832584F63E8597B0FFFFE78029
:104D94006045AA87CA973E86832784F60327C4F60C
:104DA400BE86D2854E8597000000E78060B9232433
:104DB400A4F8832704FC832504FC98543A868326AC
:104DC40084F60327C4F63E8597000000E78040B7C9
:104DD4002322A4F88327C4FB13978701832704FCA9
:104DE400C2075D8F8327C4FCA2075D8F832744FC21
:104DF4005D8F8327C4F79107BE853A8597F0FFFF3F
:104E0400E780C00E8327C4F7A107BE85014597F04C
:104E1400FFFFE780A00D8325C4F7094597F0FFFF46
:104E2400E780C00C8327C4FAFD173E878327C4F7A5
:104E3400C107BE853A8597F0FFFFE780200B8327E3
:104E4400C4F9F9173E8597000000E780E0B5AA870A
:104E540093948701832704FAF9173E85970000008D
:104E6400E78080B4AA87C207DD8C832744FAF91748
:104E74003E8597000000E78020B3AA87A207DD8C57
:104E8400832784FAF9173E8597000000E780C0B1B4
:104E9400AA8733E7F4008327C4F793870702BE8504
:104EA4003A8597F0FFFFE7806004832784F9F917B8
:104EB4003E8597000000E78020AF2A878327C4F748
:104EC40093874702BE853A8597F0FFFFE78000028B
:104ED400832784F8F9173E8597000000E780C0AC6B
:104EE400AA87939487018327C4F8F9173E8597000E
:104EF4000000E78060ABAA87C207DD8C832704F932
:104F0400F9173E8597000000E78000AAAA87A20748
:104F1400DD8C832744F9F9173E8597000000E7806C
:104F2400A0A8AA8733E7F4008327C4F793878702EE
:104F3400BE853A8597F0FFFFE78040FB832744F85E
:104F4400FD173E8597000000E78000A62A87832787
:104F5400C4F793870703BE853A8597F0FFFFE78080
:104F6400E0F8832744FC99078325C4F63E8597B06F
:104F7400FFFFE780602EAA873E878547B397E70047
:104F8400FD17232AF4FC832744FD89EB8327C4F609
:104F94000547B317F700FD17232AF4FC032744FC45
:104FA4008327C4F6BA9795078325C4F63E8597B040
:104FB400FFFFE780E025AA87FD172320F4F8832765
:104FC40044FD13978700832704F8D98F3E878327EE
:104FD400C4F793874703BE853A8597F0FFFFE780C0
:104FE400E0F00100FA406A44DA444A49BA492A4ADC
:044FF4000D61828049
:104FF800797106D622D40018232EA4FC232CB4FCE5
:10500800232AC4FC2328D4FC832504FD032544FD5E
:1050180097B0FFFFE780C01CAA872324F4FE03276C
:1050280084FE8947630BF702032784FE894763E8F8
:10503800E700032784FE8547630EF7001DA80327B2
:1050480084FE9147630FF700032784FEA147630E90
:10505800F70005A0232604FE29A885472326F4FE89
:1050680009A889472326F4FE29A08D472326F4FEA4
:105078000100832784FD1387F7FF8327C4FDB10749
:10508800BE853A8597F0FFFFE78000E68327C4FDD9
:1050980093870711BE85014597F0FFFFE780C0E4BD
:1050A8001305400697000000E78080918327C4FD20
:1050B80093870711BE85094597F0FFFFE780C0E297
:1050C8001305400697000000E780808F9306004094
:1050D8000146A1450325C4FD97000000E780209103
:1050E80081460146C1450325C4FD97000000E780BD
:1050F800009081460146C1450325C4FD9700000084
:10510800E780E08E832784FD139747008327C4FE3A
:10511800D98FBE86014681450325C4FD970000004E
:10512800E780E08C8325C4FD054597F0FFFFE78005
:0C513800A0DB0100B250225445618280CF
:10514400011106CE22CC00102326A4FE8325C4FE22
:10515400054597F0FFFFE78060D90100F240624403
:0451640005618280DF
:10516800011106CE22CC26CA00102326A4FEAE8446
:1051780098408327C4FE93870704BE853A8597F035
:10518800FFFFE78060D6D8408327C4FE9387470493
:10519800BE853A8597F0FFFFE78000D598448327BE
:1051A800C4FE93878704BE853A8597F0FFFFE780A2
:1051B800A0D3D8448327C4FE9387C704BE853A8505
:1051C80097F0FFFFE78040D298488327C4FE938773
:1051D8000705BE853A8597F0FFFFE780E0D0D848FD
:1051E8008327C4FE93874705BE853A8597F0FFFF5E
:1051F800E78080CF984C8327C4FE93878705BE85B8
:105208003A8597F0FFFFE78020CED84C8327C4FE6D
:105218009387C705BE853A8597F0FFFFE780C0CC26
:1052280098508327C4FE93870706BE853A8597F072
:10523800FFFFE78060CB0100F2406244D244056181
:02524800828062
:10524A00797106D622D40018232EA4FC232CB4FC90
:10525A00232AC4FC2328D4FC832784FD9E07032722
:10526A00C4FDBA972326F4FE8325C4FE032544FD14
:10527A0097F0FFFFE78020C7832704FD1387F7FF16
:10528A008567FD177D8F85675D8F8327C4FEB1070C
:10529A00BE853A8597F0FFFFE780E0C40100B2506F
:0652AA00225445618280E0
:1052B000397106DE22DC8000232EA4FC232CB4FCF2
:1052C000232AC4FC2328D4FC2326E4FC2324F4FC56
:1052D000832784FD9E070327C4FDBA972326F4FE87
:1052E000832704FD13978700832744FD5D8F832761
:1052F000C4FCC2075D8F8327C4FEE107BE853A85E3
:1053000097F0FFFFE780C0BE832784FC99C309673D
:1053100011A001478327C4FEF107BE853A8597F0A7
:10532000FFFFE780E0BC0100F250625421618280FF
:10533000797106D622D40018232EA4FC232CB4FCA9
:10534000232AC4FC2328D4FC832784FD9E0703273B
:10535000C4FDBA972326F4FE832744FD1387F7FF85
:105360008327C4FE93870702BE853A8597F0FFFF27
:10537000E78000B8832704FD99C38D4711A08547B6
:105380000327C4FE1307C702BA853E8597F0FFFFC7
:0E539000E78000B60100B250225445618280D1
:10539E00011106CE22CC0010AA87A307F4FE01004D
:1053AE00370501F097F0FFFFE7806044AA87EDDB39
:1053BE008347F4FEBE85370501F097F0FFFFE780C7
:0E53CE00E04581473E85F240624405618280E1
:1053DC00797106D622D40018232EA4FC29A8834761
:1053EC00F4FE3E8597000000E780E0FA8327C4FDB9
:1053FC008507232EF4FC8327C4FD83C70700A3076E
:10540C00F4FE8347F4FEE1FF81473E85B2502254FF
:04541C0045618280E4
:10542000411106C622C400080100370501F097F0BB
:10543000FFFFE780A03CAA87EDDB0100B2402244D9
:045440004101828024
:10544400011106CE22CC0010370501F097D0FFFFE2
:10545400E780C07BAA8789CF370501F097E0FFFF7B
:10546400E7800081AA872326F4FE8327C4FE11A0C7
:0C547400FD573E85F240624405618280D5
:0E548000411122C60008010032444101828021
:10548E00411122C60008FD573E85324441018280FB
:10549E005D7186C6A2C4800897F0FFFFE780E0BF6B
:1054AE00930700082326F4FE8327C4FE73A047301B
:1054BE008967938787802324F4FE832784FE739065
:1054CE0007308545370500F097F0FFFFE780C043B2
:1054DE008145370500F097F0FFFFE7800040B77772
:1054EE00008003A3C7C91387C7C983284700138742
:1054FE00C7C9032887001387C7C948471387C7C979
:10550E000C4B1387C7C9504B1387C7C9144F13874A
:10551E00C7C9584F9387C7C99C53232864FA232AB7
:10552E0014FB232C04FB232EA4FA2320B4FC2322E9
:10553E00C4FC2324D4FC2326E4FC2328F4FC930788
:10554E0004FBBE85370509F097000000E78020C1F7
:10555E00370509F097000000E78020BE8146370628
:10556E0000408145370508F097000000E78040CDE8
:10557E0085470147814601468145370508F097006A
:10558E000000E78040D28546376609008145370521
:10559E0008F097000000E78000D9B78700803757E2
:1055AE0000801307E73923A2E7D2B777008013856F
:1055BE0087D997F0FFFFE780401DB777008083A75C
:1055CE004700BE85B7770080138507DB97F0FFFF96
:1055DE00E780A01BB777008083A70700BE85B7774B
:1055EE000080138547DC97F0FFFFE780001AB7773E
:1055FE00008083A7C700BE85B7770080138587DD3F
:10560E0097F0FFFFE7806018B777008083A78700C9
:10561E00BE85B77700801385C7DE97F0FFFFE78062
:10562E00C016B7870080138587D297E0FFFFE7800B
:10563E00206C97E0FFFFE780806DB767008093874F
:10564E00478EBE85B7770080138507E097E0FFFF92
:10565E00E7802079B747008093874779BE85B77773
:10566E000080138587E097E0FFFFE7808077B757CC
:10567E00008093870748BE85B7770080138507E1C2
:10568E0097E0FFFFE780E075B757008093870748E4
:10569E00BE85B7770080138507E297E0FFFFE780AE
:1056AE004074B757008093870748BE85B777008050
:1056BE00138507E397E0FFFFE780A072B7570080DE
:1056CE0093870748BE85B7770080138507E497E078
:1056DE00FFFFE7800071B757008093870748BE85AC
:1056EE00B7770080138507E597E0FFFFE780606FCF
:1056FE00B75700809387E748BE85B777008013853C
:10570E0087E597E0FFFFE780C06DB757008093876E
:10571E000748BE85B7770080138547E697E0FFFF01
:10572E00E780206CB757008093870748BE85B77710
:10573E0000801385C7E697E0FFFFE780806AB757C2
:10574E00008093870748BE85B7770080138547E7AB
:10575E0097E0FFFFE780E068B757008093874744E4
:10576E00BE85B7770080138507E897E0FFFFE780D7
:10577E004067B75700809387E739BE85B7770080BB
:10578E001385C7E897E0FFFFE780A065B757008055
:10579E009387C73DBE85B7770080138587E997E06D
:1057AE00FFFFE7800064B757008093870742BE85EE
:1057BE00B7770080138547EA97E0FFFFE7806062C6
:1057CE008567138507FA97B0FFFFE780609923225C
:1057DE00A4FE032644FE8567938507FAB7770080FB
:1057EE00138507EB97F0FFFFE78020FAB77700806D
:1057FE0083AEC7C11387C7C1032E47001387C7C126
:10580E00032387001387C7C18328C7001387C7C127
:10581E00032807011387C7C1484B1387C7C10C4F15
:10582E001387C7C1504F1387C7C114531387C7C1FE
:10583E0058539387C7C19C572328D4FB232AC4FBF4
:10584E00232C64FA232E14FB232004FD2322A4FC14
:10585E002324B4FC2326C4FC2328D4FC232AE4FCF2
:10586E00232CF4FC930604FB9567138807E2894703
:10587E00054701468D45370510F097F0FFFFE7808D
:10588E00C01E894605468D45370510F097F0FFFF7F
:10589E00E780E07597E0FFFFE780E03881473E85BF
:0858AE00B640264461618280CE
:1058B800972700009387C71583A7070083A7470387
:1058C8006386070003A5C70E6780000097170000CE
:0C58D8009387C77803A5C70E6780000007
:1058E40097270000938707139305050003A5070076
:0858F4001703000067008300A8
:1058FC00130101FD232291022320210323261102EF
:10590C0023248102232E3101232C4101232A51010E
:10591C002328610123267101232481012322910173
:10592C009384B500930760011309050063EA970699
:10593C009307000163E4B72497100000E780008907
:10594C00930400019307800113062000972900009F
:10595C0093894987B387F90003A44700138787FF0E
:10596C006306E426832744008326C40003268400B0
:10597C0093F7C7FFB307F40003A747002326D6000D
:10598C0023A4C600136717001305090023A2E70020
:10599C0097100000E7808084130584006F00C01E00
:1059AC0093F484FF63CC041C63EAB41C97100000CE
:1059BC00E780C0819307701F63F2974E93D79400D2
:1059CC00638E071E130740006364F74693D7640089
:1059DC0013869703138587039316360097190000D7
:1059EC009389497EB386D90003A44600938686FF2B
